:020000040000FA
:100000000F0EC16EFF0E926E936E070E956E000E70
:10001000946E966E83B40FEF00F011EF00F044EF92
:1000200000F083B216EF00F01FEF00F083B01BEF7B
:1000300000F01DEF00F03DEF00F036EF00F083B070
:1000400024EF00F026EF00F02FEF00F028EF00F093
:10005000839E839C839A4BEC00F00AEF00F0839E12
:10006000839C838A58EC00F00AEF00F0839E838C17
:10007000839A64EC00F00AEF00F0839E838C838AFD
:1000800070EC00F00AEF00F0838E839C839A7CEC86
:1000900000F00AEF00F080500F0B206E201C0F0BB9
:1000A000226E22C082FF02E084901200848012003F
:1000B00080500F0B206E81500F0B2024226E22C027
:1000C00082FFF4E08490120080500F0B206E81506C
:1000D0000F0B2014226E22C082FFE8E084901200F1
:1000E00080500F0B206E81500F0B2018226E22C003
:1000F00082FFDCE08490120080500F0B206E090E0E
:1001000020658EEF00F085EF00F0060E202620C05F
:1001100022F022C082FFCAE08490120020C022F0A8
:0A01200022C082FFC3E084901200A9
:02012A000000D3
:020000040030CA
:0100010008F6
:0100020019E4
:010003001EDE
:010006008178
:00000001FF
