:040000000CEF00F011
:10000800FACF01F0FBCF02F0E9CF03F012ED10F0C8
:10001800EDEF10F034EC14F0A0EC13F0000E236EAA
:10002800000E226EEDEC13F0AC0E476E000E486E1B
:1000380047C00FF048C010F0E40E116EFF0E126EAC
:100048005AEC13F0020E376E47C038F048C039F04A
:10005800FF0E3B6E3A68000E3D6E000E3C6E010EC0
:100068003E6E020E23EC0AF0020E376E640E386EF6
:10007800000E396EFF0E3B6E3A68000E3D6E000EA4
:100088003C6E010E3E6E230E23EC0AF047C00FF0C3
:1000980048C010F0EA0E116EFF0E126E5AEC13F003
:1000A800020E376E47C038F048C039F0FF0E3B6E7D
:1000B8003A68000E3D6E000E3C6E010E3E6E320E2A
:1000C80023EC0AF0020E376E960E386E000E396E6B
:1000D800FF0E3B6E3A68000E3D6E000E3C6E010E40
:1000E8003E6E4B0E23EC0AF047C00FF048C010F0EC
:1000F800F70E116EFF0E126E5AEC13F0020E376EE9
:10010800610E386E000E396EFF0E3B6E3A68000EB7
:100118003D6E000E3C6E010E3E6E640E23EC0AF03E
:1001280047C00FF048C010F0FC0E116EFF0E126EA3
:100138005AEC13F0020E376E47C038F048C039F059
:10014800FF0E3B6E3A68000E3D6E000E3C6E010ECF
:100158003E6E780E23EC0AF047C00FF048C010F04E
:10016800AA0E116EFF0E126E5AEC13F00B0E376EBC
:1001780047C038F048C039F0FF0E3B6E3A68000EB1
:100188003D6E000E3C6E010E3E6E010E23EC0AF031
:10019800140E376E700E386E000E396EFF0E3B6E01
:1001A8003A68000E3D6E000E3C6E010E3E6E080E63
:1001B80023EC0AF0140E376E6E0E386E000E396E90
:1001C800FF0E3B6E3A68000E3D6E000E3C6E010E4F
:1001D8003E6E230E23EC0AF0140E376E6C0E386E4A
:1001E800000E396EFF0E3B6E3A68000E3D6E000E33
:1001F8003C6E010E3E6E3C0E23EC0AF0140E376E78
:100208006A0E386E000E396EFF0E3B6E3A68000EAD
:100218003D6E000E3C6E010E3E6E550E23EC0AF04C
:10022800140E376E660E386E000E396EFF0E3B6E7A
:100238003A68000E3D6E000E3C6E010E3E6E6C0E6E
:1002480023EC0AF0140E376E680E386E000E396E05
:10025800FF0E3B6E3A68000E3D6E000E3C6E010EBE
:100268003E6E770E23EC0AF047C00FF048C010F03E
:10027800C00E116EFF0E126E5AEC13F01E0E376E82
:1002880047C038F048C039F0FF0E3B6EE00E3A6EBA
:10029800000E3D6E000E3C6E010E3E6E1E0E23ECEF
:1002A8000AF0000E226E1E0E216E000E246E260E1F
:1002B800236E000E266E3C0E256E000E286E120E62
:1002C800276EFF0E2A6EE00E296EBAEC10F0000EB3
:1002D8001B6E280E1A6E000E1D6E2E0E1C6E000E62
:1002E8001F6E070E1E6EF80E216E000E206EB8EC03
:1002F80006F0000E1B6E3C0E1A6E000E1D6E2E0EC2
:100308001C6E000E1F6E070E1E6EFF0E216EE00E95
:10031800206EB8EC06F0000E3A6E500E396E000EE4
:100328003C6E2E0E3B6E000E3E6E070E3D6E070EA7
:10033800406EE00E3F6EA4EC11F0280E376EA10E51
:10034800386E000E396EFF0E3B6EE00E3A6E000EF0
:100358003D6E000E3C6E020E3E6E640E23EC0AF0FB
:1003680047C00FF048C010F0D60E116EFF0E126E87
:100378005AEC13F03C0E376E47C038F048C039F0DD
:10038800F80E3B6E1F0E3A6E000E3D6E000E3C6E70
:10039800010E3E6E1E0E23EC0AF0000E226E1E0E9B
:1003A800216E000E246E440E236E000E266E3C0E47
:1003B800256E000E286E120E276EF80E2A6E1F0E7E
:1003C800296EBAEC10F0000E3A6E280E396E000E47
:1003D8003C6E4C0E3B6E000E3E6E070E3D6EF80EE8
:1003E800406E000E3F6EA4EC11F0000E1B6E3C0E2A
:1003F8001A6E000E1D6E4C0E1C6E000E1F6E070E40
:100408001E6EFF0E216EE00E206EB8EC06F0000E98
:100418001B6E500E1A6E000E1D6E4C0E1C6E000EDA
:100428001F6E070E1E6E070E216EE00E206EB8ECD2
:1004380006F0460E376E9E0E386E000E396EF80EB8
:100448003B6E1F0E3A6E000E3D6E000E3C6E020EA5
:100458003E6E640E23EC0AF047C00FF048C010F05F
:10046800CC0E116EFF0E126E5AEC13F05A0E376E48
:1004780047C038F048C039F0070E3B6E3A68000EA6
:100488003D6E000E3C6E010E3E6E1E0E23EC0AF011
:10049800000E226E1E0E216E000E246E620E236E5A
:1004A800000E266E3C0E256E000E286E120E276E6C
:1004B800070E2A6E2968BAEC10F0000E3A6E280E64
:1004C800396E000E3C6E6A0E3B6E000E3E6E070ED5
:1004D8003D6EF80E406E000E3F6EA4EC11F0000E5B
:1004E8001B6E3C0E1A6E000E1D6E6A0E1C6E000E00
:1004F8001F6E070E1E6EFF0E216EE00E206EB8EC0A
:1005080006F0000E1B6E500E1A6E000E1D6E6A0E5F
:100518001C6E000E1F6E070E1E6E070E216EE00E7B
:10052800206EB8EC06F0640E376E5E0E386E000E64
:10053800396E070E3B6E3A68000E3D6E000E3C6E3B
:10054800020E3E6E640E23EC0AF047C00FF048C05E
:1005580010F0DD0E116EFF0E126E5AEC13F0780ECD
:10056800376E47C038F048C039F0FF0E3B6E3A6826
:10057800000E3D6E000E3C6E010E3E6E1E0E23EC0C
:100588000AF0000E226E1E0E216E000E246E800EE2
:10059800236E000E266E3C0E256E000E286E120E7F
:1005A800276EFF0E2A6E2968BAEC10F0000E3A6E1C
:1005B800280E396E000E3C6E880E3B6E000E3E6EA5
:1005C800070E3D6EF80E406E000E3F6EA4EC11F063
:1005D800000E1B6E3C0E1A6E000E1D6E880E1C6EF1
:1005E800000E1F6E070E1E6EFF0E216EE00E206EAF
:1005F800B8EC06F0000E1B6E500E1A6E000E1D6E43
:10060800880E1C6E000E1F6E070E1E6E070E216EE2
:10061800E00E206EB8EC06F0820E376E9B0E386E38
:10062800000E396EFF0E3B6E3A68000E3D6E000EEE
:100638003C6E020E3E6E640E23EC0AF047C00FF0CB
:1006480048C010F0EF0E116EFF0E126E5AEC13F048
:100658001E0E376E47C038F048C039F0FF0E3B6EAB
:10066800E00E3A6E000E3D6E000E3C6E010E3E6EC0
:10067800030E23EC0AF0280E376EA70E386E000E14
:10068800396EFF0E3B6EE00E3A6E000E3D6E000EA8
:100698003C6E020E3E6E020E23EC0AF047C00FF0CD
:1006A80048C010F0F30E116EFF0E126E5AEC13F0E4
:1006B8005A0E376E47C038F048C039F0070E3B6E07
:1006C8003A68000E3D6E000E3C6E010E3E6E030E43
:1006D80023EC0AF0640E376EA40E386E000E396EE5
:1006E800070E3B6E3A68000E3D6E000E3C6E020E21
:1006F8003E6E020E23EC0AF0530E0001806F500E7E
:1007080004D0460E0001806F530E0001816F320E37
:100718000001826F340E0001836F310E0001856F76
:10072800300E0001876F310E0001886F380E00010E
:100738008A6F370E00018B6F380E00018C6F370EF1
:1007480000018D6F360E00018E6F370E00018F6F1E
:10075800360E0001916F370E0001926F360E0001C0
:10076800936F380E0001946F960E376E800E386EB8
:10077800000E396EFF0E3B6E3A68000E3D6E000E9D
:100788003C6E010E3E6E010E23EC0AF01200426E22
:1007980042501E0DF3502E0F436E4150D8A467D01F
:1007A800000E3A6E280E396E43C03BF03C6A000ECC
:1007B8003E6E070E3D6E000E406E000E3F6EA4ECBE
:1007C80011F0000E3A6E3C0E396E43C03BF03C6AA5
:1007D800000E3E6E070E3D6E000E406E000E3F6E20
:1007E800A4EC11F0000E3A6E500E396E43C03BF087
:1007F8003C6A000E3E6E070E3D6E000E406E000E07
:100808003F6EA4EC11F0000E1B6E280E1A6E43C04A
:100818001CF01D6A000E1F6E070E1E6EF80E216E6C
:10082800000E206EB8EC06F0000E1B6E3C0E1A6E21
:1008380043C01CF01D6A000E1F6E070E1E6EFF0ED1
:10084800216EE00E206EB8EC06F0000E1B6E500E06
:100858001A6E43C01CF01D6A000E1F6E070E1E6E36
:10086800070E216EE00E206EB8EC06F000D04104B1
:10087800D8A467D0000E3A6E280E396E43C03BF0FC
:100888003C6A000E3E6E070E3D6EF80E406E000E7E
:100898003F6EA4EC11F0000E3A6E3C0E396E43C068
:1008A8003BF03C6A000E3E6E070E3D6E000E406E39
:1008B800000E3F6EA4EC11F0000E3A6E500E396E29
:1008C80043C03BF03C6A000E3E6E070E3D6E000EC4
:1008D800406E000E3F6EA4EC11F0000E1B6E280E49
:1008E8001A6E43C01CF01D6A000E1F6E070E1E6EA6
:1008F800F80E216E000E206EB8EC06F0000E1B6E8E
:100908003C0E1A6E43C01CF01D6A000E1F6E070EC7
:100918001E6EFF0E216EE00E206EB8EC06F0000E83
:100928001B6E500E1A6E43C01CF01D6A000E1F6E1F
:10093800070E1E6E070E216EE00E206EB8EC06F054
:1009480000D0030E4118D8A467D0000E3A6E280EC6
:10095800396E43C03BF03C6A000E3E6E070E3D6E9A
:10096800000E406E000E3F6EA4EC11F0000E3A6EC1
:100978003C0E396E43C03BF03C6A000E3E6E070EDB
:100988003D6EFF0E406EE00E3F6EA4EC11F0000EBF
:100998003A6E500E396E43C03BF03C6A000E3E6E14
:1009A800070E3D6E000E406E000E3F6EA4EC11F077
:1009B800000E1B6E280E1A6E43C01CF01D6A000E36
:1009C8001F6E070E1E6EF80E216E000E206EB8EC1C
:1009D80006F0000E1B6E3C0E1A6E43C01CF01D6A1A
:1009E800000E1F6E070E1E6EFF0E216EE00E206EAB
:1009F800B8EC06F0000E1B6E500E1A6E43C01CF0C9
:100A08001D6A000E1F6E070E1E6E070E216EE00E89
:100A1800206EB8EC06F000D0020E4118D8A467D0BA
:100A2800000E3A6E280E396E43C03BF03C6A000E49
:100A38003E6E070E3D6E000E406E000E3F6EA4EC3B
:100A480011F0000E3A6E3C0E396E43C03BF03C6A22
:100A5800000E3E6E070E3D6E000E406E000E3F6E9D
:100A6800A4EC11F0000E3A6E500E396E43C03BF004
:100A78003C6A000E3E6E070E3D6E070E406EE00E9D
:100A88003F6EA4EC11F0000E1B6E280E1A6E43C0C8
:100A98001CF01D6A000E1F6E070E1E6EF80E216EEA
:100AA800000E206EB8EC06F0000E1B6E3C0E1A6E9F
:100AB80043C01CF01D6A000E1F6E070E1E6EFF0E4F
:100AC800216EE00E206EB8EC06F0000E1B6E500E84
:100AD8001A6E43C01CF01D6A000E1F6E070E1E6EB4
:100AE800070E216EE00E206EB8EC06F000D0120062
:100AF800C9EC13F00FC0D2F010C0D3F0000E83EC95
:100B080010F02AC0D4F02BC0D5F02CC0D6F0D4C039
:100B18000FF0D5C010F0D6C011F0000E126E200EE6
:100B2800136E400E146EFEEC0EF0D8B002D0010E1B
:100B380001D0000E506ED4C026F0D5C027F0D6C024
:100B480028F09DEC0BF02650300F0001966F000E38
:100B58001A6E200E1B6E410E1C6ED4C017F0D5C045
:100B680018F0D6C019F0A8EC0AF017C026F018C083
:100B780027F019C028F09DEC0BF026C035F027C0EF
:100B880036F0000E386E0A0E376ED1EC0FF0355085
:100B9800300F0001986F5050D8A402D04E0E01D0EB
:100BA800440E626E5150D8A402D04E0E01D0440EAD
:100BB800646E00D04AC055F0000E82B0010E546E2B
:100BC80052C057F0000E80BA010E566E5750D8A486
:100BD80002D0300E01D0310E706E5650D8A402D01B
:100BE800300E01D0310E6E6E5550D8A402D0300EA2
:100BF80001D0310E6C6E5450D8A402D0300E01D002
:100C0800310E6A6E4B50D8A402D0300E01D0310E8E
:100C1800666E4C50D8A402D0300E01D0310E686EEA
:100C280000D0020E376E640E386E000E396EFF0E5D
:100C38003B6E3A68000E3D6E000E3C6E010E3E6E35
:100C4800230E23EC0AF0020E376E960E386E000E55
:100C5800396EFF0E3B6E3A68000E3D6E000E3C6E1C
:100C6800010E3E6E4B0E23EC0AF0020E376E610E3B
:100C7800386E000E396EFF0E3B6E3A68000E3D6E00
:100C8800000E3C6E010E3E6E640E23EC0AF0140E4C
:100C9800376E700E386E000E396EFF0E3B6E3A6876
:100CA800000E3D6E000E3C6E010E3E6E080E23ECEB
:100CB8000AF0140E376E6E0E386E000E396EFF0E87
:100CC8003B6E3A68000E3D6E000E3C6E010E3E6EA5
:100CD800230E23EC0AF0140E376E6C0E386E000EDD
:100CE800396EFF0E3B6E3A68000E3D6E000E3C6E8C
:100CF800010E3E6E3C0E23EC0AF0140E376E6A0E9F
:100D0800386E000E396EFF0E3B6E3A68000E3D6E6F
:100D1800000E3C6E010E3E6E550E23EC0AF0140ECA
:100D2800376E660E386E000E396EFF0E3B6E3A68EF
:100D3800000E3D6E000E3C6E010E3E6E6C0E23ECF6
:100D48000AF0140E376E680E386E000E396EFF0EFC
:100D58003B6E3A68000E3D6E000E3C6E010E3E6E14
:100D6800770E23EC0AF012001EC022F01FC023F0F9
:100D7800221E231E224A232A010E2224286E000E38
:100D88002320296E000E256E010E246E1EC022F04F
:100D98001FC023F0D89022362336221E231E224A53
:100DA800232A22C026F023C027F0000E2B6E000E47
:100DB8002A6E1EC02CF01FC02DF01C501E24166E6B
:100DC80020C017F021C018F01A5073EC13F01E5011
:100DD80000081C24166E20C017F021C018F01A5005
:100DE80073EC13F01CC016F020C017F021C018F0E7
:100DF8001A501E2473EC13F01CC016F020C017F014
:100E080021C018F01E5000081A2473EC13F078D093
:100E180029BE0BD02C06D8A02D06020E2626000EC1
:100E2800272226502826275029222A4A2B2A020E12
:100E38002426000E252224502826255029221C501D
:100E48002C24166E20C017F021C018F01A502A243E
:100E580073EC13F01C502C24166E20C017F021C020
:100E680018F02A5000081A2473EC13F02C500008CC
:100E78001C24166E20C017F021C018F01A502A241E
:100E880073EC13F02C5000081C24166E20C017F0C9
:100E980021C018F02A5000081A2473EC13F01C50D3
:100EA8002A24166E20C017F021C018F01A502C24DE
:100EB80073EC13F01C502A24166E20C017F021C0C2
:100EC80018F02C5000081A2473EC13F02A5000086C
:100ED8001C24166E20C017F021C018F01A502C24BC
:100EE80073EC13F02A5000081C24166E20C017F06B
:100EF80021C018F02C5000081A2473EC13F000D00D
:100F08002C502A5C2B50800A226E2D50800A2258C1
:100F1800D8A07ED71200426EB4D041C00FF0106A3C
:100F2800000E126E0A0E116EB3EC0EF00F50300F59
:100F38000001A16F41C035F0366A000E386E0A0E06
:100F4800376ED1EC0FF03550300F0001A26F280E2C
:100F5800376EA10E386E000E396EFF0E3B6EE00E36
:100F68003A6E000E3D6E000E3C6E020E3E6E640E32
:100F780023EC0AF094D041C00FF0106A000E126EF4
:100F88000A0E116EB3EC0EF00F50300F00019E6F79
:100F980041C035F0366A000E386E0A0E376ED1EC55
:100FA8000FF03550300F00019F6F460E376E9E0EC2
:100FB800386E000E396EF80E3B6E1F0E3A6E000E3C
:100FC8003D6E000E3C6E020E3E6E640E23EC0AF07F
:100FD80066D041C00FF0106A000E126E0A0E116E34
:100FE800B3EC0EF00F50300F5E6E41C035F0366A2C
:100FF800000E386E0A0E376ED1EC0FF03550300FF8
:101008005F6E640E376E5E0E386E000E396E070E18
:101018003B6E3A68000E3D6E000E3C6E020E3E6E50
:10102800640E23EC0AF03BD041C00FF0106A000EAA
:10103800126E0A0E116EB3EC0EF00F50300F000155
:101048009B6F41C035F0366A000E386E0A0E376E57
:10105800D1EC0FF03550300F00019C6F820E376EC7
:101068009B0E386E000E396EFF0E3B6E3A68000E0E
:101078003D6E000E3C6E020E3E6E640E23EC0AF0CE
:101088000ED04250000AD8B448D7010AD8B473D752
:10109800030AD8B49ED7010AD8B4C6D700D0120024
:1010A800346E800E3460A6D09F0E2C6401D0A2D07E
:1010B8003250D8A403D0010E326E00D01F0E2D641A
:1010C80004D07E0E2D6403D000D03F0E2D6E000E8E
:1010D800366E040E366401D08DD0530E2D6015D0B7
:1010E800E00E2D240F6E106AFF0E1022000E126EF5
:1010F800050E116EB5EC13F036500F26000E1022B7
:10110800CF0E0F24F66EFD0E14D0AD0E2D240F6EEB
:10111800106AFF0E1022000E126E050E116EB5EC4D
:1011280013F036500F26000E1022CE0E0F24F66E46
:10113800FE0E1020F76E0800F5CF33F000D0000E39
:10114800356E060E356401D053D033A023D0320457
:10115800D8A40CD02C503524166E2EC017F02FC0F2
:1011680018F03450362473EC13F03ED03550320268
:10117800F3502C24216E32C022F032C023F02EC04E
:1011880024F02FC025F036503202F3503424F4EC0A
:1011980011F02AD02E50301804E12F503118D8B44D
:1011A80023D03204D8A40CD02C503524166E30C06D
:1011B80017F031C018F03450362473EC13F014D003
:1011C80035503202F3502C24216E32C022F032C046
:1011D80023F030C024F031C025F036503202F350ED
:1011E8003424F4EC11F000D0352AD8903332A9D742
:1011F800362A6FD7120025C02DF026C02EF02D1EDE
:101208002E1E2D4A2E2A010E2D24336E000E2E205E
:10121800346E000E306E010E2F6E25C02DF026C0E4
:101228002EF0D8902D362E362D1E2E1E2D4A2E2A03
:101238002DC031F02EC032F0000E366E000E356E25
:1012480025C037F026C038F067D034BE0BD037063B
:10125800D8A03806020E3126000E3222315033262D
:1012680032503422354A362A020E2F26000E3022FA
:101278002F5033263050342227A025D0375000086D
:101288002324166E3750372429242D6E2D28176EE7
:101298002BC018F02CC019F0215035248DEC0FF01C
:1012A800355000082324166E3550352429242D6E18
:1012B8002D28176E2BC018F02CC019F02150372498
:1012C8008DEC0FF000D027A227D037500008232438
:1012D800166E3750372429242D6E2D28176E2BC0F3
:1012E80018F02CC019F03550000821248DEC0FF0AF
:1012F800355000082324166E3550352429242D6EC8
:101308002D28176E2BC018F02CC019F03750000884
:1013180021248DEC0FF000D03750355C3650800A10
:101328002D6E3850800A2D58D8A08FD71200010E84
:101338004EEC14F0000E166E960E156E7BEC11F046
:10134800110E4EEC14F0010E166EF40E156E7BECB9
:1013580011F0B10E4EEC14F0010E46EC14F02C0E08
:1013680046EC14F02D0E46EC14F0B20E4EEC14F0D0
:10137800010E46EC14F02C0E46EC14F02D0E46EC43
:1013880014F0B30E4EEC14F0010E46EC14F02C0ED3
:1013980046EC14F02D0E46EC14F0010E46EC14F059
:1013A8002C0E46EC14F02D0E46EC14F0B40E4EEC58
:1013B80014F0070E46EC14F0C00E4EEC14F0A20E1A
:1013C80046EC14F0020E46EC14F0840E46EC14F0D1
:1013D800C10E4EEC14F0C50E46EC14F0C20E4EECE5
:1013E80014F00A0E46EC14F0000E46EC14F0C30E8E
:1013F8004EEC14F08A0E46EC14F02A0E46EC14F06B
:10140800C40E4EEC14F08A0E46EC14F0EE0E46ECC8
:1014180014F0C50E4EEC14F00E0E46EC14F0200E2F
:101428004EEC14F0360E4EEC14F0C80E46EC14F0E8
:101438003A0E4EEC14F0050E46EC14F012000001C2
:10144800CB6FCBC0D1F037C0D0F038C00FF039C067
:1014580010F0C8EC12F00FC0CCF010C0CDF0000EA8
:101468000001CF6F000ECE6F64D05D50D8B434D079
:101478003E50050D0001D1513F6E406AF3503F26A2
:10148800F450402240BE28D0405004E1810E3F5C19
:10149800D8A022D0000E0001D16F3E50070DF350A6
:1014A8000001D025030F0001D06FA00E0001D06508
:1014B80004D0A00E0001D06F00D00001CE51382416
:1014C800D96E0001CF513920DA6E200EDE18D8B45B
:1014D8002CD002D02AD000D0D0C02CF00001CE51A0
:1014E8003824D96E0001CF513920DA6EDF502D6EC5
:1014F8003AC02EF03BC02FF03CC030F03DC031F078
:101508003EC032F00001D15154EC08F03E50060DB7
:10151800F3500001D1250001D16F800E0001D16583
:1015280004D0800E0001D16F00D00001CE4BCF2B2C
:1015380000D00001CC510001CE5D0001CD51000169
:10154800CF59D8A092D7120019C01DF01E6A1F6A81
:1015580018341D3601E31E801D50206E2050D8A47B
:1015680002D00ED06CD01CC01DF01E6A1F6A1B343E
:101578001D3601E31E801D50256E2550D8A407D0C6
:10158800000E176E000E186E000E196E58D02550FA
:101598007B0F202619C025F01C50251A800E251611
:1015A800188E1B8EFF0E1A16FF0E1B16000E1C1629
:1015B800000E216E000E226E000E236E070E246EA2
:1015C80000D017A007D01A5021261B5022221C50E9
:1015D800232200D0D890193218321732D8901A36F0
:1015E8001B361C36242EEDD700D0090E246E00D0F1
:1015F80017A007D01A5021261B5022221C50232244
:1016080000D0D890193218321732D89023322232AB
:101618002132242EEDD700D021C00FF022C010F0C7
:1016280023C011F020C012F025C013F055EC0DF0C6
:101638000FC017F010C018F011C019F000D0120038
:10164800E00E4EEC14F0020E46EC14F01C0E46ECC4
:1016580014F0070E46EC14F0120E46EC14F0370E98
:1016680046EC14F0320E46EC14F0290E46EC14F059
:101678002D0E46EC14F0290E46EC14F0250E46EC1F
:1016880014F02B0E46EC14F0390E46EC14F0000E54
:1016980046EC14F0010E46EC14F0030E46EC14F080
:1016A800100E46EC14F0E10E4EEC14F0030E46EC6E
:1016B80014F01D0E46EC14F0070E46EC14F0060E5E
:1016C80046EC14F02E0E46EC14F02C0E46EC14F0FA
:1016D800290E46EC14F02D0E46EC14F02E0E46ECB6
:1016E80014F02E0E46EC14F0370E46EC14F03F0EB4
:1016F80046EC14F0000E46EC14F0000E46EC14F024
:10170800020E46EC14F0100E46EC14F0130E4EECDC
:1017180014F0000E166E0A0E156E7BEC11F0290EF1
:101728004EEC14F0000E166E640E156E7BEC11F084
:10173800120028C02AF02B6A2C6A27342A3601E3C3
:101748002B802A50346E3450D8A402D039D063D0BC
:10175800170E2A6E26C02BF027C02CF028C02DF0BB
:101768002A282E6E04D0D8902D322C322B322E2ED1
:10177800FAD72B502F6E278EFF0E2616FF0E271630
:10178800000E28162650306E2750316E2850326EC3
:10179800336A8E0E345E34AE10D03450800A8F0F08
:1017A800D8B003D00DD037D000D0D89033323232F1
:1017B80031323032343EF9D719D0170E346411D093
:1017C800000E266E000E276E000E286E000E296E83
:1017D80022D007D0D89030363136323633363406F8
:1017E80000D03450D8B402D0F5D700D02F50D8B498
:1017F80009D0331E321E311E306C000E31223222C7
:10180800332200D030C026F031C027F032C028F093
:1018180033C029F000D012001DC021F0226A236ACB
:101828001C34213601E322802150286E2850D8A488
:1018380002D00ED061D020C021F0226A236A1F3462
:10184800213601E322802150296E2950D8A407D0DF
:10185800000E1B6E000E1C6E000E1D6E4DD0000E8D
:10186800256E000E266E000E276E2950890F285E01
:101878001DC029F02050291A800E29161C8EFF0E33
:101888001B16FF0E1C16000E1D161F8EFF0E1E16B1
:10189800FF0E1F16000E2016180E246E00D0D890CA
:1018A8002536263627361E501B5C1F501C582050E4
:1018B8001D58D8A007D01E501B5E1F501C5A205020
:1018C8001D5A2580D8901B361C361D36242EE7D786
:1018D80000D025C00FF026C010F027C011F028C096
:1018E80012F029C013F055EC0DF00FC01BF010C01A
:1018F8001CF011C01DF000D01200216E800E216076
:1019080069D09F0E166401D065D0FF0E1B6EFF0EC6
:101918001C6E175021C01DF01E6A1D26000E1E22C7
:101928001B501D261C501E221EBE0AD01E5004E14C
:10193800800E1D5CD8A004D021500008800F176EBF
:10194800FF0E1B6EFF0E1C6E185016C01DF01E6A8F
:101958001D26000E1E221B501D261C501E221EBEB8
:101968000BD01E5004E1A00E1D5CD8A005D0165067
:101978000008A00F186E00D016C012F021501724CE
:101988001B6E1B04136E165018241C6E1C04146E58
:101998002150CDEC11F01A501F6E19C020F0828A28
:1019A800839418C016F01650D8B413D001D011D0B3
:1019B80017C021F02150D8B40AD001D008D01F5048
:1019C8002AEC14F020502AEC14F02106F3D716065E
:1019D800EAD783841200426E5BD041C00FF0106AD0
:1019E800000E126E0A0E116EB3EC0EF00F50300F8F
:1019F8000001A76F41C035F0366A000E386E0A0E36
:101A0800376ED1EC0FF03550300F0001A86F280E5B
:101A1800376EA70E386E000E396EFF0E3B6EE00E65
:101A28003A6E000E3D6E000E3C6E020E3E6E020EC9
:101A380023EC0AF035D041C00FF0106A000E126E88
:101A48000A0E116EB3EC0EF00F50300F0001A46FA8
:101A580041C035F0366A000E386E0A0E376ED1EC8A
:101A68000FF03550300F0001A56F640E376EA40ECD
:101A7800386E000E396E070E3B6E3A68000E3D6EEA
:101A8800000E3C6E020E3E6E020E23EC0AF008D0E9
:101A98004250000AD8B4A1D7020AD8B4CCD700D093
:101AA80012001250D8B405D00F5010101110D8A43D
:101AB8000ED0000E0F6E000E106E000E116E53D079
:101AC80006D0122AD890113210320F3200D0000EF0
:101AD8000F14146E000E1014156EFE0E1114166EEF
:101AE800145015101610D8B40ED0EBD70CD0122AFB
:101AF800010E0F26000E1022000E1122D89011326E
:101B080010320F3200D0000E0F14146E000E101495
:101B1800156EFF0E1114166E145015101610D8B449
:101B280008D0E5D706D01206D8900F3610361136F1
:101B380000D010BE04D0020E1260F5D700D012B04B
:101B480002D0109E00D0D8901232125011121350A9
:101B5800D8B402D0118E00D00FC00FF010C010F012
:101B680011C011F000D01200010E85EC12F0010E28
:101B780061EC12F0010E19EC12F0020E3DEC12F0BD
:101B88005204D8A405D0080E436E000E4EEC11F096
:101B9800070E3FEC13F0030E3DEC12F0030E3FEC82
:101BA80013F0010E3DEC12F082A010D0020E61EC91
:101BB80012F0080E3FEC13F0030E61EC12F0030E66
:101BC8003FEC13F0010E61EC12F000D0020E85EC30
:101BD80012F04A04D8A406D0070E436E020E4EEC4B
:101BE80011F000D0020E85EC12F0060E3FEC13F057
:101BF800030E85EC12F0030E3FEC13F0010E85EC9A
:101C080012F080AA10D0020E19EC12F0070E3FEC69
:101C180013F0030E19EC12F0030E3FEC13F0010E53
:101C280019EC12F000D01200000E526E000E4A6E2F
:101C3800010E85EC12F0010E61EC12F0010E19ECA8
:101C480012F0020E3DEC12F0060E3FEC13F0030EFC
:101C58003DEC12F0030E3FEC13F0010E3DEC12F0D8
:101C680082A010D0020E61EC12F0070E3FEC13F0C8
:101C7800030E61EC12F0030E3FEC13F0010E61EC61
:101C880012F000D0020E85EC12F0060E3FEC13F0B5
:101C9800030E85EC12F0030E3FEC13F0010E85ECF9
:101CA80012F080AA10D0020E19EC12F0080E3FECC8
:101CB80013F0030E19EC12F0030E3FEC13F0010EB3
:101CC80061EC12F000D01200700ED36E390E926ED5
:101CD800070E936E010E946E000E956E000E966EB2
:101CE80056EC14F020EC14F0000E836E0EEC00F0AD
:101CF800000E83EC10F02AC044F02BC045F02CC035
:101D080046F044C00FF045C010F046C011F0000E78
:101D1800126E200E136E400E146EFEEC0EF0D8B04C
:101D280002D0010E01D0000E506E00D05004D8A48D
:101D380005D0010E516EB8EC0DF005D0000E516EB5
:101D480018EC0EF000D04B04D8A4F0D7000E4B6E60
:101D5800010E4C6E1EEC11F0E9D70CEF00F0000EEE
:101D6800146E12AE07D0116C121ED8B0122A010ED2
:101D7800146E00D010AE07D00F6C101ED8B0102A09
:101D8800010E141A00D0000E166E000E156E1150BA
:101D98001210D8B421D0010E136E05D0D890113688
:101DA8001236132A00D012BE02D0F8D700D0D8902D
:101DB8001536163611500F5C12501058D8A006D0A0
:101DC80011500F5E1250105A158000D0D890123260
:101DD8001132132EECD700D01450D8B405D0156C9E
:101DE800161ED8B0162A00D015C00FF016C010F075
:101DF80000D0120011AE17D00FC015F010C016F0A9
:101E080011C017F0151E161E171E152A000E1622D1
:101E18001722000E15240F6E000E1620106E800E6D
:101E28001720116E00D014AE17D012C015F013C0D1
:101E380016F014C017F0151E161E171E152A000ED0
:101E480016221722000E1524126E000E1620136E8D
:101E5800800E1720146E00D0000E0F1A000E101AF4
:101E6800800E111A000E121A000E131A800E141A80
:101E780012500F5C1350105814501158D8B002D09B
:101E8800D89002D0D88000D01200206E800E20603A
:101E98003FD09F0E166401D03BD0FF0E1A6EFF0E86
:101EA8001B6E175020C01CF01D6A1C26000E1D2238
:101EB8001A501C261B501D221DBE0BD01D5004E1BC
:101EC800800E1C5CD8A005D020500008800F176E2B
:101ED80000D019501E6E18C01FF016C012F0205006
:101EE80017241A6E1A04136E16C014F02050CDEC85
:101EF80011F0828A839407D01E502AEC14F01F50E8
:101F08002AEC14F000D017061728D8A4F5D7838434
:101F18001200206E800E20603FD09F0E166401D004
:101F28003BD0FF0E1A6EFF0E1B6E175016C01CF02A
:101F38001D6A1C26000E1D221A501C261B501D222D
:101F48001DBE0BD01D5004E1A00E1C5CD8A005D00E
:101F580016500008A00F176E00D019501E6E18C03A
:101F68001FF016C012F020C013F0165017241A6E76
:101F78001A04146E2050CDEC11F0828A839407D095
:101F88001E502AEC14F01F502AEC14F000D017064B
:101F98001728D8A4F5D783841200000E3A6E36AEFF
:101FA80007D0356C361ED8B0362A010E3A6E00D0EE
:101FB80038AE05D0376C381ED8B0382A00D0375024
:101FC8003810D8B41DD0010E396E05D0D8903736E8
:101FD8003836392A00D038BE02D0F8D700D037506A
:101FE800355C38503658D8A005D03750355E385053
:101FF800365A00D0D89038323732392EF0D700D040
:102008003A50D8B405D0356C361ED8B0362A00D030
:1020180035C035F036C036F000D012000600EACFE1
:1020280004F0E1CF05F0E2CF06F0D9CF07F0DACF20
:1020380008F0F3CF09F0F4CF0AF0F6CF0BF0F7CFA2
:102048000CF0F8CF0DF0F5CF0EF0F2A203D061EC52
:1020580014F000D00EC0F5FF0DC0F8FF0CC0F7FF5C
:102068000BC0F6FF0AC0F4FF09C0F3FF08C0DAFF8F
:1020780007C0D9FF06C0E2FF05C0E1FF04C0EAFFC0
:1020880003C0E9FF02C0FBFF01C0FAFF1100116E97
:10209800000EAC6E000EAB6E11A002D0AC8800D062
:1020A80011A203D0AC8CAB8C00D011A402D0AC8EA2
:1020B80000D011A602D0AB8802D0AB8A00D011B8EC
:1020C800AC849E9811AA02D0AB8600D011AC02D085
:1020D8009D8A01D09D9A9E9A11AE02D09D8801D00A
:1020E8009D980FC0AFFF1050B06EAC8AAB8E949C19
:1020F800948EACB8ACBE02D0948C00D01200306E76
:102108003050040DF328C26EC9EC13F00FC031F043
:1021180010C032F031C00FF032C010F0000E126E55
:10212800050E116EB5EC13F00FC017F010C018F0C3
:10213800E7EC12F017C01BF018C01CF019C01DF016
:10214800000E1E6E800E1F6E440E206E10EC0CF0FA
:102158001BC02DF01CC02EF01DC02FF02DC02AF082
:102168002EC02BF02FC02CF000D0120023C016F088
:1021780025C017F029C018F02AC019F0215049ECE1
:102188000FF0235027242B6E2B04166E25C017F052
:1021980029C018F02AC019F0215049EC0FF023C0CB
:1021A80016F027C017F029C018F02AC019F02150DE
:1021B8008DEC0FF023C016F027C017F029C018F0D7
:1021C8002AC019F0215025242B6E2B048DEC0FF01A
:1021D800120000EEAAF0210EEE6AE806FDE100EE1C
:1021E80044F0190EEE6AE806FDE1160EF66E270EAB
:1021F800F76E000EF86E00EE80F010EE2AF009007F
:10220800F5CFEEFFE550E150FAE12A0EF66E280E02
:10221800F76E000EF86E00EE5DF010EE15F0090096
:10222800F5CFEEFFE550E150FAE1000EF86E00013F
:1022380068EF0EF02BD022D0010E85EC12F0010EC3
:1022480061EC12F0010E19EC12F0010E3DEC12F0E7
:10225800FBEC13F0000E85EC12F0000E61EC12F0AE
:10226800000E19EC12F0000E3DEC12F0FBEC13F02E
:102278000DD0000E4B6E000E4C6E08D04B50000A6D
:10228800D8B4DAD7010AD8B4F4D700D04C50D8A4BF
:10229800F5D712000001D76FFF0E43240001D86F55
:1022A8000001D96BFF0ED9230001D9BF16D001D088
:1022B80014D0D8C041F00001D751EFEC0CF0DCECA1
:1022C80013F00001D807D8A0D907EED706D0000E22
:1022D800526E0CD0000E4A6E09D00001D751000A88
:1022E800D8B4F5D7020AD8B4F5D700D0120015C073
:1022F8000FF016C010F0000E126EFA0E116EB5EC4B
:1023080013F00FC019F010C01AF019C017F01AC056
:1023180018F0171E181E174A182AFF0E1724196ED0
:10232800FF0E18201A6EB80EB16E19C0B2FF1A50FF
:10233800B36EA192B18000D0A1A2FED7B1901200D5
:102348003D5000083B24166ED8803D34176E3FC0C0
:1023580018F040C019F039508DEC0FF039C021F059
:102368003AC022F03BC023F03CC024F03DC025F029
:102378003EC026F0000E286E030E276E000E2A6E51
:10238800000E296E3FC02BF040C02CF0FFEC08F087
:102398001200156E2A0E4EEC14F0000E46EC14F0E6
:1023A8001550592446EC14F0000E46EC14F0135066
:1023B800592446EC14F02B0E4EEC14F0000E46ECAB
:1023C80014F012505C2446EC14F0000E46EC14F0A5
:1023D80014505C2446EC14F02C0E4EEC14F0120051
:1023E800296E29C02AF02B6A0ED021C016F023C00E
:1023F80017F024C018F025C019F02A508DEC0FF002
:102408002A4A2B2A00D0225029C026F0276A2626DD
:10241800000E272226502A5C2B50800A286E27504F
:10242800800A2858D8A0E1D712000001CB6F010E0E
:102438005B6ECBC041F05B50CBEC03F00AD08294CA
:1024480001D08284829814D0829401D082848288B8
:102458000FD00001CB51000AD8B4F1D7010AD8B483
:10246800F0D7030AD8B4F0D7010AD8B4EFD700D010
:1024780012000001CB6F000E5B6ECBC041F05B50C9
:10248800CBEC03F00AD0809201D08082809414D0E3
:10249800809201D0808280840FD00001CB51000A45
:1024A800D8B4F1D7010AD8B4F0D7030AD8B4F0D712
:1024B800010AD8B4EFD700D012000001CB6F030E89
:1024C8005B6ECBC041F05B50CBEC03F00AD0819E31
:1024D80001D0818E849014D0819E01D0818E848019
:1024E8000FD00001CB51000AD8B4F1D7010AD8B4F3
:1024F800F0D7030AD8B4F0D7010AD8B4EFD700D080
:1025080012000001CB6F020E5B6ECBC041F05B5036
:10251800CBEC03F00AD0819801D08188819A14D03D
:10252800819801D08188818A0FD00001CB51000A9F
:10253800D8B4F1D7010AD8B4F0D7030AD8B4F0D781
:10254800010AD8B4EFD700D012002A0E4EEC14F0CE
:10255800000E46EC14F0000E46EC14F0000E46ECAB
:1025680014F07F0E46EC14F02B0E4EEC14F0000E17
:1025780046EC14F0000E46EC14F0000E46EC14F095
:102588009F0E46EC14F012000FC013F010C014F0A8
:1025980003D0134A142A00D013C0D9FF14C0DAFF9D
:1025A800DF50D8A4F6D70FC011F010C012F0111EDA
:1025B800121E114A122A135011240F6E14501220A1
:1025C800106E00D01200000E1A6E18AE07D0176CED
:1025D800181ED8B0182A010E1A6E00D017C00FF0B6
:1025E80018C010F0116A8E0E126E1AC013F055EC56
:1025F8000DF00FC017F010C018F011C019F000D07E
:10260800120047C00FF048C010F0FA0E116EFF0E0E
:10261800126E5AEC13F0020E376E47C038F048C0FD
:1026280039F0FF0E3B6E3A68000E3D6E000E3C6EB0
:10263800010E3E6E780E23EC0AF0120047C00FF030
:1026480048C010F0FC0E116EFF0E126E5AEC13F01B
:10265800020E376E47C038F048C039F0FF0E3B6EA7
:102668003A68000E3D6E000E3C6E010E3E6E780E0E
:1026780023EC0AF012000001D76FD7C0D8F0000190
:10268800D8510001D8B40CD001D00AD0D8C041F03C
:102698005B508FEC07F0FBEC13F00001D807EFD785
:1026A800000E416E5B508FEC07F012000FC013F064
:1026B80010C014F005D0134A142A114A122A00D067
:1026C80011C0F6FF12C0F7FF13C0D9FF14C0DAFF1C
:1026D8000800F5CFDFFFDF50D8A4EDD71200196E40
:1026E800800E196013D09F0E166401D00FD016C04B
:1026F80012F01928136E1628146E1950CDEC11F02B
:10270800185046EC14F0175046EC14F012005350D1
:1027180032342F312F3031203030303030302030CB
:1027280030303000322E3556003030003030003036
:1027380030003030003030008384829A800EC76EBB
:10274800300EC66E9BEC09F0A9EC12F024EC0BF0ED
:10275800360E4EEC14F0C00E46EC14F0010E586E16
:1027680012000F501102F3CF13F0F4CF14F00F50F2
:102778001202F350142610501102F350142613C0FD
:102788000FF014C010F000D01200C28200D0C2B204
:10279800FED7C450126E116AC3501124136E000E76
:1027A8001220146E13C00FF014C010F000D01200E5
:1027B800848422EC13F03DEC14F008EC14F08494BB
:1027C80005EC13F05DEC14F008EC14F07CEC05F06B
:1027D8001200000E166E800E176EA00E186E22C024
:1027E80019F023C01AF0000E81EC0CF0120084845A
:1027F80022EC13F008EC14F0849405EC13F008ECC8
:1028080014F07CEC05F01200030ED56EDB0ED66ECC
:102818000B0ED76EF294D58E00D0F2A4FED7D59EBB
:102828001200013030002D440044003000300030E8
:102838000030003000300000000E106E190E0F6ED0
:102848003C0E4BEC10F0700ED36E1200106E9E967C
:10285800C9CF0FF010C0C9FF00D0C7A0FED7120023
:10286800839A000E166E640E156E7BEC11F0838A47
:102878001200F90ECB6E050ECA6E4A0EBB6E3C0EE8
:10288800BA6E1200116E8394828A11502AEC14F0E9
:1028980083841200116E8394829A11502AEC14F0EA
:1028A80083841200010EC26E0E0EC16EA90EC06E98
:1028B8001200000EBA6E82921200F292010E4D6E54
:0228C8001200FC
:10FDCE0000000000000000005F00000007000700B8
:10FDDE00147F147F14242A7F2A1223130864623698
:10FDEE00495620500008070300001C224100004124
:10FDFE00221C002A1C7F1C2A08083E08080080705E
:10FE0E003000080808080800006060002010080490
:10FE1E00023E5149453E00427F40007249494946E3
:10FE2E002141494D331814127F1027454545393C61
:10FE3E004A4949314121110907364949493646494E
:10FE4E0049291E0000140000004034000000081470
:10FE5E0022411414141414004122140802015909E9
:10FE6E00063E415D594E7C1211127C7F494949363E
:10FE7E003E414141227F4141413E7F494949417FB7
:10FE8E00090909013E414151737F0808087F00416D
:10FE9E007F41002040413F017F081422417F4040B6
:10FEAE0040407F021C027F7F0408107F3E4141418B
:10FEBE003E7F090909063E4151215E7F09192946F7
:10FECE00264949493203017F01033F4040403F1F0D
:10FEDE002040201F3F4038403F6314081463030442
:10FEEE007804036159494D43007F414141020408A2
:10FEFE001020004141417F04020102044040404075
:10FF0E0040000307080020545478407F28444438AA
:10FF1E003844444428384444287F385454541800F4
:10FF2E00087E090218A4A49C787F08040478004473
:10FF3E007D40002040403D007F1028440000417F5E
:10FF4E0040007C047804787C0804047838444444E7
:10FF5E0038FC1824241818242418FC7C08040408DF
:10FF6E00485454542404043F44243C4040207C1CF8
:10FF7E002040201C3C4030403C44281028444C90EB
:10FF8E0090907C4464544C44000836410000007745
:10FF9E000000004136080002010204024E535020B8
:10FFAE004E534C54204557502045574C5420522008
:10FFBE0053004E4F5254482F534F5554480045410D
:10FFCE0053542F57455354004E2F53204C54004535
:10FFDE002F57204C54004D6F64653A004C53563ADF
:10FFEE0000504E5300504557002D440020002A006B
:02FFFE00000001
:020000040020DA
:08000000FFFFFFFFFFFFFFFF00
:020000040030CA
:0E000000FF08191EFF8381FF0FC00FE00F40A5
:00000001FF
