:0400000087EF0EF088
:101000000001000A006400E803102754656D706554
:101010007261747572653A202564460D0A566F6CCC
:10102000746167653A202564206D560D0A0050688A
:101030006F746F205265736973746F7220566F6C92
:10104000746167653A202564206D560D0A0D0A000B
:101050000000EEEC0EF0FFEC0EF0E3EC0EF000D032
:10106000000E06EC0FF09CEC0EF001C03DF002C04B
:101070003EF03DC009F03EC00AF069EC0EF009C038
:101080000DF00AC00EF00BC00FF0000E106E800EB7
:10109000116E400E126EA6EC0AF00DC041F00EC0AB
:1010A00042F00FC043F0600E1F6E810E206E440EA2
:1010B000216E41C001F042C002F043C003F0AFEC2A
:1010C0000EF001C01CF002C01DF003C01EF025ECA4
:1010D00009F01CC028F01DC029F01EC02AF0000E27
:1010E0002B6EB00E2C6E400E2D6E95EC0BF028C0C2
:1010F00037F029C038F02AC039F0660E106EE60EBF
:10110000116E3F0E126E37C00DF038C00EF039C0B0
:101110000FF0A6EC0AF00DC01CF00EC01DF00FC0C1
:101120001EF0000E1F6E000E206E420E216E25EC8A
:1011300009F01CC03AF01DC03BF01EC03CF03AC0A4
:1011400001F03BC002F03CC003F022EC0BF001C008
:1011500046F002C047F046C001F047C002F0000E62
:10116000046E0A0E036EBBEC0CF001503F6E46C0DD
:1011700001F047C002F0000E046E0A0E036E9CECF4
:101180000DF00150406E0B0E106E100E116E46C029
:1011900012F047C013F041C001F042C002F043C05A
:1011A00003F022EC0BF001C014F002C015F007ECC4
:1011B0000AF04050010D480EF324D96E000EF420C1
:1011C000DA6EDF50816E3F50010D480EF324D96E68
:1011D000000EF420DA6EDF50836E46C001F047C087
:1011E00002F0D3EC0EF046C001F047C002F051EC23
:1011F0000DF0010E06EC0FF09CEC0EF0D8900136CD
:101200000236D8900136023601C044F002C045F0E3
:1012100044C009F045C00AF069EC0EF009C00DF0B9
:101220000AC00EF00BC00FF069EC0CF02E0E106E21
:10123000100E116E44C012F045C013F007EC0AF016
:10124000C1EC0EF00DD700EF00F01EC022F0236AB3
:10125000246A1D34223601E323802250276E21C0E8
:1012600022F0236A246A2034223601E323802250AC
:10127000266E2750D8B40BD02650275CD8B00ED09D
:10128000275000082624226E180E226407D01FC0A3
:101290001CF020C01DF021C01EF0B8D02650D8B4DC
:1012A0000BD02750265CD8B00ED02650000827243B
:1012B000226E180E226407D01CC01CF01DC01DF049
:1012C0001EC01EF0A3D0060E256E1EAE02D0258EC7
:1012D00000D021BE258C1D8EFF0E1C16FF0E1D1684
:1012E000000E1E16208EFF0E1F16FF0E2016000E7B
:1012F00021162650275CD8B01ED0D8901F36203635
:101300002136260627502618D8B40FD0250625C02A
:1013100022F0070E2216D8B408D0EFD706D0D89006
:101320001E321D321C32272A00D026502718D8B46E
:1013300024D0F5D722D02750265CD8B01ED0D89024
:101340001C361D361E36270627502618D8B40FD057
:10135000250625C022F0070E2216D8B408D0EFD7F4
:1013600006D0D890213220321F32262A00D02650B3
:101370002718D8B402D0F5D700D025AE0CD0FF0E78
:101380001C1AFF0E1D1AFF0E1E1A010E1C26000E3F
:101390001D22000E1E2225AC0DD0FF0E1F1AFF0EBF
:1013A000201AFF0E211A010E1F26000E2022000E09
:1013B000212200D0000E256E1C501F261D50202219
:1013C0001E50212221AE0FD0FF0E1F1AFF0E201A31
:1013D000FF0E211A010E1F26000E2022000E2122D0
:1013E000010E256E00D01FC001F020C002F021C008
:1013F00003F027C004F025C005F006EC0CF001C096
:101400001CF002C01DF003C01EF000D01200120E2E
:10141000176E000E186E8BD0250E1D18D8B404D090
:101420001D50F8EC0EF083D0000E196E04D08DD054
:1014300015D07DD013D010C0F6FF11C0F7FF104AB1
:10144000112A0800F5CF1DF01D50000AD8B47DD038
:10145000640AD8B403D00D0AD8A469D017C0D9FF44
:1014600018C0DAFFDECF1BF0DDCF1CF0020E17260E
:10147000000E18221CAE07D0030E19121B6C1C1E86
:10148000D8B01C2A00D0010E1D6E050E1D18D8B450
:1014900016D001D014D01D50020D010EF324F66EAB
:1014A000100EF420F76E0900F5501B5C0900F55092
:1014B0001C58D8A004D001D002D01D2AE6D719C0EC
:1014C00016F0030E1616D8B404D02D0EF8EC0EF05C
:1014D00000D01DC01AF025D01A50020D010EF324C1
:1014E000F66E100EF420F76E0900F5CF03F00A0037
:1014F000F5CF04F01BC001F01CC002F015EC0EF09B
:1015000001C008F002C009F0000E0B6E0A0E0A6E50
:1015100043EC0EF00850300F1D6E1D50F8EC0EF02D
:1015200000D01A061A28D8B402D0D6D700D010C0DE
:10153000F6FF11C0F7FF104A112A0800F5CF1DF081
:101540001D50D8B402D068D700D012000FC013F0DD
:10155000146A156A0E34133601E314801350166EA4
:101560001650D8A402D00ED06CD012C013F0146A5A
:10157000156A1134133601E3148013501B6E1B508F
:10158000D8A407D0000E0D6E000E0E6E000E0F6E6A
:1015900058D01B507B0F16260FC01BF012501B1A81
:1015A000800E1B160E8E118EFF0E1016FF0E1116DA
:1015B000000E1216000E176E000E186E000E196E39
:1015C000070E1A6E00D00DA007D01050172611502C
:1015D00018221250192200D0D8900F320E320D323C
:1015E000D8901036113612361A2EEDD700D0090ECB
:1015F0001A6E00D00DA007D01050172611501822D7
:101600001250192200D0D8900F320E320D32D890DD
:101610001932183217321A2EEDD700D017C001F048
:1016200018C002F019C003F016C004F01BC005F08A
:1016300006EC0CF001C00DF002C00EF003C00FF07C
:1016400000D0120003C005F0066A076A02340536AE
:1016500001E3068005500F6E0F50D8A402D039D098
:1016600063D0170E056E01C006F002C007F003C07C
:1016700008F00528096E04D0D890083207320632E7
:10168000092EFAD706500A6E028EFF0E0116FF0EC3
:101690000216000E031601500B6E02500C6E035022
:1016A0000D6E0E6A8E0E0F5E0FAE10D00F50800AB8
:1016B0008F0FD8B003D00DD037D000D0D8900E32D5
:1016C0000D320C320B320F3EF9D719D0170E0F64C2
:1016D00011D0000E016E000E026E000E036E000EA1
:1016E000046E22D007D0D8900B360C360D360E364D
:1016F0000F0600D00F50D8B402D0F5D700D00A5052
:10170000D8B409D00E1E0D1E0C1E0B6C000E0C2240
:101710000D220E2200D00BC001F00CC002F00DC053
:1017200003F00EC004F000D012002AC02EF02F6A81
:10173000306A29342E3601E32F802E50356E355015
:10174000D8A402D00ED061D02DC02EF02F6A306AFE
:101750002C342E3601E32F802E50366E3650D8A40E
:1017600007D0000E286E000E296E000E2A6E4DD096
:10177000000E326E000E336E000E346E3650890F3E
:10178000355E2AC036F02D50361A800E3616298E58
:10179000FF0E2816FF0E2916000E2A162C8EFF0E9D
:1017A0002B16FF0E2C16000E2D16180E316E00D0C3
:1017B000D8903236333634362B50285C2C5029588A
:1017C0002D502A58D8A007D02B50285E2C50295ACB
:1017D0002D502A5A3280D890283629362A36312E72
:1017E000E7D700D032C001F033C002F034C003F0BC
:1017F00035C004F036C005F006EC0CF001C028F04E
:1018000002C029F003C02AF000D012000450D8B45E
:1018100005D0015002100310D8A40ED0000E016EA6
:10182000000E026E000E036E53D006D0042AD8902C
:1018300003320232013200D0000E0114066E000E97
:101840000214076EFE0E0314086E065007100810EF
:10185000D8B40ED0EBD70CD0042A010E0126000E0E
:101860000222000E0322D89003320232013200D04D
:10187000000E0114066E000E0214076EFF0E031414
:10188000086E065007100810D8B408D0E5D706D067
:101890000406D89001360236033600D002BE04D0CA
:1018A000020E0460F5D700D004B002D0029E00D032
:1018B000D8900432045003120550D8B402D0038EDD
:1018C00000D001C001F002C002F003C003F000D05C
:1018D00012000DC001F00EC002F00FC003F0800E28
:1018E000046E220E056E450E066E06EC0DF0D8B0A5
:1018F00002D0848011D00DC001F00EC002F00FC0E4
:1019000003F0400E046E350E056E450E066E06ECB5
:101910000DF0D8B004D08490848284842BD00DC084
:1019200001F00EC002F00FC003F0000E046E480E6E
:10193000056E450E066E06EC0DF0D8B003D084801F
:10194000848212D00DC001F00EC002F00FC003F06F
:10195000000E046E610E056E450E066E06EC0DF06F
:10196000D8B004D0848003D0849404D0849084922E
:10197000FBD700D01200000E066E04AE07D0036C39
:10198000041ED8B0042A010E066E00D002AE07D0A5
:10199000016C021ED8B0022A010E061A00D0000EF9
:1019A000086E000E076E03500410D8B421D0010E4B
:1019B000056E05D0D89003360436052A00D004BE43
:1019C00002D0F8D700D0D890073608360350015C13
:1019D00004500258D8A006D00350015E0450025AA9
:1019E000078000D0D89004320332052EECD700D007
:1019F0000650D8B405D0076C081ED8B0082A00D00D
:101A000007C001F008C002F000D0120003AE17D0EA
:101A100001C007F002C008F003C009F0071E081E4D
:101A2000091E072A000E08220922000E0724016E53
:101A3000000E0820026E800E0920036E00D006AE54
:101A400017D004C007F005C008F006C009F0071E53
:101A5000081E091E072A000E08220922000E07246C
:101A6000046E000E0820056E800E0920066E00D060
:101A7000000E011A000E021A800E031A000E041A3C
:101A8000000E051A800E061A0450015C055002581B
:101A900006500358D8B002D0D89002D0D88000D0D9
:101AA000120002BE06D0025007E1230E015CD8B03E
:101AB00003D0180E82163FD002BE06D0025006E1B7
:101AC0002D0E015CD8B002D0828035D002BE06D087
:101AD000025006E1370E015CD8B002D082822BD0D2
:101AE00002BE06D0025006E1410E015CD8B002D021
:101AF000030E1FD002BE06D0025006E14B0E015C61
:101B0000D8B002D0828417D002BE06D0025006E1BF
:101B10004E0E015CD8B002D0050E0BD002BE06D02E
:101B2000025006E1520E015CD8B002D0060E01D080
:101B3000070E821200D01200000E066E02AE07D011
:101B4000016C021ED8B0022A010E066E00D004AE4F
:101B500005D0036C041ED8B0042A00D00350041032
:101B6000D8B41DD0010E056E05D0D89003360436CA
:101B7000052A00D004BE02D0F8D700D00350015C83
:101B800004500258D8A005D00350015E0450025AF8
:101B900000D0D89004320332052EF0D700D0065082
:101BA000D8B405D0016C021ED8B0022A00D001C002
:101BB00001F002C002F000D01200036E000EAC6E05
:101BC000000EAB6E03A002D0AC8800D003A203D0FD
:101BD000AC8CAB8C00D003A402D0AC8E00D003A69A
:101BE00002D0AB8802D0AB8A00D003B8AC849E98F8
:101BF00003AA02D0AB8600D003AC02D09D8A01D0EC
:101C00009D9A9E9A03AE02D09D8801D09D9801C0F6
:101C1000AFFF0250B06EAC8AAB8E949C948EACB881
:101C2000ACBE02D0948C00D01200000E066E000EE6
:101C3000056E03500410D8B421D0010E076E05D0F4
:101C4000D89003360436072A00D004BE02D0F8D755
:101C500000D0D890053606360350015C0450025877
:101C6000D8A006D00350015E0450025A058000D06F
:101C7000D89004320332072EECD700D005C001F013
:101C800006C002F012000A500B10D8B41DD0010E8D
:101C90000C6E05D0D8900A360B360C2A00D00BBE3D
:101CA00002D0F8D700D00A50085C0B500958D8A0D1
:101CB00005D00A50085E0B50095A00D0D8900B325C
:101CC0000A320C2EF0D700D008C008F009C009F085
:101CD0001200000E0C6E0AAE07D0096C0A1ED8B0B6
:101CE0000A2A010E0C6E00D009C001F00AC002F0F1
:101CF000036A8E0E046E0CC005F006EC0CF001C0F9
:101D000009F002C00AF003C00BF000D01200180E58
:101D1000F66E1E0EF76E000EF86E00EE48F010EE36
:101D20000AF00900F5CFEEFFE550E150FAE1000EB0
:101D3000F86E000129EF08F0C28200D0C2B2FED7CF
:101D4000C450046E036AC3500324056E000E0420C1
:101D5000066E05C001F006C002F000D0120001506E
:101D600002100310D8B406D0000E011A000E021A99
:101D7000800E031A01C001F002C002F003C003F09C
:101D80001200000E026E000E016E02BE08D0780E28
:101D9000015C690E0258D8B005D001D003D0014AC9
:101DA000022AF3D7120002BE08D0025004E1070E47
:101DB000015CD8A002D0380E03D00138E842F80BFD
:101DC000826E00D012000F0E926E000E936E000E07
:101DD000946E000E956E000E966E1200000E026E4E
:101DE000190E016E3C0EDDEC0DF0600ED36E12008C
:101DF000016E00D0ACA2FED701C0ADFF1200050EEF
:101E0000C26E1B0EC16EA90EC06E1200016E015093
:101E1000040DF328C26E1200014F12064C24200F4D
:021E2000000CB4
:020000040020DA
:08000000FFFFFFFFFFFFFFFF00
:020000040030CA
:0E000000FF08191EFF8381FF0FC00FE00F40A5
:00000001FF
