:040000000CEF09F008
:1010000000010000000A00000064000000E8030086
:101010000010270000A086010040420F0080969833
:101020000000E1F50500CA9A3B00803FCDCC3DD7DA
:10103000233C12833AB7D138C62737388635C0D615
:1010400033CC2B32708930E7DB2EE53C1E42A20DFB
:1010500000803F00204100C842007A44401C4650B6
:10106000C34724744997184BBCBE4C6B6E4E031596
:101070005079AD60F34971FF4F12064C24200F00E8
:10108000040D0A566F6C746167653A20252E32662E
:10109000206D560D0A00537769746368205374619C
:1010A0007475733A0D0A0020204E534C545F535709
:1010B000203A2025730D0A00202045574C545F53D9
:1010C00057203A2025730D0A0020204E53504544E6
:1010D0005F53573A2025730D0A002020455750458D
:1010E000445F53573A2025730D0A00286E756C6CC7
:1010F00029004F4646004F4E0000036E000EAC6EB6
:10110000000EAB6E03A002D0AC8800D003A203D0C7
:10111000AC8CAB8C00D003A402D0AC8E00D003A664
:1011200002D0AB8802D0AB8A00D003B8AC849E98C2
:1011300003AA02D0AB8600D003AC02D09D8A01D0B6
:101140009D9A9E9A03AE02D09D8801D09D9801C0C1
:10115000AFFF0250B06EAC8AAB8E949C948EACB84C
:10116000ACBE02D0948C00D01200F3EC08F0CDECB1
:1011700008F005EC09F000D0480EE8EC08F0690E24
:10118000E8EC08F00D0EE8EC08F00A0EE8EC08F0C8
:10119000FEEC08F0F1D700EF00F0700ED36E949CD7
:1011A000948E000E026E190E016E3C0E7DEC08F05E
:1011B000AC8AAB8E1200040ED56EAE0ED66E850EC6
:1011C000D76EF294D58E00D0F2A4FED7D59E120031
:1011D000016EACAC05D0AC9004A202D0AC8000D0C3
:1011E00001C0ADFF1200E10E926E000E936E000E74
:1011F000946E000E956E000E966E1200838EDBECE0
:1012000008F0839EDBEC08F01200010EC26E0E0E99
:10121000C16EA90EC06E1200046A0001B5EF08F09D
:020000040020DA
:08000000FFFFFFFFFFFFFFFF00
:020000040030CA
:0E000000FF08191EFF8381FF0FC00FE00F40A5
:00000001FF
