:04000000A1EF17F065
:1010000000010000000A00000064000000E8030086
:101010000010270000A086010040420F0080969833
:101020000000E1F50500CA9A3B00803FCDCC3DD7DA
:10103000233C12833AB7D138C62737388635C0D615
:1010400033CC2B32708930E7DB2EE53C1E42A20DFB
:1010500000803F00204100C842007A44401C4650B6
:10106000C34724744997184BBCBE4C6B6E4E031596
:101070005079AD60F34971FF4F12064C24200F00E8
:10108000040D0A566F6C746167653A20252E32662E
:10109000206D560D0A00537769746368205374619C
:1010A0007475733A0D0A0020204E534C545F535709
:1010B000203A2025730D0A00202045574C545F53D9
:1010C00057203A2025730D0A0020204E53504544E6
:1010D0005F53573A2025730D0A002020455750458D
:1010E000445F53573A2025730D0A00286E756C6CC7
:1010F00029004F4646004F4E0000420E4E6E000E35
:101100004F6ED0D3250E6518D8B404D06550A8EC26
:1011100017F0C8D3000E556E000E546E40C0F6FF97
:1011200041C0F7FFF86A0800F5502E0AD8A432D063
:10113000558C404A412A000E646E000E636E1DD02D
:1011400063C00FF064C010F0000E126E0A0E116E34
:10115000EFEC16F040C0F6FF41C0F7FFF86A080058
:10116000F5500F26000E1022D00E0F24636EFF0ED6
:101170001020646E404A412A00D040C0F6FF41C0B2
:10118000F7FFF86A0800F55028EC17F0D8A05ED0F9
:10119000D7D75CD0000E646E000E636E558856D0B3
:1011A00090D3558468D04EC0D9FF4FC0DAFFDECF50
:1011B00052F0DDCF53F0020E4E26000E4F22525059
:1011C0005310D8A405D0EB0E526E100E536E00D003
:1011D000000E516E000E506E03D0504A512A00D0BE
:1011E00050505224456E51505320466E45C0F6FF74
:1011F00046C0F7FFF86A0800F5500009D8A4EDD7FB
:1012000063506410D8B417D05050635C5150645888
:10121000D8B011D063C050F064C051F00CD052C0AF
:10122000F6FF53C0F7FFF86A0800F550A8EC17F076
:10123000524A532A00D05006D8A051065028EFE158
:101240005128D8B42FD3EBD72DD315D040C0F6FFFB
:1012500041C0F7FF404A412AF86A0800F5CF65F01F
:101260006550000AD8B42DD3660AD8B49AD7150AA7
:10127000D8B499D717D3070E5514D8B4D9D255A8D6
:1012800005D0000E646E060E636E00D04EC0D9FF0E
:101290004FC0DAFFDECF60F0DECF61F0DDCF62F06D
:1012A000030E4E26000E4F2262AE11D060C001F038
:1012B00061C002F062C003F016EC17F001C060F0EC
:1012C00002C061F003C062F0030E541200D0000EA1
:1012D0005B6E000E5A6E605061106210D8B485D0FB
:1012E000820E456EFF0E466E60C047F061C048F04A
:1012F00062C049F063C04AF0100E05D0D8904A325F
:10130000493248324732E82EF9D7475045245A6EC1
:10131000000E46205B6E5A06D8A05B065AC00FF03E
:101320005BC010F0000E126E030E116EEFEC16F0A3
:101330000FC05AF010C05BF05AC007F05BC008F055
:10134000000E0A6E0A0E096E5DEC14F007C05AF02A
:1013500008C05BF05BAE04D05A06D8A05B0600D094
:101360005A50000862EC0CF024C05CF025C05DF01F
:1013700026C05EF05CC015F05DC016F05EC017F0D0
:1013800060C018F061C019F062C01AF096EC11F05C
:1013900015C05CF016C05DF017C05EF05CC001F0D7
:1013A0005DC002F05EC003F0000E046E800E056E9C
:1013B0003F0E066EA8EC14F0D8B004D05A06D8A0A0
:1013C0005B0613D05CC001F05DC002F05EC003F0AC
:1013D000000E046E200E056E410E066EA8EC14F091
:1013E000D8A003D05A4A5B2A00D064BE06D064500D
:1013F0001CE10D0E635CD8B018D060C02EF061C047
:101400002FF062C030F0635073EC0EF024C031F066
:1014100025C032F026C033F0A7EC0FF02EC060F0EC
:101420002FC061F030C062F000D05BBE06D05B50D0
:1014300020E10A0E5A5CD8B01CD0605061106210D6
:10144000D8B46DD060C02BF061C02CF062C02DF01C
:1014500012EC12F02B502C102D102E10D8B45BBEB5
:101460005ED05B5006E1020E5A5CD8B002D057D075
:1014700000D05CC001F05DC002F05EC003F0700EF1
:10148000046E890E056E400E066EA8EC14F0D8B0FE
:1014900002D0F70E01D0F80E5A26FF0E5B2200D0C4
:1014A0005A5062EC0CF024C05CF025C05DF026C000
:1014B0005EF017D060C001F061C002F062C003F0BE
:1014C0005CC004F05DC005F05EC006F011EC11F0E8
:1014D00001C056F002C057F003C058F004C059F0E4
:1014E00017D060C001F061C002F062C003F05CC0C0
:1014F00004F05DC005F05EC006F089EC10F001C09C
:1015000056F002C057F003C058F004C059F000D0A4
:10151000000E606E000E616E000E626E33D060C011
:101520002BF061C02CF062C02DF012EC12F02BC039
:1015300056F02CC057F02DC058F02EC059F060C0A6
:101540003AF061C03BF062C03CF056C009F057C0B1
:101550000AF058C00BF059C00CF031EC16F009C07D
:101560003DF00AC03EF00BC03FF061EC16F03AC00F
:1015700060F03BC061F03CC062F0000E5B6E000E9C
:101580005A6E00D0010E656E0A0E6518D8B41FD0D1
:1015900001D01DD06550040D010EF324F66E100E1F
:1015A000F420F76EF86A000EF8220900F550565C38
:1015B0000900F55057580900F55058580900F550E2
:1015C0005958D8A004D001D002D0652ADDD7030E27
:1015D0005414456E000E5514466E45504610D8B44E
:1015E0004CD02D0EA8EC17F048D056C001F057C0D3
:1015F00002F058C003F059C004F06550040D010E0C
:10160000F324F66E100EF420F76EF86A000EF8223E
:101610000900F5CF05F00900F5CF06F00900F5CF78
:1016200007F00A00F5CF08F03AEC15F001C05CF0C5
:1016300002C05DF003C05EF004C05FF05CC001F06A
:101640005DC002F05EC003F05FC004F00A0E056EDC
:10165000000E066E000E076E000E086EC1EC15F04F
:1016600001C05CF002C05DF003C05EF004C05FF03A
:101670005C50300FA8EC17F000D065066528D8B490
:1016800009D0B3D707D0300EA8EC17F05A06D8A06F
:101690005B0600D05BBE05D05B50F5E15A04D8B0C4
:1016A000F2D764BE09D0645004E1090E635CD8A08F
:1016B00003D0080E656E03D063C065F000D065509E
:1016C000635E000E65BEFF0E645A6550D8B404D048
:1016D0002E0EA8EC17F000D0655062EC0CF024C080
:1016E0004BF025C04CF026C04DF060C018F061C032
:1016F00019F062C01AF04BC015F04CC016F04DC086
:1017000017F096EC11F015C02BF016C02CF017C096
:101710002DF012EC12F02BC056F02CC057F02DC05B
:1017200058F02EC059F071D056C001F057C002F0E9
:1017300058C003F059C004F06550040D010EF324A5
:10174000F66E100EF420F76EF86A000EF82209000B
:10175000F5CF05F00900F5CF06F00900F5CF07F049
:101760000A00F5CF08F03AEC15F001C05CF002C0B9
:101770005DF003C05EF004C05FF05CC001F05DC0CE
:1017800002F05EC003F05FC004F00A0E056E000EAA
:10179000066E000E076E000E086EC1EC15F001C05B
:1017A0005CF002C05DF003C05EF004C05FF05C500E
:1017B000300FA8EC17F056C001F057C002F058C027
:1017C00003F059C004F06550040D010EF324F66EC9
:1017D000100EF420F76EF86A000EF8220900F5CF1B
:1017E00005F00900F5CF06F00900F5CF07F00A0073
:1017F000F5CF08F0C1EC15F001C056F002C057F06B
:1018000003C058F004C059F000D065066528D8B46C
:1018100009D08AD707D0300EA8EC17F06306D8A0FD
:10182000640600D063506410D8B43CD0F4D73AD0EA
:1018300063506410D8A409D056505710581059104E
:10184000D8A403D0634A642A00D0800E65BE7F0E00
:10185000456E6350655C6450800A4558D8B003D02B
:1018600063C065F011D06450800A456E6550635CBA
:10187000800E65BE7F0E4558D8B006D06550636EA9
:10188000646A63BE640600D0030E5414456E000EF5
:101890005514466E45504610D8B404D02D0EA8EC11
:1018A00017F000D040C0F6FF41C0F7FF404A412A80
:1018B000F86A0800F5CF65F06550D8B402D022D49C
:1018C00000D012002A6E2AAEFED02A6C2A50800A5E
:1018D000120FD8A096D0000E126E030E116E000EDD
:1018E0000A6E0A0E096E000E046E640E036E2A5014
:1018F000016E026A01BE020680EC15F001C007F01D
:1019000002C008F05DEC14F0090E07240F6E000E03
:101910000820106EEFEC16F0290E0F24F66E100E54
:101920001020F76EF86A000EF8220900F5CF18F0C3
:101930000900F5CF19F00A00F5CF1AF0000E0A6E73
:10194000640E096E2A50076E086A07BE08065DEC31
:1019500014F0120E07240F6E000E0820106E000EF9
:10196000126E030E116EEFEC16F0290E0F24F66EB8
:10197000100E1020F76EF86A000EF8220900F5CF5D
:1019800015F00900F5CF16F00A00F5CF17F096EC28
:1019900011F015C027F016C028F017C029F027C095
:1019A00015F028C016F029C017F0000E126E030EB5
:1019B000116E000E046E0A0E036E2A50016E026A4A
:1019C00001BE020680EC15F001C00FF002C010F05D
:1019D000EFEC16F0290E0F24F66E100E1020F76EA5
:1019E000F86A000EF8220900F5CF18F00900F5CFCB
:1019F00019F00A00F5CF1AF096EC11F056D172D119
:101A00005AD02A50800A750FD8A055D0000E0A6E01
:101A10000A0E096E2A50076E086A07BE08065DECBA
:101A200014F0090E07240F6E000E0820106E000E31
:101A3000126E030E116EEFEC16F0290E0F24F66EE7
:101A4000100E1020F76EF86A000EF8220900F5CF8C
:101A500015F00900F5CF16F00A00F5CF17F0000ECB
:101A6000126E030E116E000E046E0A0E036E2A50E3
:101A7000016E026A01BE020680EC15F001C00FF093
:101A800002C010F0EFEC16F0290E0F24F66E100EC7
:101A90001020F76EF86A000EF8220900F5CF18F052
:101AA0000900F5CF19F00A00F5CF1AF096EC11F005
:101AB000FCD018D100D02A50030D290EF324F66E65
:101AC000100E01D10FD12A50800A120FD8A096D043
:101AD000000E126E030E116E000E0A6E0A0E096ED3
:101AE000000E046E640E036E2A50016E026A01BE7F
:101AF000020680EC15F001C007F002C008F05DECB2
:101B000014F0090E07240F6E000E0820106EEFEC83
:101B100016F0500E0F24F66E100E1020F76EF86AB5
:101B2000000EF8220900F5CF18F00900F5CF19F0E2
:101B30000A00F5CF1AF0000E0A6E640E096E2A50E4
:101B4000076E086A07BE08065DEC14F0120E072443
:101B50000F6E000E0820106E000E126E030E116E36
:101B6000EFEC16F0500E0F24F66E100E1020F76EEC
:101B7000F86A000EF8220900F5CF15F00900F5CF3C
:101B800016F00A00F5CF17F096EC11F015C027F00B
:101B900016C028F017C029F027C015F028C016F08D
:101BA00029C017F0000E126E030E116E000E046EA7
:101BB0000A0E036E2A50016E026A01BE020680EC14
:101BC00015F001C00FF002C010F0EFEC16F0500E4F
:101BD0000F24F66E100E1020F76EF86A000EF82231
:101BE0000900F5CF18F00900F5CF19F00A00F5CF7C
:101BF0001AF096EC11F059D075D05FD02A50800AB7
:101C0000750FD8A05AD0000E0A6E0A0E096E2A501F
:101C1000076E086A07BE08065DEC14F0090E07247B
:101C20000F6E000E0820106E000E126E030E116E65
:101C3000EFEC16F0500E0F24F66E100E1020F76E1B
:101C4000F86A000EF8220900F5CF15F00900F5CF6B
:101C500016F00A00F5CF17F0000E126E030E116E8B
:101C6000000E046E0A0E036E2A50016E026A01BE57
:101C7000020680EC15F001C00FF002C010F0EFEC8E
:101C800016F0500E0F24F66E100E1020F76EF86A44
:101C9000000EF8220900F5CF18F00900F5CF19F071
:101CA0000A00F5CF1AF096EC11F015C024F016C01A
:101CB00025F017C026F016D000D02A50030D500E84
:101CC000F324F66E100EF420F76EF86A000EF82278
:101CD0000900F5CF24F00900F5CF25F00A00F5CF73
:101CE00026F000D012002D6E6D0E2D64A4D0000ED3
:101CF000126E030E116E000E0A6E0A0E096E000EB1
:101D0000046E640E036E2DC001F0026A80EC15F0C3
:101D100001C007F002C008F05DEC14F0090E0724C2
:101D20000F6E000E0820106EEFEC16F0290E0F2437
:101D3000F66E100E1020F76EF86A000EF8220900F9
:101D4000F5CF18F00900F5CF19F00A00F5CF1AF019
:101D5000000E0A6E640E096E2DC007F0086A5DEC75
:101D600014F0120E07240F6E000E0820106E000EE5
:101D7000126E030E116EEFEC16F0290E0F24F66EA4
:101D8000100E1020F76EF86A000EF8220900F5CF49
:101D900015F00900F5CF16F00A00F5CF17F096EC14
:101DA00011F015C02AF016C02BF017C02CF0000E51
:101DB000126E030E116E000E046E0A0E036E2DC01D
:101DC00001F0026A80EC15F001C00FF002C010F0C3
:101DD000EFEC16F0290E0F24F66E100E1020F76EA1
:101DE000F86A000EF8220900F5CF18F00900F5CFC7
:101DF00019F00A00F5CF1AF02AC015F02BC016F022
:101E00002CC017F096EC11F015C027F016C028F082
:101E100017C029F027C015F028C016F029C017F008
:101E2000000E186E000E196E3F0E1A6E96EC11F031
:101E300086D08CD068D00A0E2D6465D0000E126E4C
:101E4000030E116E000E046E0A0E036E2DC001F01B
:101E5000026A80EC15F001C00FF002C010F0EFEC48
:101E600016F0290E0F24F66E100E1020F76EF86A89
:101E7000000EF8220900F5CF18F00900F5CF19F08F
:101E80000A00F5CF1AF0000E0A6E0A0E096E2DC078
:101E900007F0086A5DEC14F0090E07240F6E000EBF
:101EA0000820106E000E126E030E116EEFEC16F08D
:101EB000290E0F24F66E100E1020F76EF86A000E31
:101EC000F8220900F5CF15F00900F5CF16F00A0049
:101ED000F5CF17F096EC11F015C02AF016C02BF0D4
:101EE00017C02CF02AC015F02BC016F02CC017F02C
:101EF000000E186E000E196E3F0E1A6E96EC11F061
:101F00001ED024D000D02D50030D290EF324F66EE0
:101F1000100EF420F76EF86A000EF8220900F5CFD3
:101F200015F00900F5CF16F00A00F5CF17F0000EF6
:101F3000186E000E196E3F0E1A6E96EC11F015C059
:101F400024F016C025F017C026F000D0120030C0D3
:101F500034F0356A366A2F34343601E33580345034
:101F6000396E33C034F0356A366A3234343601E3C0
:101F700035803450386E3950D8B40BD03850395C75
:101F8000D8B00ED0395000083824346E180E34649E
:101F900007D031C02EF032C02FF033C030F0B8D0AF
:101FA0003850D8B40BD03950385CD8B00ED0385037
:101FB00000083924346E180E346407D02EC02EF079
:101FC0002FC02FF030C030F0A3D0060E376E30AEE9
:101FD00002D0378E00D033BE378C2F8EFF0E2E16D8
:101FE000FF0E2F16000E3016328EFF0E3116FF0E2A
:101FF0003216000E33163850395CD8B01ED0D89047
:10200000313632363336380639503818D8B40FD016
:10201000370637C034F0070E3416D8B408D0EFD7DF
:1020200006D0D89030322F322E32392A00D0385094
:102030003918D8B424D0F5D722D03950385CD8B06C
:102040001ED0D8902E362F363036390639503818F3
:10205000D8B40FD0370637C034F0070E3416D8B4D2
:1020600008D0EFD706D0D890333232323132382A06
:1020700000D038503918D8B402D0F5D700D037AED8
:102080000CD0FF0E2E1AFF0E2F1AFF0E301A010E63
:102090002E26000E2F22000E302237AC0DD0FF0E60
:1020A000311AFF0E321AFF0E331A010E3126000EBE
:1020B0003222000E332200D0000E376E2E50312611
:1020C0002F5032223050332233AE0FD0FF0E311A50
:1020D000FF0E321AFF0E331A010E3126000E322285
:1020E000000E3322010E376E00D031C001F032C035
:1020F00002F033C003F039C004F037C005F0ECEC57
:1021000012F001C02EF002C02FF003C030F000D05A
:10211000120003C007F0086A096A0234073601E3B7
:10212000088007500F6E0F50D8A402D05DD078D031
:1021300006C007F0086A096A0534073601E308801B
:1021400007500E6E0E50D8A402D04ED069D0028E29
:10215000FF0E0116FF0E0216000E0316058EFF0E6F
:102160000416FF0E0516000E0616000E0A6E000E6F
:102170000B6E000E0C6E000E0D6E7F0E0F5E0E507D
:10218000980F0F5E180E0E6ED8900A360B360C366E
:102190000D360450015C0550025806500358D8A073
:1021A00007D00450015E0550025A0650035A0A80B7
:1021B000D8900136023603360E2EE6D700D00FAE89
:1021C00010D00F50800A970FD8B003D00DD028D070
:1021D00000D0D8900D320C320B320A320F3EF9D7B4
:1021E00017D0170E0F6411D0000E016E000E026E94
:1021F000000E036E000E046E13D007D0D8900A367E
:102200000B360C360D360F0600D00F50D8A4F6D77B
:102210000AC001F00BC002F00CC003F00DC004F0C6
:102220001200033404340C6E0C50D8A402D061D0D8
:102230007CD0063407340B6E0B50D8A402D059D092
:1022400074D0038EFF0E0116FF0E0216FF0E03164A
:10225000000E0416068EFF0E0416FF0E0516FF0E66
:102260000616000E0716000E076E000E086E000E12
:10227000096E000E0A6E7F0E0C5E0B50A00F0C5EF6
:10228000200E0B6E00D0D8900736083609360A3675
:102290000450015C0550025806500358075004587A
:1022A000D8A00AD00450015E0550025A0650035AC5
:1022B0000750045A078000D0D89001360236033602
:1022C00004360B2EE0D700D00CAE10D00C50800A94
:1022D0009F0FD8B003D00DD028D000D0D8900A32AC
:1022E0000932083207320C3EF9D717D01F0E0C64A2
:1022F00011D0000E016E000E026E000E036E000E75
:10230000046E13D007D0D8900736083609360A363F
:102310000C0600D00C50D8A4F6D707C001F008C0B6
:1023200002F009C003F00AC004F0120017C01BF04D
:102330001C6A1D6A16341B3601E31C801B501E6E7E
:102340001E50D8A402D00ED06CD01AC01BF01C6A4C
:102350001D6A19341B3601E31C801B50236E235069
:10236000D8A407D0000E156E000E166E000E176E64
:1023700058D023507B0F1E2617C023F01A50231A63
:10238000800E2316168E198EFF0E1816FF0E1916C4
:10239000000E1A16000E1F6E000E206E000E216E2B
:1023A000070E226E00D015A007D018501F26195016
:1023B00020221A50212200D0D8901732163215321E
:1023C000D890183619361A36222EEDD700D0090EBD
:1023D000226E00D015A007D018501F2619502022B9
:1023E0001A50212200D0D890173216321532D890C8
:1023F000213220321F32222EEDD700D01FC001F033
:1024000020C002F021C003F01EC004F023C005F07C
:10241000ECEC12F001C015F002C016F003C017F08A
:1024200000D012002DC02FF0306A316A2C342F36C4
:1024300001E330802F50396E3950D8A402D039D002
:1024400063D0170E2F6E2BC030F02CC031F02DC092
:1024500032F02F28336E04D0D890323231323032FD
:10246000332EFAD73050346E2C8EFF0E2B16FF0E03
:102470002C16000E2D162B50356E2C50366E2D500E
:10248000376E386A8E0E395E39AE10D03950800AF8
:102490008F0FD8B003D00DD037D000D0D8903832BD
:1024A000373236323532393EF9D719D0170E396402
:1024B00011D0000E2B6E000E2C6E000E2D6E000E35
:1024C0002E6E22D007D0D89035363636373638368D
:1024D000390600D03950D8B402D0F5D700D03450E6
:1024E000D8B409D0381E371E361E356C000E362281
:1024F0003722382200D035C02BF036C02CF037C040
:102500002DF038C02EF000D01200810E406E100E5B
:10251000416E66C042F067C043F068C044F07DEC95
:1025200008F0960E406E100E416E7DEC08F080B6FD
:1025300004D0F20E696E100E03D0F60E696E100E06
:102540006A6E00D0C90E406E100E416E69C042F036
:102550006AC043F07DEC08F080B804D0F20E6B6ED8
:10256000100E03D0F60E6B6E100E6C6E00D0DA0EED
:10257000406E100E416E6BC042F06CC043F07DECBB
:1025800008F080BA04D0F20E6D6E100E03D0F60E75
:102590006D6E100E6E6E00D0A70E406E100E416E66
:1025A0006DC042F06EC043F07DEC08F082B004D004
:1025B000F20E6F6E100E03D0F60E6F6E100E706E70
:1025C00000D0B80E406E100E416E6FC042F070C069
:1025D00043F07DEC08F012000450D8B405D001504F
:1025E00002100310D8A40ED0000E016E000E026E71
:1025F000000E036E53D006D0042AD8900332023264
:10260000013200D0000E0114066E000E0214076E97
:10261000FE0E0314086E065007100810D8B40ED032
:10262000EBD70CD0042A010E0126000E0222000E68
:102630000322D89003320232013200D0000E01147E
:10264000066E000E0214076EFF0E0314086E06508D
:1026500007100810D8B408D0E5D706D00406D890E3
:1026600001360236033600D002BE04D0020E0460EA
:10267000F5D700D004B002D0029E00D0D89004322A
:10268000045003120550D8B402D0038E00D001C00C
:1026900001F002C002F003C003F000D01200A4EC6D
:1026A00017F0A6EC17F08482010ED4EC16F0010EA0
:1026B000B9EC16F0010E83EC16F0020E9EEC16F04B
:1026C00080A606D0080E016E000EAFEC13F000D00D
:1026D000070E56EC17F0030E9EEC16F0030E56ECA8
:1026E00017F0010E9EEC16F082A00FD0020EB9EC8E
:1026F00016F0080E56EC17F0030EB9EC16F0030EA8
:1027000056EC17F0010EB9EC16F0020ED4EC16F0F0
:1027100080A806D0080E016E010EAFEC13F000D0B9
:10272000060E56EC17F0030ED4EC16F0030E56EC22
:1027300017F0010ED4EC16F080AA10D0020E83EC34
:1027400016F0070E56EC17F0030E83EC16F0030E8E
:1027500056EC17F0010E83EC16F000D01200036E59
:102760000350D8A425D08168FF0E0124046E056AA9
:10277000FF0E052205BE1AD0055005E10404D8A0BD
:1027800015D001D013D0770E0424F66E100E05205C
:10279000F76EF86A000EF8220800F5CF83FF7BEC95
:1027A00017F00406D8A00506E5D7EDD7836800D05A
:1027B0000304D8A42BD08368FF0E0124066E076A99
:1027C000FF0E072207BE20D0075005E10604D8A05F
:1027D0001BD001D019D081CF02F0800E0216770EE7
:1027E0000624F66E100E0720F76EF86A000EF82227
:1027F0000800F5507F0B0210816E7BEC17F0060687
:10280000D8A00706DFD7E7D7816800D07BEC17F0A8
:102810001200000E816E000E836EA4EC17F0A6EC81
:1028200017F08492010ED4EC16F0010EB9EC16F0FC
:10283000010E83EC16F0020E9EEC16F0060E56EC1E
:1028400017F0030E9EEC16F0030E56EC17F0010E77
:102850009EEC16F082A00FD0020EB9EC16F0070E17
:1028600056EC17F0030EB9EC16F0030E56EC17F009
:10287000010EB9EC16F0020ED4EC16F0060E56EC72
:1028800017F0030ED4EC16F0030E56EC17F0010E01
:10289000D4EC16F080AA10D0020E83EC16F0080ECD
:1028A00056EC17F0030E83EC16F0030E56EC17F0FF
:1028B000010E83EC16F000D01200000E0C6E0AAE72
:1028C00007D0096C0A1ED8B00A2A010E0C6E00D07F
:1028D00008AE07D0076C081ED8B0082A010E0C1AE3
:1028E00000D0000E0E6E000E0D6E09500A10D8B406
:1028F00021D0010E0B6E05D0D89009360A360B2A6E
:1029000000D00ABE02D0F8D700D0D8900D360E36CF
:102910000950075C0A500858D8A006D00950075E35
:102920000A50085A0D8000D0D8900A3209320B2E76
:10293000ECD700D00C50D8B405D00D6C0E1ED8B01A
:102940000E2A00D00DC007F00EC008F000D0120013
:1029500003AE17D001C007F002C008F003C009F0B1
:10296000071E081E091E072A000E08220922000E53
:102970000724016E000E0820026E800E0920036EEF
:1029800000D006AE17D004C007F005C008F006C09E
:1029900009F0071E081E091E072A000E0822092238
:1029A000000E0724046E000E0820056E800E09201C
:1029B000066E00D0000E011A000E021A800E031AD5
:1029C000000E041A000E051A800E061A0450015C4F
:1029D0000550025806500358D8B002D0D89002D003
:1029E000D88000D0120070EC17F048EC17F08FEC94
:1029F00017F000D039EC17F001C071F002C072F08E
:102A000071C009F072C00AF003EC17F009C015F0AC
:102A10000AC016F00BC017F0000E186EA00E196E4B
:102A20003B0E1A6E96EC11F015C073F016C074F0E0
:102A300017C075F073C066F074C067F075C068F0B9
:102A400085EC12F073C001F074C002F075C003F0A1
:102A5000000E046E200E056E400E066EA8EC14F0FB
:102A6000D8B003D04FEC13F0C5D709EC14F0C2D79F
:102A700000EF00F0000E096E000E0A6E000E0B6EE5
:102A8000000E0C6E0550061007100810D8B42FD099
:102A9000010E0D6E07D0D89005360636073608367B
:102AA0000D2A00D008BE02D0F6D700D0D890093643
:102AB0000A360B360C360550015C0650025807509A
:102AC000035808500458D8A00AD00550015E06509B
:102AD000025A0750035A0850045A098000D0D8906F
:102AE00008320732063205320D2EE0D700D009C079
:102AF00001F00AC002F00BC003F00CC004F0120099
:102B0000000E066E02AE07D0016C021ED8B0022A7B
:102B1000010E066E00D004AE05D0036C041ED8B0C2
:102B2000042A00D003500410D8B41DD0010E056E45
:102B300005D0D89003360436052A00D004BE02D052
:102B4000F8D700D00350015C04500258D8A005D03B
:102B50000350015E0450025A00D0D8900432033270
:102B6000052EF0D700D00650D8B405D0016C021E57
:102B7000D8B0022A00D001C001F002C002F000D09B
:102B800012000550061007100810D8B429D0010E05
:102B9000096E07D0D8900536063607360836092A5A
:102BA00000D008BE02D0F6D700D00550015C065018
:102BB00002580750035808500458D8A009D00550AF
:102BC000015E0650025A0750035A0850045A00D0BA
:102BD000D8900832073206320532092EE6D700D0E7
:102BE00001C001F002C002F003C003F004C004F011
:102BF0001200036E000EAC6E000EAB6E03A002D08E
:102C0000AC8800D003A203D0AC8CAB8C00D003A462
:102C100002D0AC8E00D003A602D0AB8802D0AB8A23
:102C200000D003B8AC849E9803AA02D0AB8600D033
:102C300003AC02D09D8A01D09D9A9E9A03AE02D029
:102C40009D8801D09D9801C0AFFF0250B06EAC8A44
:102C5000AB8E949C948EACB8ACBE02D0948C00D059
:102C600012008E0E116E07D0D8900C320B320A3241
:102C70000932112A00D0000E09140D6E000E0A143C
:102C80000E6E000E0B140F6EFF0E0C14106E0D5016
:102C90000E100F101010D8A4E7D709C001F00AC019
:102CA00002F00BC003F011C004F0000E056EECEC56
:102CB00012F001C009F002C00AF003C00BF000D00E
:102CC00012003D503E103F10D8B407D0000E3D1A00
:102CD000000E3E1A800E3F1A00D03AC02EF03BC0C4
:102CE0002FF03CC030F03DC031F03EC032F03FC06C
:102CF00033F0A7EC0FF02EC03AF02FC03BF030C0FD
:102D00003CF000D01200016E0AD0829401D082847F
:102D1000829613D0829401D0828482860ED0015094
:102D2000000AD8B4F2D7010AD8B4F1D7030AD8B44C
:102D3000F1D7010AD8B4F0D700D01200016E0AD042
:102D4000809201D08082809413D0809201D08082C2
:102D500080840ED00150000AD8B4F2D7010AD8B44A
:102D6000F1D7030AD8B4F1D7010AD8B4F0D700D00C
:102D70001200016E0AD0819E01D0818E849013D002
:102D8000819E01D0818E84800ED00150000AD8B47B
:102D9000F2D7010AD8B4F1D7030AD8B4F1D7010A9F
:102DA000D8B4F0D700D01200016E0AD0829801D0BA
:102DB0008288829A13D0829801D08288828A0ED02B
:102DC0000150000AD8B4F2D7010AD8B4F1D7030AE7
:102DD000D8B4F1D7010AD8B4F0D700D012000F5000
:102DE0001102F3CF13F0F4CF14F00F501202F3508E
:102DF000142610501102F350142613C00FF014C003
:102E000010F000D0120009C001F00AC002F0036AFD
:102E10008E0E046E000E056EECEC12F001C009F08F
:102E200002C00AF003C00BF000D0120001500210E3
:102E30000310D8B406D0000E011A000E021A800E3C
:102E4000031A01C001F002C002F003C003F0120037
:102E5000036E000E026E3A0E036006D02F0E03645E
:102E600003D0010E026E00D002C001F0013000D08C
:102E70001200C28200D0C2B2FED7C450046E036AF0
:102E8000C3500324016E000E0420026E00D0120015
:102E9000700ED36E949C948E000E026E190E016E0D
:102EA0003C0EF9EC15F0AC8AAB8E1200016E000EF0
:102EB000026E04D096EC17F0022A00D00150025C9A
:102EC000D8A0F8D71200040ED56EAE0ED66E850EC1
:102ED000D76EF294D58E00D0F2A4FED7D59E120004
:102EE000F90E926E000E936E010E946E000E956EAA
:102EF000000E966E1200848486EC17F063EC17F0D7
:102F000084949DEC17F063EC17F01200F90ECB6E71
:102F1000050ECA6E4A0EBB6E3C0EBA6E1200010E52
:102F2000C26E0E0EC16EA90EC06E1200848463ECD8
:102F300017F0849463EC17F01200000EBA6E8292C0
:102F400012000001F3EF14F0836812008168120090
:022F500012006D
:020000040020DA
:08000000FFFFFFFFFFFFFFFF00
:020000040030CA
:0E000000FF08191EFF8381FF0FC00FE00F40A5
:00000001FF
