:040000006EEF0BF0A4
:1010000000FF4F12064C24200F0004000EC012F007
:10101000136A146A0D34123601E313801250156EF0
:101020001550D8A402D00ED06CD011C012F0136AA3
:10103000146A1034123601E3138012501A6E1A50DB
:10104000D8A407D0000E0C6E000E0D6E000E0E6EB2
:1010500058D01A507B0F15260EC01AF011501A1ACC
:10106000800E1A160D8E108EFF0E0F16FF0E101624
:10107000000E1116000E166E000E176E000E186E82
:10108000070E196E00D00CA007D00F501626105076
:1010900017221150182200D0D8900E320D320C3287
:1010A000D8900F3610361136192EEDD700D0090E14
:1010B000196E00D00CA007D00F5016261050172222
:1010C0001150182200D0D8900E320D320C32D89028
:1010D000183217321632192EEDD700D016C001F093
:1010E00017C002F018C003F015C004F01AC005F0D4
:1010F00082EC08F001C00CF002C00DF003C00EF04D
:1011000000D012000450D8B405D0015002100310D2
:10111000D8A40ED0000E016E000E026E000E036EFB
:1011200053D006D0042AD89003320232013200D0C4
:10113000000E0114066E000E0214076EFE0E03145C
:10114000086E065007100810D8B40ED0EBD70CD09C
:10115000042A010E0126000E0222000E0322D8905E
:1011600003320232013200D0000E0114066E000E6E
:101170000214076EFF0E0314086E065007100810C5
:10118000D8B408D0E5D706D00406D8900136023688
:10119000033600D002BE04D0020E0460F5D700D0A2
:1011A00004B002D0029E00D0D89004320450031242
:1011B0000550D8B402D0038E00D001C001F002C0A7
:1011C00002F003C003F000D012008484010EC6ECCC
:1011D0000AF0010EABEC0AF0010E75EC0AF0020EFB
:1011E00090EC0AF080A606D0080E026E000E53ECBA
:1011F0000AF000D0070E03EC0BF0030E90EC0AF09F
:10120000030E03EC0BF0010E90EC0AF082A00FD05D
:10121000020EABEC0AF0080E03EC0BF0030EABEC85
:101220000AF0030E03EC0BF0010EABEC0AF0020E19
:10123000C6EC0AF080A806D0080E026E010E53EC30
:101240000AF000D0060E03EC0BF0030EC6EC0AF019
:10125000030E03EC0BF0010EC6EC0AF080AA10D0CE
:10126000020E75EC0AF0070E03EC0BF0030E75ECA2
:101270000AF0030E03EC0BF0010E75EC0AF000D03F
:101280001200000E816E000E836E8494010EC6EC77
:101290000AF0010EABEC0AF0010E75EC0AF0020E3A
:1012A00090EC0AF0060E03EC0BF0030E90EC0AF043
:1012B000030E03EC0BF0010E90EC0AF082A00FD0AD
:1012C000020EABEC0AF0070E03EC0BF0030EABECD6
:1012D0000AF0030E03EC0BF0010EABEC0AF0020E69
:1012E000C6EC0AF0060E03EC0BF0030EC6EC0AF097
:1012F000030E03EC0BF0010EC6EC0AF080AA10D02E
:10130000020E75EC0AF0080E03EC0BF0030E75EC00
:101310000AF0030E03EC0BF0010E75EC0AF000D09E
:10132000120003AE17D001C007F002C008F003C0DE
:1013300009F0071E081E091E072A000E08220922AE
:10134000000E0724016E000E0820026E800E092098
:10135000036E00D006AE17D004C007F005C008F039
:1013600006C009F0071E081E091E072A000E0822E3
:101370000922000E0724046E000E0820056E800E60
:101380000920066E00D0000E011A000E021A800E0F
:10139000031A000E041A000E051A800E061A0450D5
:1013A000015C0550025806500358D8B002D0D890BE
:1013B00002D0D88000D0120037EC0BF04DEC0BF0CF
:1013C00060EC0BF000D0F4EC0AF001C01EF002C09B
:1013D0001FF01EC009F01FC00AF0E1EC0AF009C0BE
:1013E0000CF00AC00DF00BC00EF0000E0F6EA00E38
:1013F000106E3B0E116E06EC08F00CC01BF00DC019
:101400001CF00EC01DF0000E016E200E026E400E8C
:10141000036E1BC004F01CC005F01DC006F091EC6B
:1014200009F0D8B003D0E5EC08F0CDD741EC09F0D5
:10143000CAD700EF00F0036E000EAC6E000EAB6E6C
:1014400003A002D0AC8800D003A203D0AC8CAB8C3C
:1014500000D003A402D0AC8E00D003A602D0AB888B
:1014600002D0AB8A00D003B8AC849E9803AA02D005
:10147000AB8600D003AC02D09D8A01D09D9A9E9A83
:1014800003AE02D09D8801D09D9801C0AFFF0250ED
:10149000B06EAC8AAB8E949C948EACB8ACBE02D0CD
:1014A000948C00D01200036E0350D8B409D016D02B
:1014B00007D002041DEC0BF042EC0BF0020600D04A
:1014C0000250D8A4F6D777EC0BF00ED007D0020468
:1014D0002AEC0BF042EC0BF0020600D00250D8A42C
:1014E000F6D779EC0BF000D01200016E0AD082948E
:1014F00001D08284829613D0829401D08284828625
:101500000ED00150000AD8B4F2D7010AD8B4F1D7EE
:10151000030AD8B4F1D7010AD8B4F0D700D012002A
:10152000016E0AD0809201D08082809413D0809284
:1015300001D0808280840ED00150000AD8B4F2D746
:10154000010AD8B4F1D7030AD8B4F1D7010AD8B444
:10155000F0D700D01200016E0AD0819E01D0818E9A
:10156000849013D0819E01D0818E84800ED0015052
:10157000000AD8B4F2D7010AD8B4F1D7030AD8B414
:10158000F1D7010AD8B4F0D700D01200016E0AD00A
:10159000829801D08288829A13D0829801D0828862
:1015A000828A0ED00150000AD8B4F2D7010AD8B40A
:1015B000F1D7030AD8B4F1D7010AD8B4F0D700D0D4
:1015C000120009C001F00AC002F0036A8E0E046E18
:1015D000000E056E82EC08F001C009F002C00AF0AE
:1015E00003C00BF000D01200C28200D0C2B2FED7FE
:1015F000C450046E036AC3500324016E000E04201D
:10160000026E00D01200016E000E026E04D067EC74
:101610000BF0022A00D00150025CD8A0F8D71200CB
:10162000040ED56EAE0ED66E850ED76EF294D58EA4
:1016300000D0F2A4FED7D59E1200016E0150010D1C
:10164000010EF324F66E100EF420F76E0800F5CFAD
:1016500083FF1200016E0150010D010EF324F66E9E
:10166000100EF420F76E0800F5CF82FF1200E10E95
:10167000926E000E936E000E946E000E956E000E2C
:10168000966E1200838E57EC0BF010EC0BF0839EDD
:1016900073EC0BF010EC0BF01200000E026E190E42
:1016A000016E3C0E1BEC0AF0700ED36E1200F90EA8
:1016B000CB6E050ECA6E4A0EBB6E3C0EBA6E1200A1
:1016C000010EC26E0E0EC16EA90EC06E1200838E88
:1016D00010EC0BF0839E10EC0BF01200000EF86E75
:1016E0000001DCEF09F0000EBA6E829212008368EE
:0616F000120082681200E6
:020000040020DA
:08000000FFFFFFFFFFFFFFFF00
:020000040030CA
:0E000000FF08191EFF8381FF0FC00FE00F40A5
:00000001FF
