:020000040000FA
:1000000002EF00F00F0EC16E946A956A966A050EB3
:10001000406E030E416E040E426E060E436E010EDC
:10002000446E020E456E070E466E000E476E300E91
:10003000506E380E516E100E526E000E536E380E0A
:10004000546E200E556E280E566E080E576E286A96
:10005000080E296E00EE40F010EE50F0EF50826E68
:10006000E750836E3AEC00F0E92AE12A2906F6E12E
:1000700027EF00F0F60E216EFF0E206E0000200626
:08008000FDE12106F9E1120087
:02008800000076
:020000040030CA
:0100010008F6
:0100020019E4
:010003001EDE
:010006008178
:00000001FF
