:0400000008EF17F0FE
:1010000000010000000A00000064000000E8030086
:101010000010270000A086010040420F0080969833
:101020000000E1F50500CA9A3B00803FCDCC3DD7DA
:10103000233C12833AB7D138C62737388635C0D615
:1010400033CC2B32708930E7DB2EE53C1E42A20DFB
:1010500000803F00204100C842007A44401C4650B6
:10106000C34724744997184BBCBE4C6B6E4E031596
:101070005079AD60F34971014F12064C24200F00E6
:1010800004526573697374616E63653A2025662046
:101090004B0D0A0A0000690E0001836F000E00016B
:1010A000846F51D3250E00019619D8B405D00001E4
:1010B0009651F4EC16F047D3000E0001866F000E37
:1010C000856F06D04FD30001868514D03CD312D053
:1010D00067C0F6FF68C0F7FF674A682A0800F5CFC7
:1010E00096F000019651000AD8B43CD3660AD8B4F1
:1010F000EAD729D3070E00018615D8B414D3000E01
:101100000001886F060E876F83C0D9FF84C0DAFFA5
:10111000DECF93F0DECF94F0DDCF95F0030E00012B
:101120008327000E8423000195AF12D093C00DF0E9
:1011300094C00EF095C00FF0B3EC16F00DC093F014
:101140000EC094F00FC095F0030E0001851300D07F
:10115000000E00018E6F000E8D6F00019351000193
:10116000941100019511D8B48DD0820E6C6EFF0ED3
:101170006D6E93C06EF094C06FF095C070F096C025
:1011800071F0100E05D0D890713270326F326E321D
:10119000E82EF9D76E506C2400018D6F000E6D2083
:1011A00000018E6F00018D07D8A08E078DC057F00B
:1011B0008EC058F0000E5A6E030E596E8CEC16F06D
:1011C00057C08DF058C08EF08DC04FF08EC050F0DB
:1011D000000E526E0A0E516E64EC14F04FC08DF08A
:1011E00050C08EF000018EAF05D000018D07D8A051
:1011F0008E0700D000018D510008B3EC0BF05DC0EC
:101200008FF05EC090F05FC091F08FC01CF090C076
:101210001DF091C01EF093C01FF094C020F095C047
:1012200021F0A1EC12F01CC08FF01DC090F01EC088
:1012300091F08FC001F090C002F091C003F0000E59
:10124000046E800E056E3F0E066EAFEC14F0D8B043
:1012500005D000018D07D8A08E0714D08FC001F0F3
:1012600090C002F091C003F0000E046E200E056ED7
:10127000410E066EAFEC14F0D8A004D000018D4BE7
:101280008E2B00D0000188BF08D0000188511EE1DC
:101290000D0E0001875DD8B019D093C010F094C036
:1012A00011F095C012F00001875110EC0FF05DC0F5
:1012B00013F05EC014F05FC015F032EC10F010C0F7
:1012C00093F011C094F012C095F000D000018EBFD1
:1012D00008D000018E5128E10A0E00018D5DD8B0C2
:1012E00023D0000193510001941100019511D8B44D
:1012F00077D093C03AF094C03BF095C03CF01DEC21
:1013000013F03A503B103C103D10D8A469D00001B6
:101310008EBF66D000018E5107E1020E00018D5D87
:10132000D8B002D05DD000D08FC001F090C002F0E4
:1013300091C003F0700E046E890E056E400E066EAD
:10134000AFEC14F0D8B003D00001F70E02D00001CA
:10135000F80E8D27FF0E8E2300D000018D51B3ECC7
:101360000BF05DC08FF05EC090F05FC091F017D0C1
:1013700093C001F094C002F095C003F08FC004F058
:1013800090C005F091C006F09CEC11F001C089F00E
:1013900002C08AF003C08BF004C08CF017D093C059
:1013A00001F094C002F095C003F08FC004F090C02B
:1013B00005F091C006F014EC11F001C089F002C0F4
:1013C0008AF003C08BF004C08CF000D0000E000146
:1013D000936F000E0001946F000E0001956F34D0E2
:1013E00093C03AF094C03BF095C03CF01DEC13F074
:1013F0003AC089F03BC08AF03CC08BF03DC08CF015
:1014000093C01CF094C01DF095C01EF089C009F077
:101410008AC00AF08BC00BF08CC00CF0F1EC15F018
:1014200009C01FF00AC020F00BC021F04CEC16F0F0
:101430001CC093F01DC094F01EC095F0000E00017A
:101440008E6F000E8D6F00D0010E0001966F0A0E98
:1014500000019619D8B422D001D020D000019651B5
:10146000040D010EF324F66E100EF420F76E090041
:10147000F5500001895D0900F55000018A59090005
:10148000F55000018B590900F55000018C59D8A086
:1014900005D001D003D00001962BD9D7030E00014F
:1014A00085156C6E000E000186156D6E6C506D100A
:1014B000D8B44BD02D0EF4EC16F047D089C001F013
:1014C0008AC002F08BC003F08CC004F0000196517A
:1014D000040D010EF324F66E100EF420F76E0900D1
:1014E000F5CF05F00900F5CF06F00900F5CF07F0BC
:1014F0000A00F5CF08F0FAEC14F001C08FF002C03A
:1015000090F003C091F004C092F08FC001F090C041
:1015100002F091C003F092C004F00A0E056E000EB6
:10152000066E000E076E000E086E81EC15F001C00D
:101530008FF002C090F003C091F004C092F000015F
:101540008F51300FF4EC16F000D000019607000127
:101550009629D8B40AD0B2D708D0300EF4EC16F0E1
:1015600000018D07D8A08E0700D000018EBF07D0E4
:1015700000018E51F2E100018D05D8B0EED70001D7
:1015800088BF0CD00001885105E1090E0001875D7C
:10159000D8A004D0080E0001966F03D087C096F043
:1015A00000D0000196510001875F000E000196BF38
:1015B000FF0E0001885B000196510001D8B404D0F1
:1015C0002E0EF4EC16F000D000019651B3EC0BF0A7
:1015D0005DC080F05EC081F05FC082F093C01FF0FC
:1015E00094C020F095C021F080C01CF081C01DF097
:1015F00082C01EF0A1EC12F01CC03AF01DC03BF0FE
:101600001EC03CF01DEC13F03AC089F03BC08AF0DC
:101610003CC08BF03DC08CF06ED089C001F08AC018
:1016200002F08BC003F08CC004F000019651040D51
:10163000010EF324F66E100EF420F76E0900F5CFBC
:1016400005F00900F5CF06F00900F5CF07F00A0014
:10165000F5CF08F0FAEC14F001C08FF002C090F062
:1016600003C091F004C092F08FC001F090C002F06E
:1016700091C003F092C004F00A0E056E000E066ED3
:10168000000E076E000E086E81EC15F001C08FF0A1
:1016900002C090F003C091F004C092F000018F519D
:1016A000300FF4EC16F089C001F08AC002F08BC054
:1016B00003F08CC004F000019651040D010EF324D8
:1016C000F66E100EF420F76E0900F5CF05F0090054
:1016D000F5CF06F00900F5CF07F00A00F5CF08F0C6
:1016E00081EC15F001C089F002C08AF003C08BF0D4
:1016F00004C08CF000D00001960700019629D8B4F0
:101700000AD08BD708D0300EF4EC16F00001870712
:10171000D8A0880700D00001875100018811D8B4F3
:1017200012D0F1D710D0030E000185156C6E000E9B
:10173000000186156D6E6C506D10D8B404D02D0E5E
:10174000F4EC16F000D067C0F6FF68C0F7FF674AF8
:10175000682A0800F5CF96F000019651D8B402D05F
:10176000A1D400D01200636E63AEEFD0636C6350FF
:10177000800A120FD8A08DD0000E5A6E030E596E3B
:10178000000E526E0A0E516E000E4C6E640E4B6EC1
:101790006350496E4A6A49BE4A0640EC15F049C09A
:1017A0004FF04AC050F064EC14F0090E4F24576E0D
:1017B000000E5020586E8CEC16F0290E5724F66E51
:1017C000100E5820F76E0900F5CF1FF00900F5CF75
:1017D00020F00A00F5CF21F0000E526E640E516E1B
:1017E00063504F6E506A4FBE500664EC14F0120EF8
:1017F0004F24576E000E5020586E000E5A6E030E86
:10180000596E8CEC16F0290E5724F66E100E5820E7
:10181000F76E0900F5CF1CF00900F5CF1DF00A00A6
:10182000F5CF1EF0A1EC12F01CC060F01DC061F0FD
:101830001EC062F060C01CF061C01DF062C01EF0EE
:10184000000E5A6E030E596E000E4C6E0A0E4B6E51
:101850006350496E4A6A49BE4A0640EC15F049C0D9
:1018600057F04AC058F08CEC16F0290E5724F66E4B
:10187000100E5820F76E0900F5CF1FF00900F5CFC4
:1018800020F00A00F5CF21F0A1EC12F041D15AD19D
:1018900054D06350800A750FD8A04FD0000E526EFE
:1018A0000A0E516E63504F6E506A4FBE500664EC84
:1018B00014F0090E4F24576E000E5020586E000E83
:1018C0005A6E030E596E8CEC16F0290E5724F66EE4
:1018D000100E5820F76E0900F5CF1CF00900F5CF67
:1018E0001DF00A00F5CF1EF0000E5A6E030E596E61
:1018F000000E4C6E0A0E4B6E6350496E4A6A49BE2A
:101900004A0640EC15F049C057F04AC058F08CEC3C
:1019100016F0290E5724F66E100E5820F76E0900A7
:10192000F5CF1FF00900F5CF20F00A00F5CF21F028
:10193000A1EC12F0EDD006D100D06350030D290EBA
:10194000F324F66E100EF2D0FDD06350800A120F11
:10195000D8A08DD0000E5A6E030E596E000E526E36
:101960000A0E516E000E4C6E640E4B6E6350496E43
:101970004A6A49BE4A0640EC15F049C04FF04AC0D9
:1019800050F064EC14F0090E4F24576E000E5020F6
:10199000586E8CEC16F0500E5724F66E100E582030
:1019A000F76E0900F5CF1FF00900F5CF20F00A000F
:1019B000F5CF21F0000E526E640E516E63504F6EE3
:1019C000506A4FBE500664EC14F0120E4F24576E4E
:1019D000000E5020586E000E5A6E030E596E8CEC9D
:1019E00016F0500E5724F66E100E5820F76E0900B0
:1019F000F5CF1CF00900F5CF1DF00A00F5CF1EF061
:101A0000A1EC12F01CC060F01DC061F01EC062F0BD
:101A100060C01CF061C01DF062C01EF0000E5A6E66
:101A2000030E596E000E4C6E0A0E4B6E6350496EDB
:101A30004A6A49BE4A0640EC15F049C057F04AC010
:101A400058F08CEC16F0500E5724F66E100E5820FD
:101A5000F76E0900F5CF1FF00900F5CF20F00A005E
:101A6000F5CF21F0A1EC12F053D06CD059D06350D7
:101A7000800A750FD8A054D0000E526E0A0E516E17
:101A800063504F6E506A4FBE500664EC14F0090E5E
:101A90004F24576E000E5020586E000E5A6E030EE3
:101AA000596E8CEC16F0500E5724F66E100E58201E
:101AB000F76E0900F5CF1CF00900F5CF1DF00A0004
:101AC000F5CF1EF0000E5A6E030E596E000E4C6ECE
:101AD0000A0E4B6E6350496E4A6A49BE4A0640EC94
:101AE00015F049C057F04AC058F08CEC16F0500E73
:101AF0005724F66E100E5820F76E0900F5CF1FF030
:101B00000900F5CF20F00A00F5CF21F0A1EC12F08A
:101B10001CC05DF01DC05EF01EC05FF013D000D091
:101B20006350030D500EF324F66E100EF420F76E82
:101B30000900F5CF5DF00900F5CF5EF00A00F5CFA2
:101B40005FF000D01200D7EC16F0FBEC16F0E1ECE1
:101B500016F0000E0001976FB00E0001986F410E55
:101B60000001996F040E02EC17F000D0A0EC16F003
:101B700001C09AF002C09BF0000E1F6EA00E206EF6
:101B8000400E216E9AC009F09BC00AF06EEC16F070
:101B900009C01CF00AC01DF00BC01EF0A1EC12F031
:101BA0001CC02BF01DC02CF01EC02DF0000E2E6EA0
:101BB000800E2F6E440E306E90EC13F02BC0A2F00E
:101BC0002CC0A3F02DC0A4F0000E136EA00E146E56
:101BD000400E156EA2C00DF0A3C00EF0A4C00FF011
:101BE000B3EC16F00DC010F00EC011F00FC012F0E3
:101BF00032EC10F010C02EF011C02FF012C030F0F7
:101C0000A2C02BF0A3C02CF0A4C02DF090EC13F0D8
:101C10002BC01CF02CC01DF02DC01EF097C01FF073
:101C200098C020F099C021F0A1EC12F01CC0A7F0E0
:101C30001DC0A8F01EC0A9F0A7C001F0A8C002F006
:101C4000A9C003F0000E046E200E056E410E066E54
:101C5000AFEC14F0D8B057D0A7C03AF0A8C03BF012
:101C6000A9C03CF01DEC13F03AC0A5F03BC0A6F0B3
:101C7000000E1F6E200E206E410E216EA7C013F0C5
:101C8000A8C014F0A9C015F0A5C009F0A6C00AF0BC
:101C90006EEC16F009C00DF00AC00EF00BC00FF08C
:101CA000B3EC16F00DC010F00EC011F00FC012F022
:101CB00032EC10F010C01CF011C01DF012C01EF06C
:101CC000A1EC12F01CC03AF01DC03BF01EC03CF06D
:101CD0001DEC13F03AC09CF03BC09DF0770E000164
:101CE000A525F66E100EA621F76E0800F5CF83FF2E
:101CF000770E00019C25F66E100E9D21F76E0800F0
:101D0000F5CF81FF839EA7C001F0A8C002F0A9C053
:101D100003F0000E046E200E056E410E066EAFEC51
:101D200014F0D8A046D0000E2E6E200E2F6E410E5D
:101D3000306EA7C02BF0A8C02CF0A9C02DF090ECFD
:101D400013F02BC03AF02CC03BF02DC03CF01DEC42
:101D500013F03AC09EF03BC09FF0A7C03AF0A8C075
:101D60003BF0A9C03CF01DEC13F03AC049F03BC079
:101D70004AF0000E4C6E0A0E4B6E40EC15F049C056
:101D8000A0F04AC0A1F0770E00019E25F66E100E5D
:101D90009F21F76E0800F5CF83FF770E0001A02585
:101DA000F66E100EA121F76E0800F5CF81FF838E2D
:101DB00000D0810E676E100E686EA7C069F0A8C0D3
:101DC0006AF0A9C06BF04BEC08F0A7C049F0A8C0BE
:101DD0004AF0A9C04BF021EC16F0A7C00AF0A8C049
:101DE0000BF0A9C00CF021EC12F0A7C001F0A8C0C4
:101DF00002F0A9C003F05C0E046E8F0E056E3D0E5E
:101E0000066EAFEC14F0D8B003D0EBEC16F003D0B4
:101E100021EC17F000D0C5EC16F0A8D600EF00F0CA
:101E2000666E6D0E66649BD0000E5A6E030E596E80
:101E3000000E526E0A0E516E000E4C6E640E4B6E0A
:101E400066C049F04A6A40EC15F049C04FF04AC0FC
:101E500050F064EC14F0090E4F24576E000E502021
:101E6000586E8CEC16F0290E5724F66E100E582082
:101E7000F76E0900F5CF1FF00900F5CF20F00A003A
:101E8000F5CF21F0000E526E640E516E66C04FF019
:101E9000506A64EC14F0120E4F24576E000E50205E
:101EA000586E000E5A6E030E596E8CEC16F0290E09
:101EB0005724F66E100E5820F76E0900F5CF1CF06F
:101EC0000900F5CF1DF00A00F5CF1EF0A1EC12F0CD
:101ED0001CC063F01DC064F01EC065F0000E5A6E99
:101EE000030E596E000E4C6E0A0E4B6E66C049F022
:101EF0004A6A40EC15F049C057F04AC058F08CECE3
:101F000016F0290E5724F66E100E5820F76E0900B1
:101F1000F5CF1FF00900F5CF20F00A00F5CF21F032
:101F200063C01CF064C01DF065C01EF0A1EC12F08F
:101F30001CC060F01DC061F01EC062F060C01CF0EB
:101F400061C01DF062C01EF0000E1F6E000E206EFC
:101F50003F0E216EA1EC12F07DD083D062D00A0E2C
:101F600066645FD0000E5A6E030E596E000E4C6E02
:101F70000A0E4B6E66C049F04A6A40EC15F049C043
:101F800057F04AC058F08CEC16F0290E5724F66E24
:101F9000100E5820F76E0900F5CF1FF00900F5CF9D
:101FA00020F00A00F5CF21F0000E526E0A0E516E9D
:101FB00066C04FF0506A64EC14F0090E4F24576E5F
:101FC000000E5020586E000E5A6E030E596E8CECA7
:101FD00016F0290E5724F66E100E5820F76E0900E1
:101FE000F5CF1CF00900F5CF1DF00A00F5CF1EF06B
:101FF000A1EC12F01CC063F01DC064F01EC065F0BF
:1020000063C01CF064C01DF065C01EF0000E1F6EA2
:10201000000E206E3F0E216EA1EC12F01BD021D0DD
:1020200000D06650030D290EF324F66E100EF42036
:10203000F76E0900F5CF1CF00900F5CF1DF00A007E
:10204000F5CF1EF0000E1F6E000E206E3F0E216EAB
:10205000A1EC12F01CC05DF01DC05EF01EC05FF070
:1020600000D0120012C016F0176A186A1134163622
:1020700001E3178016501B6E15C016F0176A186A18
:102080001434163601E3178016501A6E1B50D8B45C
:102090000BD01A501B5CD8B00ED01B5000081A246D
:1020A000166E180E166407D013C010F014C011F08D
:1020B00015C012F0B8D01A50D8B40BD01B501A5C0F
:1020C000D8B00ED01A5000081B24166E180E1664D5
:1020D00007D010C010F011C011F012C012F0A3D040
:1020E000060E196E12AE02D0198E00D015BE198CD4
:1020F000118EFF0E1016FF0E1116000E1216148E02
:10210000FF0E1316FF0E1416000E15161A501B5C48
:10211000D8B01ED0D8901336143615361A061B5078
:102120001A18D8B40FD0190619C016F0070E1616D3
:10213000D8B408D0EFD706D0D8901232113210326E
:102140001B2A00D01A501B18D8B424D0F5D722D09F
:102150001B501A5CD8B01ED0D890103611361236EB
:102160001B061B501A18D8B40FD0190619C016F048
:10217000070E1616D8B408D0EFD706D0D89015326F
:10218000143213321A2A00D01A501B18D8B402D0B5
:10219000F5D700D019AE0CD0FF0E101AFF0E111A91
:1021A000FF0E121A010E1026000E1122000E12222E
:1021B00019AC0DD0FF0E131AFF0E141AFF0E151ACC
:1021C000010E1326000E1422000E152200D0000E60
:1021D000196E10501326115014221250152215AEEC
:1021E0000FD0FF0E131AFF0E141AFF0E151A010E50
:1021F0001326000E1422000E1522010E196E00D0B7
:1022000013C001F014C002F015C003F01BC004F0AD
:1022100019C005F001EC14F001C010F002C011F07B
:1022200003C012F000D0120003C007F0086A096A68
:102230000234073601E3088007500F6E0F50D8A410
:1022400002D05DD078D006C007F0086A096A05346C
:10225000073601E3088007500E6E0E50D8A402D056
:102260004ED069D0028EFF0E0116FF0E0216000E30
:102270000316058EFF0E0416FF0E0516000E061639
:10228000000E0A6E000E0B6E000E0C6E000E0D6E30
:102290007F0E0F5E0E50980F0F5E180E0E6ED890C8
:1022A0000A360B360C360D360450015C05500258C8
:1022B00006500358D8A007D00450015E0550025ABA
:1022C0000650035A0A80D8900136023603360E2E85
:1022D000E6D700D00FAE10D00F50800A970FD8B0BD
:1022E00003D00DD028D000D0D8900D320C320B3254
:1022F0000A320F3EF9D717D0170E0F6411D0000E17
:10230000016E000E026E000E036E000E046E13D0FE
:1023100007D0D8900A360B360C360D360F0600D093
:102320000F50D8A4F6D70AC001F00BC002F00CC0C1
:1023300003F00DC004F01200033404340C6E0C5092
:10234000D8A402D061D07CD0063407340B6E0B5079
:10235000D8A402D059D074D0038EFF0E0116FF0E00
:102360000216FF0E0316000E0416068EFF0E04164C
:10237000FF0E0516FF0E0616000E0716000E076E5E
:10238000000E086E000E096E000E0A6E7F0E0C5EC7
:102390000B50A00F0C5E200E0B6E00D0D8900736AD
:1023A000083609360A360450015C055002580650BA
:1023B000035807500458D8A00AD00450015E0550B5
:1023C000025A0650035A0750045A078000D0D8908A
:1023D00001360236033604360B2EE0D700D00CAEA1
:1023E00010D00C50800A9F0FD8B003D00DD028D049
:1023F00000D0D8900A320932083207320C3EF9D7A1
:1024000017D01F0E0C6411D0000E016E000E026E6C
:10241000000E036E000E046E13D007D0D89007365E
:10242000083609360A360C0600D00C50D8A4F6D768
:1024300007C001F008C002F009C003F00AC004F0B0
:1024400012009A0E016E990E026E3E0E036E0AC0C5
:1024500004F00BC005F00CC006F0AFEC14F0D8B0DF
:1024600003D015EC17F06CD00AC001F00BC002F0DD
:102470000CC003F0CD0E046E4C0E056E3E0E066EC3
:10248000AFEC14F0D8A013D09A0E016E990E026E24
:102490003E0E036E0AC004F00BC005F00CC006F03F
:1024A000AFEC14F0D8A003D011EC17F049D00AC05B
:1024B00001F00BC002F00CC003F0CD0E046ECC0E88
:1024C000056E3D0E066EAFEC14F0D8A013D00AC016
:1024D00001F00BC002F00CC003F0CD0E046E4C0EE8
:1024E000056E3E0E066EAFEC14F0D8B003D019ECBA
:1024F00017F026D00AC001F00BC002F00CC003F0A8
:102500005C0E046E8F0E056E3D0E066EAFEC14F081
:10251000D8A013D00AC001F00BC002F00CC003F029
:10252000CD0E046ECC0E056E3D0E066EAFEC14F0B3
:10253000D8B003D01DEC17F003D00DEC17F000D08D
:1025400012001EC022F0236A246A1D34223601E3E1
:1025500023802250256E2550D8A402D00ED06CD0F6
:1025600021C022F0236A246A2034223601E323802A
:1025700022502A6E2A50D8A407D0000E1C6E000EDE
:102580001D6E000E1E6E58D02A507B0F25261EC0D1
:102590002AF021502A1A800E2A161D8E208EFF0E38
:1025A0001F16FF0E2016000E2116000E266E000EBE
:1025B000276E000E286E070E296E00D01CA007D0D3
:1025C0001F502626205027222150282200D0D890A4
:1025D0001E321D321C32D8901F3620362136292E4D
:1025E000EDD700D0090E296E00D01CA007D01F50D7
:1025F0002626205027222150282200D0D8901E3293
:102600001D321C32D890283227322632292EEDD79F
:1026100000D026C001F027C002F028C003F025C07A
:1026200004F02AC005F001EC14F001C01CF002C057
:102630001DF003C01EF000D012003CC03EF03F6A07
:10264000406A3B343E3601E33F803E50486E48507E
:10265000D8A402D039D063D0170E3E6E3AC03FF0F6
:102660003BC040F03CC041F03E28426E04D0D890C0
:10267000413240323F32422EFAD73F50436E3B8EBA
:10268000FF0E3A16FF0E3B16000E3C163A50446EF3
:102690003B50456E3C50466E476A8E0E485E48AED3
:1026A00010D04850800A8F0FD8B003D00DD037D04B
:1026B00000D0D8904732463245324432483EF9D7AE
:1026C00019D0170E486411D0000E3A6E000E3B6E02
:1026D000000E3C6E000E3D6E22D007D0D8904436DE
:1026E000453646364736480600D04850D8B402D062
:1026F000F5D700D04350D8B409D0471E461E451E1A
:10270000446C000E45224622472200D044C03AF0D5
:1027100045C03BF046C03CF047C03DF000D0120041
:102720002DC031F0326A336A2C34313601E3328005
:102730003150386E3850D8A402D00ED061D030C09D
:1027400031F0326A336A2F34313601E3328031504E
:10275000396E3950D8A407D0000E2B6E000E2C6EA7
:10276000000E2D6E4DD0000E356E000E366E000E32
:10277000376E3950890F385E2DC039F03050391A14
:10278000800E39162C8EFF0E2B16FF0E2C16000E07
:102790002D162F8EFF0E2E16FF0E2F16000E301642
:1027A000180E346E00D0D8903536363637362E5067
:1027B0002B5C2F502C5830502D58D8A007D02E50BD
:1027C0002B5E2F502C5A30502D5A3580D8902B36F6
:1027D0002C362D36342EE7D700D035C001F036C068
:1027E00002F037C003F038C004F039C005F001EC46
:1027F00014F001C02BF002C02CF003C02DF000D06B
:1028000012000450D8B405D0015002100310D8A40F
:102810000ED0000E016E000E026E000E036E53D03D
:1028200006D0042AD89003320232013200D0000EC2
:102830000114066E000E0214076EFE0E0314086EDD
:10284000065007100810D8B40ED0EBD70CD0042ACD
:10285000010E0126000E0222000E0322D890033240
:102860000232013200D0000E0114066E000E021476
:10287000076EFF0E0314086E065007100810D8B438
:1028800008D0E5D706D00406D890013602360336C4
:1028900000D002BE04D0020E0460F5D700D004B010
:1028A00002D0029E00D0D89004320450031205508A
:1028B000D8B402D0038E00D001C001F002C002F0F3
:1028C00003C003F000D01200000E546E52AE07D0C9
:1028D000516C521ED8B0522A010E546E00D050AE28
:1028E00007D04F6C501ED8B0502A010E541A00D099
:1028F000000E566E000E556E51505210D8B421D0B5
:10290000010E536E05D0D89051365236532A00D05E
:1029100052BE02D0F8D700D0D89055365636515016
:102920004F5C52505058D8A006D051504F5E525074
:10293000505A558000D0D89052325132532EECD795
:1029400000D05450D8B405D0556C561ED8B0562A75
:1029500000D055C04FF056C050F000D0120003AE6A
:1029600017D001C007F002C008F003C009F0071E2D
:10297000081E091E072A000E08220922000E07243D
:10298000016E000E0820026E800E0920036E00D03A
:1029900006AE17D004C007F005C008F006C009F065
:1029A000071E081E091E072A000E08220922000E13
:1029B0000724046E000E0820056E800E0920066EA6
:1029C00000D0000E011A000E021A800E031A000E2B
:1029D000041A000E051A800E061A0450015C0550F8
:1029E000025806500358D8B002D0D89002D0D880F0
:1029F00000D01200000E096E000E0A6E000E0B6E63
:102A0000000E0C6E0550061007100810D8B42FD019
:102A1000010E0D6E07D0D8900536063607360836FB
:102A20000D2A00D008BE02D0F6D700D0D8900936C3
:102A30000A360B360C360550015C0650025807501A
:102A4000035808500458D8A00AD00550015E06501B
:102A5000025A0750035A0850045A098000D0D890EF
:102A600008320732063205320D2EE0D700D009C0F9
:102A700001F00AC002F00BC003F00CC004F0120019
:102A8000000E4E6E4AAE07D0496C4A1ED8B04A2A94
:102A9000010E4E6E00D04CAE05D04B6C4C1ED8B023
:102AA0004C2A00D04B504C10D8B41DD0010E4D6EA6
:102AB00005D0D8904B364C364D2A00D04CBE02D0B3
:102AC000F8D700D04B50495C4C504A58D8A005D09C
:102AD0004B50495E4C504A5A00D0D8904C324B3241
:102AE0004D2EF0D700D04E50D8B405D0496C4A1EB8
:102AF000D8B04A2A00D049C049F04AC04AF000D0B4
:102B000012000550061007100810D8B429D0010E85
:102B1000096E07D0D8900536063607360836092ADA
:102B200000D008BE02D0F6D700D00550015C065098
:102B300002580750035808500458D8A009D005502F
:102B4000015E0650025A0750035A0850045A00D03A
:102B5000D8900832073206320532092EE6D700D067
:102B600001C001F002C002F003C003F004C004F091
:102B70001200036E000EAC6E000EAB6E03A002D00E
:102B8000AC8800D003A203D0AC8CAB8C00D003A4E3
:102B900002D0AC8E00D003A602D0AB8802D0AB8AA4
:102BA00000D003B8AC849E9803AA02D0AB8600D0B4
:102BB00003AC02D09D8A01D09D9A9E9A03AE02D0AA
:102BC0009D8801D09D9801C0AFFF0250B06EAC8AC5
:102BD000AB8E949C948EACB8ACBE02D0948C00D0DA
:102BE00012008E0E116E07D0D8900C320B320A32C2
:102BF0000932112A00D0000E09140D6E000E0A14BD
:102C00000E6E000E0B140F6EFF0E0C14106E0D5096
:102C10000E100F101010D8A4E7D709C001F00AC099
:102C200002F00BC003F011C004F0000E056E01ECC1
:102C300014F001C009F002C00AF003C00BF000D08C
:102C40001200000E2E6E200E2F6E410E306E49C007
:102C50002BF04AC02CF04BC02DF090EC13F02BC0A1
:102C60003AF02CC03BF02DC03CF01DEC13F03AC004
:102C70004CF03BC04DF04DBE0BD04DBE06D04D507C
:102C800007E1070E4C5CD8B003D04CC084FF03D0E2
:102C9000070E846E00D012001F5020102110D8B4EF
:102CA00007D0000E1F1A000E201A800E211A00D025
:102CB0001CC010F01DC011F01EC012F01FC013F098
:102CC00020C014F021C015F032EC10F010C01CF040
:102CD00011C01DF012C01EF000D01200000E0C6ECC
:102CE0000AAE07D0096C0A1ED8B00A2A010E0C6E73
:102CF00000D009C001F00AC002F0036A8E0E046E13
:102D00000CC005F001EC14F001C009F002C00AF09B
:102D100003C00BF000D0120057505902F3CF5BF004
:102D2000F4CF5CF057505A02F3505C2658505902C9
:102D3000F3505C265BC057F05CC058F000D0120026
:102D4000C28200D0C2B2FED7C450046E036AC35020
:102D50000324056E000E0420066E05C001F006C0B7
:102D600002F000D012000D500E100F10D8B406D093
:102D7000000E0D1A000E0E1A800E0F1A0DC00DF067
:102D80000EC00EF00FC00FF01200000E026E000E0B
:102D9000016E02BE08D0680E015C420E0258D8B027
:102DA00005D001D003D0014A022AF3D71200000E49
:102DB000026E190E016E3C0EB9EC15F0600ED36E6A
:102DC00012009268000E936E000E946E000E956EC7
:102DD000000E966E1200F90ECB6E050ECA6E4A0EEC
:102DE000BB6E3C0EBA6E1200016E00D0ACA2FED7D4
:102DF00001C0ADFF1200010EC26E1A0EC16EA90E07
:102E0000C06E1200016E0150040DF328C26E120054
:102E1000000EF86E0001A3EF0DF082848286828896
:102E200012008284829682981200829482968298FE
:102E300012008294828682981200829482968288FE
:0A2E40001200000EBA6E829212001A
:020000040020DA
:08000000FFFFFFFFFFFFFFFF00
:020000040030CA
:0E000000FF08191EFF8381FF0FC00FE00F40A5
:00000001FF
