:040000000CEF00F011
:10000800FACF03F0FBCF04F0E9CF05F02CED0CF0AC
:10001800EBEF0BF09AEC10F0700ED36EF19E010E20
:10002800936E000E946E000E956E0F0EC16E000E4C
:10003800926E000E966E000E806E000E816E000E9F
:10004800826EB0EC0AF09480000EB36E000EB26EB1
:10005800030EB16EA00E116E860E126E010E136E97
:10006800000E146E0AEC11F038EC10F06FEC10F082
:1000780083828388675055EC0AF0000E0001D26F26
:10008800000ED36F000ED46F000ED56F00D00EECAB
:100098000DF05C506918D8B45BD05CC069F067ECAF
:1000A8000FF014500101B26F0101B251090DF3CFE5
:1000B80011F0F4CF12F0000E146E050E136E5CEC06
:1000C8000BF01150200F0101B16FADEC0EF019C00B
:1000D80048F01AC049F067C019F01A6AEBEC0EF044
:1000E80048C019F049C01AF0CCEC0EF07B0E1D6E1A
:1000F800FF0E1E6E58C01FF0206A59C021F0226AF8
:100108005CC023F0246A5AC025F0266A56C027F03E
:10011800286A66C029F02A6AFAEC01F0500E1D6EB2
:10012800FF0E1E6EB2C11FF0206AB1C121F0226A13
:10013800FAEC01F0C20E1D6EFF0E1E6E48C01FF0D5
:1001480049C020F067C021F0226AFAEC01F000D023
:1001580044044510D8A49BD7000E456E000E446E8B
:100168002EEC11F0AF0E1D6EFF0E1E6E4DC01FF06F
:10017800206AFAEC01F00101B669000E0101B46FC2
:10018800000EB36F0101B4BF0AD00101B4511BE1E5
:10019800150E0101B35DD8B016D001D014D0AA0E47
:1001A8000101B325D96E000E0101B421DA6E4D505C
:1001B800DE18D8A403D0B3C1B6F100D00101B34B07
:1001C800B42BE0D700D00101B629D8B460D7990E76
:1001D8001D6EFF0E1E6EB6C11FF0206AFAEC01F00C
:1001E800000E3C6E3C0E3B6E000E3E6E500E3D6E99
:1001F800000E406E140E3F6E0101B651020D800EC6
:10020800F324D96E000EF420DA6EDECF41F0DDCF94
:1002180042F0C5EC0DF0000E1D6E3C0E1C6E000E7B
:100228001F6E500E1E6E000E216E140E206EFF0EF5
:10023800236E226880EC04F04D0E396E0101B65130
:10024800040D540EF3243A6E010EF4203B6EFF0E9B
:100258003D6E3C68000E3F6E000E3E6E010E406E15
:10026800340E26EC07F0000E806E000E816E010140
:10027800B651020D2A0EF324D96E010EF420DA6E5F
:10028800DF500101A86F82500101A819FE0BA819BF
:10029800826E030E0101B66102D0000E0BD0020E71
:1002A8000101B66506D0090E0101B66102D0010E42
:1002B80001D0020E0101B56F00D00101B551020D48
:1002C800BF0EF324D96E000EF420DA6EDECFA8F14B
:1002D800DDCFA9F1A8C1D9FFA9C1DAFF0101B55144
:1002E800010DC50EF324E16E000EF420E26EE75016
:1002F8000101AA6F0101B651020D000EF324E16E4F
:10030800010EF420E26EE7500101AB6F070E010108
:10031800AB170101AA2B03D00101D890AB3701011B
:10032800AA2FFAD70101B551020DBF0EF324E16ED1
:10033800000EF420E26EE6CFACF1E5CFADF1ACC132
:10034800E1FFADC1E2FFE7500101AE6F0101B55118
:10035800010DC50EF324E16E000EF420E26EE750A5
:100368000101AF6F070E0101B06F0101AF2B03D080
:100378000101D890B0370101AF2FFAD70101B05170
:10038800FF0A0101AE150101AB11DF6E838EB6ECD9
:1003980010F00FEC11F01EEC11F0839E080E010115
:1003A800B619D8A409D06EEC0DF0E60E1D6EFF0E3E
:1003B8001E6EFAEC01F06BD6050E0101B619D8A431
:1003C80003D086EC10F063D6060E0101B619D8A446
:1003D80003D005EC10F05BD6070E0101B619D8A4BE
:1003E80056D6DFEC0FF053D60CEF00F01F0E306E30
:1003F800000E316E99D1250E3818D8B404D0385073
:10040800F2EC10F091D1000E376E000E366E000E31
:10041800356E05D035841D4A1E2A01D00BD01DC06B
:10042800F6FF1EC0F7FF0800F550300AD8B4F2D71F
:1004380001D0F5D71DC0F6FF1EC0F7FF0800F55024
:1004480017EC10F0D8A03BD0000E376E000E366EB9
:1004580000D036C011F037C012F0000E146E0A0E2C
:10046800136ECBEC0FF011C036F012C037F0D00E7F
:100478002B6EFF0E2C6E1DC0F6FF1EC0F7FF080086
:10048800F5502D6E2E6A2B502D262C502E222D50D5
:1004980036262E5037221D4A1E2A1DC0F6FF1EC0C2
:1004A800F7FF0800F55017EC10F0D8A008D0D1D706
:1004B80006D048D11BD0358E19D036D117D01DC0E3
:1004C800F6FF1EC0F7FF1D4A1E2A0800F5CF38F0B8
:1004D8003850000AD8B436D1640AD8B407D00D0A07
:1004E800D8B404D0110AD8B4E6D71ED135BE15D079
:1004F80030C0D9FF31C0DAFFDECF33F0DDCF34F0C2
:10050800020E3026000E312234AE4ED0030E3512C4
:10051800336C341ED8B0342A47D030C0D9FF31C02C
:10052800DAFFDECF33F0DDCF34F0020E3026000ED6
:1005380031223AD0010E386E050E3818D8B43DD0A5
:1005480001D03BD03850020D360EF324F66EFF0E64
:10055800F420F76E0900F550335C0900F550345863
:10056800D8A02BD001D029D0382AE6D726D0010E22
:10057800386E040E3818D8B420D001D01ED03850A8
:10058800020D480EF324F66EFF0EF420F76E0900F4
:10059800F550335C0900F5503458D8A00ED001D07E
:1005A8000CD0382AE6D709D03550800B000AD8B4C9
:1005B800C1D7800AD8B4DBD700D036503710D8B4AA
:1005C8000AD035C02BF0030E2B16D8B404D036064B
:1005D800D8A0370600D0800E38BE7F0E2B6E36505E
:1005E800385C3750800A2B58D8B007D03850365E60
:1005F800000E38BEFF0E375A05D0000E376E000EBB
:10060800366E00D035A41AD035C02BF0030E2B1649
:10061800D8B404D02D0EF2EC10F000D036503710BC
:10062800D8B426D0300EF2EC10F03606D8A0370633
:1006380036503710D8B41CD0F5D71AD036503710EA
:10064800D8B40CD0200EF2EC10F03606D8A037063D
:1006580036503710D8B402D0F5D700D035C02BF0BB
:10066800030E2B16D8B404D02D0EF2EC10F000D0E7
:1006780038C032F053D045D03250020D360EF32434
:10068800F66EFF0EF420F76E0900F5CF13F00A009E
:10069800F5CF14F033C011F034C012F040EC0DF077
:1006A80011C018F012C019F0000E1B6E0A0E1A6E57
:1006B8003EEC0EF01850300F386E2CD033C011F0CD
:1006C80034C012F03250020D480EF324F66EFF0EBD
:1006D800F420F76E0900F5CF13F00A00F5CF14F0F7
:1006E80040EC0DF011500F0B2F6E2F50010DD50E51
:1006F800F324F66EFF0EF420F76E0800F5CF38F0FD
:1007080009D03550800B000AD8B4B6D7800AD8B4BF
:10071800D5D700D03850F2EC10F000D0320632288D
:10072800D8B402D0EED700D01DC0F6FF1EC0F7FF28
:100738001D4A1E2A0800F5CF38F03850D8B402D028
:100748005AD600D01200F2924E50D8B4C3D0CE5030
:10075800CFCF01F0026A01C002F0016A0110466EB3
:100768000250476E000ECF6E000ECE6EB3D0000E54
:10077800CF6E000ECE6E9E90900ECD6ECD80000E88
:10078800546E000E0001D26F000ED36F000ED46FAE
:10079800000ED56F010E4E6E4E506814016E6850F3
:1007A800FF0A84140110846E93D0A5D0340E465CE1
:1007B800210E4758D8A009D01D0E465C250E475873
:1007C800D8B003D0020E4E6E27D02AEC11F030D0EC
:1007D8002FD091D0A00E465C0F0E4758D8A009D054
:1007E800890E465C130E4758D8B003D0030E4E6EE0
:1007F80063D02AEC11F06CD06BD07DD0900E465CA3
:10080800010E4758D8A011D0BD0E465C020E4758BD
:10081800D8B00BD0040ED7D74E506814016E68506C
:10082800FF0A84140110846E03D02AEC11F000D062
:10083800F19C61D0900E465C010E4758D8A045D077
:10084800090E465C070E4758D8B03FD0D890000133
:10085800D2350001D26F0001D3350001D36F0001FA
:10086800D4350001D46F0001D5350001D56FE90EEC
:10087800465C030E4758D8A008D0010E0001D227C5
:10088800000ED323D423D52300D0542A1F0E54643A
:10089800ADD7D3C04DF0000E4E6E4E506814016EA9
:1008A8006850FF0A84140110846E000E456E010E14
:1008B800446EF2980DD09AD74E506814016E685065
:1008C800FF0A84140110846E03D02AEC11F000D0C2
:1008D800F18C11D04E50000AD8B449D7010AD8B4C7
:1008E80065D7030AD8B476D7010AD8B487D7070AD8
:1008F800D8B4A0D700D0120020C024F021C025F021
:10090800241E251E244A252A010E24242A6E000EA0
:1009180025202B6E000E276E010E266E20C024F0B7
:1009280021C025F0D89024362536241E251E244AB9
:10093800252A24C028F025C029F0000E2D6E000EAF
:100948002C6E20C02EF021C02FF01E502024186ECF
:1009580022C019F023C01AF01C509EEC0FF0205052
:1009680000081E24186E22C019F023C01AF01C506B
:100978009EEC0FF01EC018F022C019F023C01AF028
:100988001C5020249EEC0FF01EC018F022C019F055
:1009980023C01AF0205000081C249EEC0FF078D0D9
:1009A8002BBE0BD02E06D8A02F06020E2826000E2E
:1009B800292228502A2629502B222C4A2D2A020E79
:1009C8002626000E272226502A2627502B221E5084
:1009D8002E24186E22C019F023C01AF01C502C24A3
:1009E8009EEC0FF01E502E24186E22C019F023C062
:1009F8001AF02C5000081C249EEC0FF02E50000812
:100A08001E24186E22C019F023C01AF01C502C2482
:100A18009EEC0FF02E5000081E24186E22C019F00C
:100A280023C01AF02C5000081C249EEC0FF01E5016
:100A38002C24186E22C019F023C01AF01C502E2442
:100A48009EEC0FF01E502C24186E22C019F023C003
:100A58001AF02E5000081C249EEC0FF02C500008B1
:100A68001E24186E22C019F023C01AF01C502E2420
:100A78009EEC0FF02C5000081E24186E22C019F0AE
:100A880023C01AF02E5000081C249EEC0FF000D052
:100A98002E502C5C2D50800A246E2F50800A24582A
:100AA800D8A07ED71200366E800E3660A6D09F0E74
:100AB8002E6401D0A2D03450D8A403D0010E346ED5
:100AC80000D01F0E2F6404D07E0E2F6403D000D0F8
:100AD8003F0E2F6E000E386E040E386401D08DD094
:100AE800530E2F6015D0E00E2F24116E126AFF0EE0
:100AF8001222000E146E050E136ECBEC0FF0385058
:100B08001126000E12225B0E1124F66EFD0E14D073
:100B1800AD0E2F24116E126AFF0E1222000E146EF3
:100B2800050E136ECBEC0FF038501126000E122272
:100B38005A0E1124F66EFE0E1220F76E0800F5CF3D
:100B480035F000D0000E376E060E376401D053D052
:100B580035A023D03404D8A40CD02E503724186ED6
:100B680030C019F031C01AF0365038249EEC0FF01E
:100B78003ED037503402F3502E24236E34C024F074
:100B880034C025F030C026F031C027F03850340288
:100B9800F350362464EC0EF02AD03050321804E1B9
:100BA80031503318D8B423D03404D8A40CD02E50E4
:100BB8003724186E32C019F033C01AF03650382472
:100BC8009EEC0FF014D037503402F3502E24236ECD
:100BD80034C024F034C025F032C026F033C027F0EA
:100BE80038503402F350362464EC0EF000D0372A23
:100BF800D8903532A9D7382A6FD7120027C02FF0DE
:100C080028C030F02F1E301E2F4A302A010E2F2404
:100C1800356E000E3020366E000E326E010E316ECB
:100C280027C02FF028C030F0D8902F3630362F1E2E
:100C3800301E2F4A302A2FC033F030C034F0000E57
:100C4800386E000E376E27C039F028C03AF067D0EA
:100C580036BE0BD03906D8A03A06020E3326000E4F
:100C680034223350352634503622374A382A020E79
:100C78003126000E3222315035263250362229A034
:100C880025D0395000082524186E395039242B24D2
:100C98002F6E2F28196E2DC01AF02EC01BF023506E
:100CA8003724A7EC0BF0375000082524186E37506E
:100CB80037242B242F6E2F28196E2DC01AF02EC022
:100CC8001BF023503924A7EC0BF000D029A227D021
:100CD800395000082524186E395039242B242F6EDA
:100CE8002F28196E2DC01AF02EC01BF0375000089F
:100CF8002324A7EC0BF0375000082524186E375032
:100D080037242B242F6E2F28196E2DC01AF02EC0D1
:100D18001BF0395000082324A7EC0BF000D0395001
:100D2800375C3850800A2F6E3A50800A2F58D8A066
:100D38008FD71200010EEAEC10F0000E186E960E16
:100D4800176EEEEC0DF0110EEAEC10F0010E186EB5
:100D5800F40E176EEEEC0DF0B10EEAEC10F0010E89
:100D6800E2EC10F02C0EE2EC10F02D0EE2EC10F09C
:100D7800B20EEAEC10F0010EE2EC10F02C0EE2ECF0
:100D880010F02D0EE2EC10F0B30EEAEC10F0010EAC
:100D9800E2EC10F02C0EE2EC10F02D0EE2EC10F06C
:100DA800010EE2EC10F02C0EE2EC10F02D0EE2EC4D
:100DB80010F0B40EEAEC10F0070EE2EC10F0C00EE2
:100DC800EAEC10F0A20EE2EC10F0020EE2EC10F0E9
:100DD800840EE2EC10F0C10EEAEC10F0C50EE2EC65
:100DE80010F0C20EEAEC10F00A0EE2EC10F0000E61
:100DF800E2EC10F0C30EEAEC10F08A0EE2EC10F010
:100E08002A0EE2EC10F0C40EEAEC10F08A0EE2ECC6
:100E180010F0EE0EE2EC10F0C50EEAEC10F00E0E3B
:100E2800E2EC10F0200EEAEC10F0360EEAEC10F0CE
:100E3800C80EE2EC10F03A0EEAEC10F0050EE2EC07
:100E480010F012000001F76FF7C0FDF039C0FCF098
:100E58003AC011F03BC012F00AEC0FF011C0F8F0E4
:100E680012C0F9F0000E0001FB6F000EFA6F64D09B
:100E78006A50D8B434D04050050D0001FD51416E80
:100E8800426AF3504126F450422242BE28D04250D2
:100E980004E1810E415CD8A022D0000E0001FD6F54
:100EA8004050070DF3500001FC25030F0001FC6FB3
:100EB800A00E0001FC6504D0A00E0001FC6F00D05C
:100EC8000001FA513A24D96E0001FB513B20DA6E39
:100ED800200EDE18D8B42CD002D02AD000D0FCC006
:100EE8002EF00001FA513A24D96E0001FB513B2043
:100EF800DA6EDF502F6E3CC030F03DC031F03EC09E
:100F080032F03FC033F040C034F00001FD5157ECDF
:100F180005F04050060DF3500001FD250001FD6F5E
:100F2800800E0001FD6504D0800E0001FD6F00D029
:100F38000001FA4BFB2B00D00001F8510001FA5DCB
:100F48000001F9510001FB59D8A092D712001FC027
:100F580023F0246A256A1E34233601E324802350B3
:100F6800266E2650D8A402D00ED06CD022C023F012
:100F7800246A256A2134233601E3248023502B6E0A
:100F88002B50D8A407D0000E1D6E000E1E6E000E4A
:100F98001F6E58D02B507B0F26261FC02BF02250D7
:100FA8002B1A800E2B161E8E218EFF0E2016FF0E7A
:100FB8002116000E2216000E276E000E286E000E57
:100FC800296E070E2A6E00D01DA007D020502726B4
:100FD800215028222250292200D0D8901F321E32B8
:100FE8001D32D8902036213622362A2EEDD700D051
:100FF800090E2A6E00D01DA007D0205027262150A8
:1010080028222250292200D0D8901F321E321D32A9
:10101800D8902932283227322A2EEDD700D027C07F
:1010280011F028C012F029C013F026C014F02BC00C
:1010380015F0F2EC09F011C01DF012C01EF013C03B
:101048001FF000D01200E00EEAEC10F0020EE2EC05
:1010580010F01C0EE2EC10F0070EE2EC10F0120E8D
:10106800E2EC10F0370EE2EC10F0320EE2EC10F089
:10107800290EE2EC10F02D0EE2EC10F0290EE2EC55
:1010880010F0250EE2EC10F02B0EE2EC10F0390E09
:10109800E2EC10F0000EE2EC10F0010EE2EC10F0C1
:1010A800030EE2EC10F0100EE2EC10F0E10EEAECA8
:1010B80010F0030EE2EC10F01D0EE2EC10F0070E3B
:1010C800E2EC10F0060EE2EC10F02E0EE2EC10F05E
:1010D8002C0EE2EC10F0290EE2EC10F02D0EE2ECF2
:1010E80010F02E0EE2EC10F02E0EE2EC10F0370E9F
:1010F800E2EC10F03F0EE2EC10F0000EE2EC10F023
:10110800000EE2EC10F0020EE2EC10F0100EE2EC31
:1011180010F0130EEAEC10F0000E186E0A0E176E9F
:10112800EEEC0DF0290EEAEC10F0000E186E640ECD
:10113800176EEEEC0DF0120013C015F0166A176A60
:101148001234153601E3168015501F6E1F50D8A4AF
:1011580002D039D063D0170E156E11C016F012C028
:1011680017F013C018F01528196E04D0D89018324B
:1011780017321632192EFAD716501A6E128EFF0E23
:101188001116FF0E1216000E131611501B6E125078
:101198001C6E13501D6E1E6A8E0E1F5E1FAE10D081
:1011A8001F50800A8F0FD8B003D00DD037D000D091
:1011B800D8901E321D321C321B321F3EF9D719D06F
:1011C800170E1F6411D0000E116E000E126E000E65
:1011D800136E000E146E22D007D0D8901B361C3622
:1011E8001D361E361F0600D01F50D8B402D0F5D7C2
:1011F80000D01A50D8B409D01E1E1D1E1C1E1B6C10
:10120800000E1C221D221E2200D01BC011F01CC083
:1012180012F01DC013F01EC014F000D012002EC032
:1012280032F0336A346A2D34323601E33380325077
:10123800396E3950D8A402D00ED061D031C032F006
:10124800336A346A3034323601E3338032503A6ECE
:101258003A50D8A407D0000E2C6E000E2D6E000E4A
:101268002E6E4DD0000E366E000E376E000E386EA4
:101278003A50890F395E2EC03AF031503A1A800E32
:101288003A162D8EFF0E2C16FF0E2D16000E2E165A
:10129800308EFF0E2F16FF0E3016000E3116180E68
:1012A800356E00D0D8903636373638362F502C5C0D
:1012B80030502D5831502E58D8A007D02F502C5EC2
:1012C80030502D5A31502E5A3680D8902C362D3623
:1012D8002E36352EE7D700D036C011F037C012F0C1
:1012E80038C013F039C014F03AC015F0F2EC09F028
:1012F80011C02CF012C02DF013C02EF000D0120037
:10130800236E800E236069D09F0E186401D065D0CB
:10131800FF0E1D6EFF0E1E6E195023C01FF0206AAF
:101328001F26000E20221D501F261E50202220BEE0
:101338000AD0205004E1800E1F5CD8A004D02350AE
:101348000008800F196EFF0E1D6EFF0E1E6E1A50DC
:1013580018C01FF0206A1F26000E20221D501F26CD
:101368001E50202220BE0BD0205004E1A00E1F5C8E
:10137800D8A005D018500008A00F1A6E00D018C0C9
:1013880014F0235019241D6E1D04156E18501A24CC
:101398001E6E1E04166E235017EC0EF01C50216EA4
:1013A8001BC022F0838083941AC018F01850D8B458
:1013B80013D001D011D019C023F02350D8B40AD0CB
:1013C80001D008D0215090EC10F0225090EC10F091
:1013D8002306F3D71806EAD7838412001450D8B42A
:1013E80005D0115012101310D8A40ED0000E116E93
:1013F800000E126E000E136E53D006D0142AD89029
:1014080013321232113200D0000E1114166E000E73
:101418001214176EFE0E1314186E165017101810AB
:10142800D8B40ED0EBD70CD0142A010E1126000E1A
:101438001222000E1322D89013321232113200D029
:10144800000E1114166E000E1214176EFF0E1314F0
:10145800186E165017101810D8B408D0E5D706D053
:101468001406D89011361236133600D012BE04D0A6
:10147800020E1460F5D700D014B002D0129E00D02E
:10148800D8901432145013121550D8B402D0138EB9
:1014980000D011C011F012C012F013C013F000D028
:1014A8001200416E040ECB6E070ECA6E000E206E3F
:1014B800800E216E400E226E4150F2EC0FF019C0E2
:1014C8001DF01AC01EF01BC01FF0ABEC07F01DC0CA
:1014D8002CF01EC02DF01FC02EF0000E2F6EA00E97
:1014E800306E410E316E13EC09F02CC03EF02DC069
:1014F8003FF02EC040F03EC011F03FC012F040C097
:1015080013F0A0EC08F011C042F012C043F04150B3
:101518003B6E3C6A42503B5C3C50800A3D6E4350F7
:10152800800A3D58D8B003D0424A432A00D042C06E
:101538003BF0030E3B163B38F00B0C09BD6E42C066
:101548003BF043C03CF03C343C323B323C343C3210
:101558003B323B50BE6E1200A4EC10F0B6EC0FF01C
:10156800000E256E000E246E47EC10F0D80E4A6E61
:10157800000E4B6E4AC011F04BC012F0F70E136EFE
:10158800FF0E146E85EC0FF0020E396E4AC03AF069
:101598004BC03BF0FF0E3D6E3C68000E3F6E000EE8
:1015A8003E6E010E406E320E26EC07F005D0530E4B
:1015B8000001C86F500E04D0460E0001C86F410EDE
:1015C8000001C96F320E0001CA6F350E0001CB6FE2
:1015D800310E0001CD6F300E0001CF6F340E0001C7
:1015E800D06F960E396EC80E3A6E000E3B6EFF0E27
:1015F8003D6E3C68000E3F6E000E3E6E010E406E62
:10160800010E26EC07F0120001000100010006009F
:101618000600020004000400050007000700070098
:10162800070007000700070007000700070007007A
:10163800070000000000000000000000000000009B
:10164800000000000100000000000100010001008E
:1016580001000100010001000100010043482D00C4
:101668002043480043482B00505256004E5854001F
:1016780050415500564C2D00564C2B00204551002A
:10168800203020003130300032303000203120004E
:101698002032200020332000203420002035200074
:1016A8002036200020372000203820002039200054
:1016B800000E166E14AE07D0136C141ED8B0142A80
:1016C800010E166E00D012AE07D0116C121ED8B0E3
:1016D800122A010E161A00D0000E186E000E176E90
:1016E80013501410D8B421D0010E156E05D0D8901F
:1016F80013361436152A00D014BE02D0F8D700D0FD
:10170800D890173618361350115C14501258D8A0B8
:1017180006D01350115E1450125A178000D0D8907A
:1017280014321332152EECD700D01650D8B405D089
:10173800176C181ED8B0182A00D017C011F018C09E
:1017480012F000D01200226E800E22603FD09F0E51
:10175800186401D03BD0FF0E1C6EFF0E1D6E195091
:1017680018C01EF01F6A1E26000E1F221C501E26BF
:101778001D501F221FBE0BD01F5004E1A00E1E5C7F
:10178800D8A005D018500008A00F196E00D01B5023
:10179800206E1AC021F018C014F022C015F018509D
:1017A80019241C6E1C04166E225017EC0EF0838050
:1017B800839407D0205090EC10F0215090EC10F05A
:1017C80000D019061928D8A4F5D78384120000EE92
:1017D800D2F0250EEE6AE806FDE100EE44F0230E95
:1017E800EE6AE806FDE1100EF66E160EF76E000EB4
:1017F800F86E01EE00F010EEA8F00900F5CFEEFF4C
:10180800E550E150FAE1380EF66E1B0EF76E000E49
:10181800F86E00EE80F010EE52F00900F5CFEEFF02
:10182800E550E150FAE1620EF66E220EF76E000EF8
:10183800F86E00EE67F010EE04F00900F5CFEEFF49
:10184800E550E150FAE1000EF86E00010EEF00F0ED
:101858000600EACF06F0E1CF07F0E2CF08F0D9CFD3
:1018680009F0DACF0AF0F3CF0BF0F4CF0CF0F6CF93
:101878000DF0F7CF0EF0F8CF0FF0F5CF10F09EA0D7
:1018880003D0FFEC10F000D0F2A203D0A7EC03F0D5
:1018980000D010C0F5FF0FC0F8FF0EC0F7FF0DC055
:1018A800F6FF0CC0F4FF0BC0F3FF0AC0DAFF09C053
:1018B800D9FF08C0E2FF07C0E1FF06C0EAFF05C084
:1018C800E9FF04C0FBFF03C0FAFF1100136E000E0E
:1018D800AC6E000EAB6E13A002D0AC8800D013A281
:1018E80003D0AC8CAB8C00D013A402D0AC8E00D04B
:1018F80013A602D0AB8802D0AB8A00D013B8AC8450
:101908009E9813AA02D0AB8600D013AC02D09D8A51
:1019180001D09D9A9E9A13AE02D09D8801D09D98C1
:1019280011C0AFFF1250B06EAC8AAB8E949C948EEF
:10193800ACB8ACBE02D0948C00D01200116E19D095
:10194800899001D08980899202D0899003D08994A6
:101958002AD089808982FBD7899001D08980899291
:1019680002D0899003D089841ED089808982FBD7D0
:101978001AD01150000AD8B4E3D7010AD8B4E2D774
:10198800030AD8B4E2D7010AD8B4E3D7070AD8B40F
:10199800E3D7010AD8B4E2D7030AD8B4E2D7010AD8
:1019A800D8B4E3D700D01200116E19D08A9601D0AE
:1019B8008A868A9802D08A9603D08A9A2AD08A86FA
:1019C8008A88FBD78A9601D08A868A9802D08A9616
:1019D80003D08A8A1ED08A868A88FBD71AD01150EB
:1019E800000AD8B4E3D7010AD8B4E2D7030AD8B4B6
:1019F800E2D7010AD8B4E3D7070AD8B4E3D7010A73
:101A0800D8B4E2D7030AD8B4E2D7010AD8B4E3D7E6
:101A180000D01200680E156E000E146ED1EC10F096
:101A28001550152448EC0FF0145048EC0FF07BECDF
:101A380010F0D880153448EC0FF0010E89EC0EF048
:101A48005C6E010E89EC0EF0596E010E89EC0EF0F9
:101A5800586E010E89EC0EF0576E010E89EC0EF0EF
:101A6800566E010E89EC0EF05A6E000E89EC0EF0DF
:101A7800666EC8EC10F01200000E176E000E166E9F
:101A880013501410D8B421D0010E156E05D0D8907B
:101A980013361436152A00D014BE02D0F8D700D059
:101AA800D890163617361350115C14501258D8A017
:101AB80006D01350115E1450125A168000D0D890D8
:101AC80014321332152EECD700D016C011F017C0FF
:101AD80012F01200680E136E000E146E000E5C6E8B
:101AE800000E596E000E586E040E566E110E5A6E88
:101AF800250E666ED1EC10F01350132448EC0FF04D
:101B0800145048EC0FF05C5048EC0FF0595048EC7A
:101B18000FF0585048EC0FF0565048EC0FF05A5060
:101B280048EC0FF0665048EC0FF0C8EC10F01200CB
:101B380000F800F800F8FF07FF07E0071F001F0084
:101B48001FF8000000000000000000000000000076
:101B580000000000000000000000A262E22202C2B1
:101B6800E0A8906898B030187A10385A424A5281E2
:101B78000F800F800F030003535032342F312F3062
:101B880031003F5000083D24186ED8803F34196E4C
:101B980041C01AF042C01BF03B50A7EC0BF03BC011
:101BA80023F03CC024F03DC025F03EC026F03FC0E5
:101BB80027F040C028F0000E2A6E030E296E000E92
:101BC8002C6E000E2B6E41C02DF042C02EF002ECA0
:101BD80006F0120017C011F018C012F0000E146EB3
:101BE800FA0E136ECBEC0FF011C01BF012C01CF0F4
:101BF8001BC019F01CC01AF0191E1A1E194A1A2AFD
:101C0800FF0E19241B6EFF0E1A201C6EB80EB16E43
:101C18001BC0D6FF1C50D76EA192B18000D0A1A2E4
:101C2800FED7B1901200176E2A0EEAEC10F0000EE3
:101C3800E2EC10F017505524E2EC10F0000EE2EC44
:101C480010F015505524E2EC10F02B0EEAEC10F0D1
:101C5800000EE2EC10F014505B24E2EC10F0000EE1
:101C6800E2EC10F016505B24E2EC10F02C0EEAECDB
:101C780010F012001A501B10D8B41DD0010E1C6EA3
:101C880005D0D8901A361B361C2A00D01BBE02D0AD
:101C9800F8D700D01A50185C1B501958D8A005D096
:101CA8001A50185E1B50195A00D0D8901B321A329D
:101CB8001C2EF0D700D018C018F019C019F0120067
:101CC8002B6E2BC02CF02D6A0ED023C018F025C027
:101CD80019F026C01AF027C01BF02C50A7EC0BF007
:101CE8002C4A2D2A00D024502BC028F0296A2826F7
:101CF800000E292228502C5C2D50800A2A6E29506B
:101D0800800A2A58D8A0E1D71200116E26EC11F0EB
:101D1800000E126E070E126401D00FD0F9EC10F00D
:101D280082A803D0D880133604D013501324136E1E
:101D380000D022EC11F0122AEDD71150D8B403D0FC
:101D4800BFEC10F003D014EC11F000D0135000D009
:101D58001200B2CF11F0126A000E146E020E136E4A
:101D68005CEC0BF011C01BF012C01CF0000EB26E40
:101D78001BC011F01CC012F0000E146E3C0E136E46
:101D8800CBEC0FF011C019F012C01AF000D01200FD
:101D980019C011F01AC012F0010E146EF40E136E71
:101DA8005CEC0BF011501B6E070E1B6403D0070E82
:101DB8001B6E00D01B50010D400EF324F66EFF0E73
:101DC800F420F76E0800F550A2EC0CF0120019C0D0
:101DD80011F01AC012F0000E146E0A0E136E5CECAD
:101DE8000BF011501B6E070E1B6403D0070E1B6E01
:101DF80000D01B50010D400EF324F66EFF0EF420A8
:101E0800F76E0800F550D8EC0CF0120011C015F070
:101E180012C016F003D0154A162A00D015C0D9FFF3
:101E280016C0DAFFDF50D8A4F6D711C013F012C0DD
:101E380014F0131E141E134A142A15501324116E7D
:101E480016501420126E00D012002A0EEAEC10F080
:101E5800000EE2EC10F0000EE2EC10F0000EE2ECE6
:101E680010F07F0EE2EC10F02B0EEAEC10F0000EF2
:101E7800E2EC10F0000EE2EC10F0000EE2EC10F0D4
:101E88009F0EE2EC10F01200116E000E126E070E9B
:101E9800126401D011D011AE03D026EC11F003D09A
:101EA80019EC11F000D0F9EC10F022EC11F01150FF
:101EB8001124116E122AEBD726EC11F0F9EC10F070
:101EC80022EC11F01200480E186EAA0E166ED1EC14
:101ED80010F01850182448EC0FF0165048EC0FF08A
:101EE8007BEC10F0D880183448EC0FF0000E89EC29
:101EF8000EF0176EC8EC10F017C014F0156A00D079
:101F0800120011C015F012C016F005D0154A162A95
:101F1800134A142A00D013C0F6FF14C0F7FF15C0E7
:101F2800D9FF16C0DAFF0800F5CFDFFFDF50D8A4CD
:101F3800EDD712001B6E800E1B6013D09F0E186425
:101F480001D00FD018C014F01B28156E1828166E73
:101F58001B5017EC0EF01A50E2EC10F01950E2EC9E
:101F680010F0120083848390800EC76E300EC66E08
:101F78009EEC06F029EC0FF027EC08F0360EEAECA0
:101F880010F0C00EE2EC10F0010E4F6E120011506E
:101F98001302F3CF15F0F4CF16F011501402F350DA
:101FA800162612501302F350162615C011F016C04B
:101FB80012F000D01200640E6718D8A408D0ADEC57
:101FC80010F0ADEC10F0675055EC0AF006D0050E95
:101FD8006726675055EC0AF000D012001C6E1C50A2
:101FE800116E126A136A8E0E146E000E156EF2ECE4
:101FF80009F011C019F012C01AF013C01BF000D07C
:1020080012006750D8A408D0ADEC10F0ADEC10F079
:10201800675055EC0AF006D0050E675E675055EC20
:102028000AF000D01200136E000E126E3A0E136002
:1020380006D02F0E136403D0010E126E00D012C00A
:1020480011F0113000D01200156ED1EC10F01550BF
:10205800152448EC0FF0135048EC0FF0145048ECDE
:102068000FF0C8EC10F01200480E166EAC0E136E8E
:10207800020E146E165028EC10F0EE0E136E165069
:1020880062EC10F01200000E186E800E196EA00E91
:102098001A6E24C01BF025C01CF0000E84EC09F059
:1020A8001200030ED56EDB0ED66E0B0ED76EF294B1
:1020B800D58E00D0F2A4FED7D59E1200146ED1ECB6
:1020C80010F01450142448EC0FF0135048EC0FF0A3
:1020D800C8EC10F01200F292F19CF288000ECF6E5C
:1020E800000ECE6E9E909D80F28CF28E120022EC35
:1020F80011F026EC11F0F9EC10F019EC11F022ECCB
:1021080011F012004C50D8A403D0DAEC10F003D030
:1021180005EC11F000D01200126E9E96C9CF11F096
:1021280012C0C9FF00D0C7A0FED71200000E126E61
:10213800190E116E3C0E6AEC0CF0700ED36E120084
:10214800839A000E186E640E176EEEEC0DF0838AFB
:102158001200B6EC10F00FEC11F01EEC11F00FECC1
:1021680011F01200F90ECB6E050ECA6E4A0EBB6E48
:102178003C0EBA6E120019EC11F0F9EC10F022ECDA
:1021880011F026EC11F0120022EC11F019EC11F00C
:10219800F9EC10F026EC11F0120026EC11F0F9EC35
:1021A80010F019EC11F022EC11F01200010E4C6E37
:1021B800675055EC0AF0838283881200136E83946B
:1021C8008380135090EC10F083841200136E839474
:1021D8008390135090EC10F083841200116E00D09D
:1021E800ACA2FED711C0ADFF1200958C060EE82EEA
:1021F800FED700D01200000E4E6EF19CCD909E903E
:102208001200000E4C6E839283981200F9EC10F0C5
:1022180026EC11F0120055EC10F055EC10F01200FD
:10222800F9EC10F022EC11F012008298949800D08A
:1022380000D01200000EBA6E82921200839C959C08
:1022480000D01200948800D000D01200000E4E6E0C
:0E225800CD901200F288F19C12003207FF01B7
:10FD5A0000000000000000005F000000070007002C
:10FD6A00147F147F14242A7F2A122313086462360C
:10FD7A00495620500008070300001C224100004198
:10FD8A00221C002A1C7F1C2A08083E0808008070D2
:10FD9A003000080808080800006060002010080405
:10FDAA00023E5149453E00427F4000724949494658
:10FDBA002141494D331814127F1027454545393CD6
:10FDCA004A494931412111090736494949364649C3
:10FDDA0049291E00001400000040340000000814E5
:10FDEA00224114141414140041221408020159095E
:10FDFA00063E415D594E7C1211127C7F49494936B3
:10FE0A003E414141227F4141413E7F494949417F2B
:10FE1A00090909013E414151737F0808087F0041E1
:10FE2A007F41002040413F017F081422417F40402A
:10FE3A0040407F021C027F7F0408107F3E414141FF
:10FE4A003E7F090909063E4151215E7F091929466B
:10FE5A00264949493203017F01033F4040403F1F81
:10FE6A002040201F3F4038403F63140814630304B6
:10FE7A007804036159494D43007F41414102040816
:10FE8A001020004141417F040201020440404040E9
:10FE9A0040000307080020545478407F284444381F
:10FEAA003844444428384444287F38545454180069
:10FEBA00087E090218A4A49C787F080404780044E8
:10FECA007D40002040403D007F1028440000417FD3
:10FEDA0040007C047804787C08040478384444445C
:10FEEA0038FC1824241818242418FC7C0804040854
:10FEFA00485454542404043F44243C4040207C1C6D
:10FF0A002040201C3C4030403C44281028444C905F
:10FF1A0090907C4464544C440008364100000077B9
:10FF2A0000000041360800020102040201000A0032
:10FF3A006400E80310270001020304050607010014
:10FF4A001000000100102054656D706572617475AF
:10FF5A007265203D20256420646567726565734378
:10FF6A00203D2025642064656772656573460D0A25
:10FF7A0000253032783A253032783A2530327820E6
:10FF8A00253032782F253032782F25303278004BC1
:10FF9A006579204C6F636174696F6E203D2025641A
:10FFAA00200D0A0A004E45435F427574746F6E2035
:10FFBA003D202578200D0A0052504D203D20256411
:10FFCA00206463203D2025640D0A00303132333429
:10FFDA0035363738396162636465660052544320A6
:10FFEA0054696D652052657365740D0A004C41426F
:06FFFA0020313020000060
:020000040020DA
:08000000FFFFFFFFFFFFFFFF00
:020000040030CA
:0E000000FF08191EFF8381FF0FC00FE00F40A5
:00000001FF
