:04000000CAEF17F03C
:1010000000010000000A00000064000000E8030086
:101010000010270000A086010040420F0080969833
:101020000000E1F50500CA9A3B00803FCDCC3DD7DA
:10103000233C12833AB7D138C62737388635C0D615
:1010400033CC2B32708930E7DB2EE53C1E42A20DFB
:1010500000803F00204100C842007A44401C4650B6
:10106000C34724744997184BBCBE4C6B6E4E031596
:101070005079AD60F34971014F12064C24200F00E6
:1010800004000402060105030754656D703D2564E4
:1010900020462020563D252E3166206D5620204CBE
:1010A000696768743D252E3166206D560D0A000073
:1010B000420E536E000E546EFAD3250E6618D8B445
:1010C00004D06650B5EC17F0F2D3000E566E000E49
:1010D000556E40C0F6FF41C0F7FF0800F5502E0ADC
:1010E000D8A430D0568C404A412A000E626E000EC1
:1010F000616E1CD061C00FF062C010F0000E126E65
:101100000A0E116E2DEC17F040C0F6FF41C0F7FF3C
:101110000800F5500F26000E1022D00E0F24616E2D
:10112000FF0E1020626E404A412A00D040C0F6FFF8
:1011300041C0F7FF0800F55066EC17F0D8A00DD0BD
:10114000D9D70BD0000E626E000E616E568805D0A6
:10115000BDD3568418D0ABD316D040C0F6FF41C0E3
:10116000F7FF404A412A0800F5CF66F06650000AB2
:10117000D8B4ACD3640AD8B406D0020AD8B4E9D73C
:101180000F0AD8A494D3070E5614D8B4CDD256A8BB
:1011900005D0000E626E060E616E00D053C0D9FFFE
:1011A00054C0DAFFDECF63F0DECF64F0DDCF65F050
:1011B000030E5326000E542265AE11D063C001F019
:1011C00064C002F065C003F054EC17F001C063F096
:1011D00002C064F003C065F0030E551200D0000E8B
:1011E000586E000E576E635064106510D8B485D0E9
:1011F000820E4A6EFF0E4B6E63C04CF064C04DF021
:1012000065C04EF066C04FF0100E05D0D8904F323A
:101210004E324D324C32E82EF9D74C504A24576E9C
:10122000000E4B20586E5706D8A0580657C00FF036
:1012300058C010F0000E126E030E116E2DEC17F058
:101240000FC057F010C058F057C007F058C008F052
:10125000000E0A6E0A0E096E68EC15F007C057F012
:1012600008C058F058AE04D05706D8A0580600D091
:101270005750000867EC0CF024C059F025C05AF014
:1012800026C05BF059C015F05AC016F05BC017F0CD
:1012900063C018F064C019F065C01AF079EC12F060
:1012A00015C059F016C05AF017C05BF059C001F0D4
:1012B0005AC002F05BC003F0000E046E800E056E93
:1012C0003F0E066EB3EC15F0D8B004D05706D8A088
:1012D000580613D059C001F05AC002F05BC003F0A9
:1012E000000E046E200E056E410E066EB3EC15F076
:1012F000D8A003D0574A582A00D062BE06D0625008
:101300001CE10D0E615CD8B018D063C02EF064C033
:101310002FF065C030F0615057EC0EF024C031F072
:1013200025C032F026C033F08AEC10F02EC063F0F6
:101330002FC064F030C065F000D058BE06D05850C1
:1013400020E10A0E575CD8B01CD0635064106510C1
:10135000D8B46DD063C02BF064C02CF065C02DF004
:10136000F5EC12F02B502C102D102E10D8B458BEC6
:101370005ED0585006E1020E575CD8B002D057D06C
:1013800000D059C001F05AC002F05BC003F0700EEB
:10139000046E890E056E400E066EB3EC15F0D8B0E3
:1013A00002D0F70E01D0F80E5726FF0E582200D0BB
:1013B000575067EC0CF024C059F025C05AF026C0F5
:1013C0005BF017D063C001F064C002F065C003F0A9
:1013D00059C004F05AC005F05BC006F0F4EC11F0FF
:1013E00001C05DF002C05EF003C05FF004C060F0B9
:1013F00017D063C001F064C002F065C003F059C0AB
:1014000004F05AC005F05BC006F06CEC11F001C0AE
:101410005DF002C05EF003C05FF004C060F000D079
:10142000000E636E000E646E000E656E33D063C0F6
:101430002BF064C02CF065C02DF0F5EC12F02BC041
:101440005DF02CC05EF02DC05FF02EC060F063C078
:101450003AF064C03BF065C03CF05DC009F05EC08E
:101460000AF05FC00BF060C00CF0BDEC16F009C0D4
:101470003DF00AC03EF00BC03FF0EDEC16F03AC074
:1014800063F03BC064F03CC065F0000E586E000E87
:10149000576E00D0010E666E0A0E6618D8B41CD0C6
:1014A00001D01AD06650040D010EF324F66E100E12
:1014B000F420F76E0900F5505D5C0900F5505E58A8
:1014C0000900F5505F580900F5506058D8A004D0C5
:1014D00001D002D0662AE0D7030E55144A6E000EE2
:1014E00056144B6E4A504B10D8B449D02D0EB5EC63
:1014F00017F045D05DC001F05EC002F05FC003F0A0
:1015000060C004F06650040D010EF324F66E100E58
:10151000F420F76E0900F5CF05F00900F5CF06F0CD
:101520000900F5CF07F00A00F5CF08F0FEEC15F042
:1015300001C059F002C05AF003C05BF004C05CF077
:1015400059C00EF05AC00FF05BC010F05CC011F033
:101550000A0E126E000E136E000E146E000E156E43
:1015600085EC16F00EC059F00FC05AF010C05BF0B9
:1015700011C05CF05950300FB5EC17F000D0660682
:101580006628D8B409D0B6D707D0300EB5EC17F01E
:101590005706D8A0580600D058BE05D05850F5E1DF
:1015A0005704D8B0F2D762BE09D0625004E1090EE8
:1015B000615CD8A003D0080E666E03D061C066F0EF
:1015C00000D06650615E000E66BEFF0E625A665025
:1015D000D8B404D02E0EB5EC17F000D0665067ECEE
:1015E0000CF024C050F025C051F026C052F063C06A
:1015F00018F064C019F065C01AF050C015F051C061
:1016000016F052C017F079EC12F015C02BF016C08E
:101610002CF017C02DF0F5EC12F02BC05DF02CC0B3
:101620005EF02DC05FF02EC060F06BD05DC001F0A9
:101630005EC002F05FC003F060C004F06650040DAD
:10164000010EF324F66E100EF420F76E0900F5CFAC
:1016500005F00900F5CF06F00900F5CF07F00A0004
:10166000F5CF08F0FEEC15F001C059F002C05AF0B9
:1016700003C05BF004C05CF059C00EF05AC00FF01C
:101680005BC010F05CC011F00A0E126E000E136EFB
:10169000000E146E000E156E85EC16F00EC059F09B
:1016A0000FC05AF010C05BF011C05CF05950300F01
:1016B000B5EC17F05DC00EF05EC00FF05FC010F02B
:1016C00060C011F06650040D010EF324F66E100E8A
:1016D000F420F76E0900F5CF12F00900F5CF13F0F2
:1016E0000900F5CF14F00A00F5CF15F085EC16F0DF
:1016F0000EC05DF00FC05EF010C05FF011C060F072
:1017000000D066066628D8B409D090D707D0300E2E
:10171000B5EC17F06106D8A0620600D061506210E7
:10172000D8B4C5D0F4D7C3D053C0D9FF54C0DAFF62
:10173000DECF5DF0DDCF5EF0000E5EBEFF0E5F6EB1
:10174000606E020E5326000E542260AE0BD0030EC4
:101750005512601E5F1E5E1E5D6C000E5E225F22D3
:10176000602200D061506210D8A409D05D505E1094
:101770005F106010D8A403D0614A622A00D0010E25
:10178000666E0A0E6618D8B41CD001D01AD0665006
:10179000040D010EF324F66E100EF420F76E09000E
:1017A000F5505D5C0900F5505E580900F5505F5832
:1017B0000900F5506058D8A004D001D002D0662AA4
:1017C000E0D7800E66BE7F0E4A6E6150665C625046
:1017D000800A4A58D8B003D061C066F011D0625078
:1017E000800A4A6E6650615C800E66BE7F0E4A5863
:1017F000D8B006D06650616E626A61BE620600D0E3
:10180000030E55144A6E000E56144B6E4A504B1080
:10181000D8B443D02D0EB5EC17F03FD061C04AF0DC
:1018200062C04BF0D8904A364B36D8904A364B3689
:10183000010E4A24F66E100E4B20F76E0900F5CF0C
:1018400005F00900F5CF06F00900F5CF07F00A0012
:10185000F5CF08F05DC001F05EC002F05FC003F09C
:1018600060C004F0FEEC15F001C00EF002C00FF0F5
:1018700003C010F004C011F00A0E126E000E136EB9
:10188000000E146E000E156E85EC16F00E50300F23
:10189000666E6650B5EC17F000D06106D8A06206FF
:1018A0006128BCE16228D8B402D0B8D700D040C0CB
:1018B000F6FF41C0F7FF404A412A0800F5CF66F025
:1018C0006650D8B403D05DEF08F000D012002A6E45
:1018D0002AAEEFD02A6C2A50800A120FD8A08DD0E1
:1018E000000E126E030E116E000E0A6E0A0E096EC5
:1018F000000E046E640E036E2A50016E026A01BE71
:10190000020644EC16F001C007F002C008F068ECD3
:1019100015F0090E07240F6E000E0820106E2DEC36
:1019200017F0290E0F24F66E100E1020F76E090026
:10193000F5CF18F00900F5CF19F00A00F5CF1AF02D
:10194000000E0A6E640E096E2A50076E086A07BE02
:10195000080668EC15F0120E07240F6E000E082022
:10196000106E000E126E030E116E2DEC17F0290E84
:101970000F24F66E100E1020F76E0900F5CF15F04B
:101980000900F5CF16F00A00F5CF17F079EC12F048
:1019900015C027F016C028F017C029F027C015F091
:1019A00028C016F029C017F0000E126E030E116E3B
:1019B000000E046E0A0E036E2A50016E026A01BE0A
:1019C000020644EC16F001C00FF002C010F02DEC3E
:1019D00017F0290E0F24F66E100E1020F76E090076
:1019E000F5CF18F00900F5CF19F00A00F5CF1AF07D
:1019F00079EC12F041D15AD154D02A50800A750F97
:101A0000D8A04FD0000E0A6E0A0E096E2A50076E3B
:101A1000086A07BE080668EC15F0090E07240F6E69
:101A2000000E0820106E000E126E030E116E2DECCB
:101A300017F0290E0F24F66E100E1020F76E090015
:101A4000F5CF15F00900F5CF16F00A00F5CF17F025
:101A5000000E126E030E116E000E046E0A0E036E5F
:101A60002A50016E026A01BE020644EC16F001C063
:101A70000FF002C010F02DEC17F0290E0F24F66EB7
:101A8000100E1020F76E0900F5CF18F00900F5CF01
:101A900019F00A00F5CF1AF079EC12F0EDD006D16A
:101AA00000D02A50030D290EF324F66E100EF2D04A
:101AB000FDD02A50800A120FD8A08DD0000E126ED1
:101AC000030E116E000E0A6E0A0E096E000E046EF1
:101AD000640E036E2A50016E026A01BE020644ECD7
:101AE00016F001C007F002C008F068EC15F0090E0E
:101AF00007240F6E000E0820106E2DEC17F0500E0C
:101B00000F24F66E100E1020F76E0900F5CF18F0B6
:101B10000900F5CF19F00A00F5CF1AF0000E0A6E91
:101B2000640E096E2A50076E086A07BE080668EC44
:101B300015F0120E07240F6E000E0820106E000E16
:101B4000126E030E116E2DEC17F0500E0F24F66E70
:101B5000100E1020F76E0900F5CF15F00900F5CF33
:101B600016F00A00F5CF17F079EC12F015C027F047
:101B700016C028F017C029F027C015F028C016F0AD
:101B800029C017F0000E126E030E116E000E046EC7
:101B90000A0E036E2A50016E026A01BE020644EC70
:101BA00016F001C00FF002C010F02DEC17F0500E2F
:101BB0000F24F66E100E1020F76E0900F5CF18F006
:101BC0000900F5CF19F00A00F5CF1AF079EC12F000
:101BD00053D06CD059D02A50800A750FD8A054D059
:101BE000000E0A6E0A0E096E2A50076E086A07BEBA
:101BF000080668EC15F0090E07240F6E000E082089
:101C0000106E000E126E030E116E2DEC17F0500EBA
:101C10000F24F66E100E1020F76E0900F5CF15F0A8
:101C20000900F5CF16F00A00F5CF17F0000E126E7E
:101C3000030E116E000E046E0A0E036E2A50016E22
:101C4000026A01BE020644EC16F001C00FF002C0A9
:101C500010F02DEC17F0500E0F24F66E100E102021
:101C6000F76E0900F5CF18F00900F5CF19F00A005A
:101C7000F5CF1AF079EC12F015C024F016C025F05B
:101C800017C026F013D000D02A50030D500EF324B5
:101C9000F66E100EF420F76E0900F5CF24F009005F
:101CA000F5CF25F00A00F5CF26F000D012002D6EFA
:101CB0006D0E2D649BD0000E126E030E116E000E81
:101CC0000A6E0A0E096E000E046E640E036E2DC0BD
:101CD00001F0026A44EC16F001C007F002C008F0FF
:101CE00068EC15F0090E07240F6E000E0820106E28
:101CF0002DEC17F0290E0F24F66E100E1020F76E43
:101D00000900F5CF18F00900F5CF19F00A00F5CF5A
:101D10001AF0000E0A6E640E096E2DC007F0086AF4
:101D200068EC15F0120E07240F6E000E0820106EDE
:101D3000000E126E030E116E2DEC17F0290E0F24FB
:101D4000F66E100E1020F76E0900F5CF15F00900A1
:101D5000F5CF16F00A00F5CF17F079EC12F015C0A8
:101D60002AF016C02BF017C02CF0000E126E030ED6
:101D7000116E000E046E0A0E036E2DC001F0026A91
:101D800044EC16F001C00FF002C010F02DEC17F07B
:101D9000290E0F24F66E100E1020F76E0900F5CFF5
:101DA00018F00900F5CF19F00A00F5CF1AF02AC093
:101DB00015F02BC016F02CC017F079EC12F015C0FE
:101DC00027F016C028F017C029F027C015F028C04A
:101DD00016F029C017F0000E186E000E196E3F0E97
:101DE0001A6E79EC12F07DD083D062D00A0E2D6489
:101DF0005FD0000E126E030E116E000E046E0A0EFE
:101E0000036E2DC001F0026A44EC16F001C00FF021
:101E100002C010F02DEC17F0290E0F24F66E100EF4
:101E20001020F76E0900F5CF18F00900F5CF19F072
:101E30000A00F5CF1AF0000E0A6E0A0E096E2DC0C8
:101E400007F0086A68EC15F0090E07240F6E000E03
:101E50000820106E000E126E030E116E2DEC17F09E
:101E6000290E0F24F66E100E1020F76E0900F5CF24
:101E700015F00900F5CF16F00A00F5CF17F079EC50
:101E800012F015C02AF016C02BF017C02CF02AC093
:101E900015F02BC016F02CC017F0000E186E000EB7
:101EA000196E3F0E1A6E79EC12F01BD021D000D0C3
:101EB0002D50030D290EF324F66E100EF420F76E4C
:101EC0000900F5CF15F00900F5CF16F00A00F5CF9F
:101ED00017F0000E186E000E196E3F0E1A6E79EC98
:101EE00012F015C024F016C025F017C026F000D05F
:101EF000120077EC17F0C3EC17F0ABEC17F000D042
:101F0000000EBCEC17F09FEC17F001C06DF002C0A2
:101F10006EF0400E186E9C0E196E450E1A6E6DC056
:101F200009F06EC00AF041EC17F009C015F00AC0C4
:101F300016F00BC017F079EC12F015C03AF016C08D
:101F40003BF017C03CF0C00E3D6E7F0E3E6E440E5F
:101F50003F6ED9EC13F03AC071F03BC072F03CC058
:101F600073F0600E316E810E326E440E336E71C0AE
:101F700001F072C002F073C003F054EC17F001C01E
:101F80002EF002C02FF003C030F08AEC10F02EC00B
:101F90003AF02FC03BF030C03CF0000E3D6EB00E6A
:101FA0003E6E400E3F6ED9EC13F03AC067F03BC076
:101FB00068F03CC069F0660E186EE60E196E3F0EB2
:101FC0001A6E67C015F068C016F069C017F079EC9A
:101FD00012F015C02EF016C02FF017C030F0000E12
:101FE000316E000E326E420E336E8AEC10F02EC04F
:101FF0006AF02FC06BF030C06CF06AC02BF06BC081
:102000002CF06CC02DF0F5EC12F02BC077F02CC04A
:1020100078F078AE05D0000E786E000E776E00D0A6
:1020200077C007F078C008F0000E0A6E0A0E096E3D
:1020300068EC15F0075092EC17F077C001F078C00B
:1020400002F0000E046E0A0E036E44EC16F001500E
:1020500085EC17F077C00FF078C010F04AEC14F060
:1020600077C001F078C002F068EC13F0010EBCEC10
:1020700017F09FEC17F001C06FF002C070F0400E37
:10208000186E9C0E196E450E1A6E6FC009F070C066
:102090000AF041EC17F009C015F00AC016F00BC0A9
:1020A00017F079EC12F015C03AF016C03BF017C0EB
:1020B0003CF0C00E3D6E7F0E3E6E440E3F6ED9EC7E
:1020C00013F03AC074F03BC075F03CC076F074C0B9
:1020D0000AF075C00BF076C00CF016EC15F0890E06
:1020E000406E100E416E77C042F078C043F071C070
:1020F00044F072C045F073C046F074C047F075C03C
:1021000048F076C049F058EC08F00FEC17F0F8D61C
:1021100000EF00F030C034F0356A366A2F343436C0
:1021200001E335803450396E33C034F0356A366A95
:102130003234343601E335803450386E3950D8B4F7
:102140000BD03850395CD8B00ED039500008382444
:10215000346E180E346407D031C02EF032C02FF028
:1021600033C030F0B8D03850D8B40BD03950385CC8
:10217000D8B00ED0385000083924346E180E3464AC
:1021800007D02EC02EF02FC02FF030C030F0A3D0DB
:10219000060E376E30AE02D0378E00D033BE378C8D
:1021A0002F8EFF0E2E16FF0E2F16000E3016328EBB
:1021B000FF0E3116FF0E3216000E33163850395C02
:1021C000D8B01ED0D8903136323633363806395032
:1021D0003818D8B40FD0370637C034F0070E34168D
:1021E000D8B408D0EFD706D0D89030322F322E3264
:1021F000392A00D038503918D8B424D0F5D722D095
:102200003950385CD8B01ED0D8902E362F363036A4
:10221000390639503818D8B40FD0370637C034F0E3
:10222000070E3416D8B408D0EFD706D0D890333282
:1022300032323132382A00D038503918D8B402D06E
:10224000F5D700D037AE0CD0FF0E2E1AFF0E2F1A86
:10225000FF0E301A010E2E26000E2F22000E302205
:1022600037AC0DD0FF0E311AFF0E321AFF0E331AA3
:10227000010E3126000E3222000E332200D0000E55
:10228000376E2E5031262F5032223050332233AE4B
:102290000FD0FF0E311AFF0E321AFF0E331A010E45
:1022A0003126000E3222000E3322010E376E00D08E
:1022B00031C001F032C002F033C003F039C004F085
:1022C00037C005F0B3EC14F001C02EF002C02FF0BF
:1022D00003C030F000D0120003C007F0086A096A9A
:1022E0000234073601E3088007500F6E0F50D8A460
:1022F00002D05DD078D006C007F0086A096A0534BC
:10230000073601E3088007500E6E0E50D8A402D0A5
:102310004ED069D0028EFF0E0116FF0E0216000E7F
:102320000316058EFF0E0416FF0E0516000E061688
:10233000000E0A6E000E0B6E000E0C6E000E0D6E7F
:102340007F0E0F5E0E50980F0F5E180E0E6ED89017
:102350000A360B360C360D360450015C0550025817
:1023600006500358D8A007D00450015E0550025A09
:102370000650035A0A80D8900136023603360E2ED4
:10238000E6D700D00FAE10D00F50800A970FD8B00C
:1023900003D00DD028D000D0D8900D320C320B32A3
:1023A0000A320F3EF9D717D0170E0F6411D0000E66
:1023B000016E000E026E000E036E000E046E13D04E
:1023C00007D0D8900A360B360C360D360F0600D0E3
:1023D0000F50D8A4F6D70AC001F00BC002F00CC011
:1023E00003F00DC004F01200033404340C6E0C50E2
:1023F000D8A402D061D07CD0063407340B6E0B50C9
:10240000D8A402D059D074D0038EFF0E0116FF0E4F
:102410000216FF0E0316000E0416068EFF0E04169B
:10242000FF0E0516FF0E0616000E0716000E076EAD
:10243000000E086E000E096E000E0A6E7F0E0C5E16
:102440000B50A00F0C5E200E0B6E00D0D8900736FC
:10245000083609360A360450015C05500258065009
:10246000035807500458D8A00AD00450015E055004
:10247000025A0650035A0750045A078000D0D890D9
:1024800001360236033604360B2EE0D700D00CAEF0
:1024900010D00C50800A9F0FD8B003D00DD028D098
:1024A00000D0D8900A320932083207320C3EF9D7F0
:1024B00017D01F0E0C6411D0000E016E000E026EBC
:1024C000000E036E000E046E13D007D0D8900736AE
:1024D000083609360A360C0600D00C50D8A4F6D7B8
:1024E00007C001F008C002F009C003F00AC004F000
:1024F000120017C01BF01C6A1D6A16341B3601E35C
:102500001C801B501E6E1E50D8A402D00ED06CD062
:102510001AC01BF01C6A1D6A19341B3601E31C80AB
:102520001B50236E2350D8A407D0000E156E000E4A
:10253000166E000E176E58D023507B0F1E2617C044
:1025400023F01A50231A800E2316168E198EFF0EB2
:102550001816FF0E1916000E1A16000E1F6E000E2A
:10256000206E000E216E070E226E00D015A007D03F
:1025700018501F26195020221A50212200D0D8901E
:10258000173216321532D890183619361A36222ECE
:10259000EDD700D0090E226E00D015A007D018503C
:1025A0001F26195020221A50212200D0D89017320D
:1025B00016321532D890213220321F32222EEDD71A
:1025C00000D01FC001F020C002F021C003F01EC0E7
:1025D00004F023C005F0B3EC14F001C015F002C004
:1025E00016F003C017F000D012002DC02FF0306A93
:1025F000316A2C342F3601E330802F50396E395038
:10260000D8A402D039D063D0170E2F6E2BC030F073
:102610002CC031F02DC032F02F28336E04D0D8906A
:10262000323231323032332EFAD73050346E2C8E73
:10263000FF0E2B16FF0E2C16000E2D162B50356E8E
:102640002C50366E2D50376E386A8E0E395E39AE8C
:1026500010D03950800A8F0FD8B003D00DD037D0AA
:1026600000D0D8903832373236323532393EF9D749
:1026700019D0170E396411D0000E2B6E000E2C6E7F
:10268000000E2D6E000E2E6E22D007D0D89035365B
:10269000363637363836390600D03950D8B402D0FD
:1026A000F5D700D03450D8B409D0381E371E361EA6
:1026B000356C000E36223722382200D035C02BF080
:1026C00036C02CF037C02DF038C02EF000D01200EC
:1026D00002BE06D0025006E1230E015CD8B002D043
:1026E000000E3DD002BE06D0025006E12E0E015C67
:1026F000D8B002D0010E33D002BE06D0025006E19F
:10270000380E015CD8B002D0020E29D002BE06D02D
:10271000025006E1420E015CD8B002D0030E1FD079
:1027200002BE06D0025006E14C0E015CD8B002D0C9
:10273000040E15D002BE06D0025006E14F0E015C19
:10274000D8B002D0050E0BD002BE06D0025006E172
:10275000530E015CD8B002D0060E01D0070E046EF5
:1027600000D004C003F0010E0316034603460346DF
:102770008B500318F70B03188B6E04C003F0D8902E
:102780000332010E0316033A8B500318EF0B0318A4
:102790008B6E04C003F0D8900332D8900332010E40
:1027A0000316033A03468B500318DF0B03188B6E96
:1027B00012003CC040F0416A426A3B34403601E3BB
:1027C00041804050476E4750D8A402D00ED061D00F
:1027D0003FC040F0416A426A3E34403601E34180E6
:1027E0004050486E4850D8A407D0000E3A6E000EF4
:1027F0003B6E000E3C6E4DD0000E446E000E456EDA
:10280000000E466E4850890F475E3CC048F03F506E
:10281000481A800E48163B8EFF0E3A16FF0E3B16E6
:10282000000E3C163E8EFF0E3D16FF0E3E16000EAD
:102830003F16180E436E00D0D890443645364636C3
:102840003D503A5C3E503B583F503C58D8A007D0D2
:102850003D503A5E3E503B5A3F503C5A4480D890DF
:102860003A363B363C36432EE7D700D044C001F021
:1028700045C002F046C003F047C004F048C005F070
:10288000B3EC14F001C03AF002C03BF003C03CF0DE
:1028900000D01200810EF66E100EF76E20EE12F0D0
:1028A000070E0900F5CFDEFFE806FBE210BE0BD0F5
:1028B000105004E1460E0F5CD8A005D0000E1B6E30
:1028C000070E1A6E0FD00FC007F010C008F0000EF0
:1028D0000A6E0A0E096E68EC15F007C01AF008C0FF
:1028E0001BF000D01AC01CF000D01C50010D120EBD
:1028F000F324D96E000EF420DA6EDF50116ED890FA
:102900001132D8901132010E111682501118FE0B9F
:102910001118826E1C50010D120EF324D96E000E98
:10292000F420DA6EDF50116ED8901132010E1116BC
:10293000114682501118FD0B1118826E1C50010DAA
:10294000120EF324D96E000EF420DA6EDF50116EF1
:10295000010E11161146114682501118FB0B111869
:10296000826E00D012000450D8B405D0015002107D
:102970000310D8A40ED0000E016E000E026E000EE1
:10298000036E53D006D0042AD890033202320132AB
:1029900000D0000E0114066E000E0214076EFE0E2B
:1029A0000314086E065007100810D8B40ED0EBD7E9
:1029B0000CD0042A010E0126000E0222000E032272
:1029C000D89003320232013200D0000E0114066E9C
:1029D000000E0214076EFF0E0314086E0650071057
:1029E0000810D8B408D0E5D706D00406D890013630
:1029F0000236033600D002BE04D0020E0460F5D7C2
:102A000000D004B002D0029E00D0D890043204500E
:102A100003120550D8B402D0038E00D001C001F0DB
:102A200002C002F003C003F000D012000AC001F09F
:102A30000BC002F00CC003F0800E046E220E056E77
:102A4000450E066EB3EC15F0D8B002D08D8011D0D3
:102A50000AC001F00BC002F00CC003F0400E046E7F
:102A6000350E056E450E066EB3EC15F0D8B004D0E9
:102A70008D908D828D842BD00AC001F00BC002F0A6
:102A80000CC003F0000E046E480E056E450E066E77
:102A9000B3EC15F0D8B003D08D808D8212D00AC06F
:102AA00001F00BC002F00CC003F0000E046E610ECA
:102AB000056E450E066EB3EC15F0D8B004D08D80CF
:102AC00003D08D9404D08D908D92FBD700D012004E
:102AD000000E0C6E0AAE07D0096C0A1ED8B00A2A86
:102AE000010E0C6E00D008AE07D0076C081ED8B0DF
:102AF000082A010E0C1A00D0000E0E6E000E0D6E8C
:102B000009500A10D8B421D0010E0B6E05D0D89010
:102B100009360A360B2A00D00ABE02D0F8D700D0F8
:102B2000D8900D360E360950075C0A500858D8A0C8
:102B300006D00950075E0A50085A0D8000D0D89080
:102B40000A3209320B2EECD700D00C50D8B405D085
:102B50000D6C0E1ED8B00E2A00D00DC007F00EC0AE
:102B600008F000D0120003AE17D001C007F002C079
:102B700008F003C009F0071E081E091E072A000EF0
:102B800008220922000E0724016E000E0820026EA2
:102B9000800E0920036E00D006AE17D004C007F0E7
:102BA00005C008F006C009F0071E081E091E072A06
:102BB000000E08220922000E0724046E000E0820D1
:102BC000056E800E0920066E00D0000E011A000E60
:102BD000021A800E031A000E041A000E051A800E47
:102BE000061A0450015C0550025806500358D8B02C
:102BF00002D0D89002D0D88000D01200000E096E0A
:102C0000000E0A6E000E0B6E000E0C6E05500610C4
:102C100007100810D8B42FD0010E0D6E07D0D89031
:102C200005360636073608360D2A00D008BE02D013
:102C3000F6D700D0D89009360A360B360C36055038
:102C4000015C065002580750035808500458D8A099
:102C50000AD00550015E0650025A0750035A085028
:102C6000045A098000D0D890083207320632053263
:102C70000D2EE0D700D009C001F00AC002F00BC051
:102C800003F00CC004F01200000E066E02AE07D076
:102C9000016C021ED8B0022A010E066E00D004AEEE
:102CA00005D0036C041ED8B0042A00D003500410D1
:102CB000D8B41DD0010E056E05D0D8900336043669
:102CC000052A00D004BE02D0F8D700D00350015C22
:102CD00004500258D8A005D00350015E0450025A97
:102CE00000D0D89004320332052EF0D700D0065021
:102CF000D8B405D0016C021ED8B0022A00D001C0A1
:102D000001F002C002F000D0120012501310141093
:102D10001510D8B429D0010E166E07D0D8901236EF
:102D2000133614361536162A00D015BE02D0F6D743
:102D300000D012500E5C13500F58145010581550FC
:102D40001158D8A009D012500E5E13500F5A1450CB
:102D5000105A1550115A00D0D8901532143213322F
:102D60001232162EE6D700D00EC00EF00FC00FF0B4
:102D700010C010F011C011F012008E0E116E07D0AD
:102D8000D8900C320B320A320932112A00D0000ED0
:102D900009140D6E000E0A140E6E000E0B140F6E49
:102DA000FF0E0C14106E0D500E100F101010D8A442
:102DB000E7D709C001F00AC002F00BC003F011C050
:102DC00004F0000E056EB3EC14F001C009F002C06F
:102DD0000AF003C00BF000D012003D503E103F102F
:102DE000D8B407D0000E3D1A000E3E1A800E3F1ACE
:102DF00000D03AC02EF03BC02FF03CC030F03DC0B8
:102E000031F03EC032F03FC033F08AEC10F02EC0FB
:102E10003AF02FC03BF030C03CF000D01200000E62
:102E2000016E000E026E000E036E000E046E04BEF4
:102E30000BD00450031010E1200E015C4E0E02581E
:102E4000D8B00AD001D008D0010E0126000E02220F
:102E500003220422ECD700D012000F501102F3CF4E
:102E600013F0F4CF14F00F501202F3501426105048
:102E70001102F350142613C00FF014C010F000D04C
:102E8000120009C001F00AC002F0036A8E0E046E3F
:102E9000000E056EB3EC14F001C009F002C00AF098
:102EA00003C00BF000D01200015002100310D8B480
:102EB00006D0000E011A000E021A800E031A01C07D
:102EC00001F002C002F003C003F01200036E000E16
:102ED000026E3A0E036006D02F0E036403D0010E7B
:102EE000026E00D002C001F0013000D01200600E6E
:102EF000D36E949C948EAC98AC84AB8EAB88AC8A29
:102F0000190EAF6E000EB06E1200016E0150010D71
:102F1000770EF324F66E100EF420F76E0800F5CF4E
:102F20008AFF1200016E0150010D770EF324F66E38
:102F3000100EF420F76E0800F5CF8CFF1200C2824D
:102F400000D0C2B2FED7C450036EC350016E03C09E
:102F500002F000D012009268000E936E000E946E84
:102F6000000E956E000E966E1200016E00D09EA8A7
:102F7000FED701C0ADFF1200016E0144E846FC0B14
:102F80000109C26E1200010EC26E0E0EC16EA90EB4
:0E2F9000C06E1200000EF86E000179EF0FF017
:020000040020DA
:08000000FFFFFFFFFFFFFFFF00
:020000040030CA
:0E000000FF08191EFF8381FF0FC00FE00F40A5
:00000001FF
