:040000000CEF00F011
:10000800FACF03F0FBCF04F0E9CF05F059ED08F083
:1000180018EF08F0B5EC0AF0700ED36EF19E010EE1
:10002800936E000E946E000E956E0F0EC16E000E4C
:10003800926E000E966E000E806E000E816E000E9F
:10004800826E84EC07F094EC0AF0000E5C6E000EF1
:100058005D6E000E5E6E000E5F6E00D06004611073
:10006800D8A4FCD7000E616E000E606EFBEC0AF09F
:10007800D20E1D6EFF0E1E6E68C01FF0206A46EC81
:1000880001F04668000E446E000E436E44BE08D070
:10009800445017E1150E435CD8B013D001D011D0ED
:1000A800AA0E4324D96E000E4420DA6E6850DE187A
:1000B800D8A403D043C046F000D0434A442AE6D728
:1000C80000D04628D8B4CAD7BC0E1D6EFF0E1E6ECF
:1000D80046C01FF0206A46EC01F0000E3C6E3C0E54
:1000E8003B6E000E3E6E500E3D6E000E406E140EBE
:1000F8003F6E4650020D800EF324D96E000EF42098
:10010800DA6EDECF41F0DDCF42F0FDEC08F0000EF4
:100118001D6E3C0E1C6E000E1F6E500E1E6E000EE5
:10012800216E140E206EFF0E236E22684FEC02F033
:100138004D0E396E4650040D540EF3243A6E010EDE
:10014800F4203B6EFF0E3D6E3C68000E3F6E000EC5
:100158003E6E010E406E340EC4EC05F0000E806E4B
:10016800000E816E4650020D2A0EF324D96E010E40
:10017800F420DA6EDF500001E56F82500001E519C6
:10018800FE0BE519826E030E466002D0000E09D000
:10019800020E466405D0090E466002D0010E01D059
:1001A800020E456E00D04550020D470EF324D96E5D
:1001B800000EF420DA6EDECFE5F0DDCFE6F0E5C024
:1001C800D9FFE6C0DAFF4550010D4D0EF324E16E6C
:1001D800000EF420E26EE7500001E76F4650020D72
:1001E800000EF324E16E010EF420E26EE7500001E8
:1001F800E86F070E0001E8170001E72B03D00001A4
:10020800D890E8370001E72FFAD74550020D470E7E
:10021800F324E16E000EF420E26EE6CFE9F0E5CFBC
:10022800EAF0E9C0E1FFEAC0E2FFE7500001EB6F46
:100238004550010D4D0EF324E16E000EF420E26EE0
:10024800E7500001EC6F070E0001ED6F0001EC2B89
:1002580003D00001D890ED370001EC2FFAD7000148
:10026800ED51FF0A0001EB150001E811DF6E838EE6
:10027800C8EC0AF0EEEC0AF0F3EC0AF0839EEED636
:100288000CEF00F01F0E236E000E246EF5D0250E25
:100298002918D8B404D02950E1EC0AF0EDD0000EAA
:1002A800266E06D0F7D01BD0268E19D0E5D017D0F1
:1002B8001DC0F6FF1EC0F7FF1D4A1E2A0800F5CF15
:1002C80029F02950000AD8B4E5D0640AD8B407D078
:1002D8000D0AD8B404D0110AD8B4E6D7CDD026BEBA
:1002E80015D023C0D9FF24C0DAFFDECF27F0DDCF39
:1002F80028F0020E2326000E242228AE4ED0030E2C
:100308002612276C281ED8B0282A47D023C0D9FF28
:1003180024C0DAFFDECF27F0DDCF28F0020E232637
:10032800000E24223AD0010E296E050E2918D8B4E1
:100338003DD001D03BD02950020DAA0EF324F66E11
:10034800FF0EF420F76E0900F550275C0900F55000
:100358002858D8A02BD001D029D0292AE6D726D0D2
:10036800010E296E040E2918D8B420D001D01ED051
:100378002950020DB40EF324F66EFF0EF420F76E2A
:100388000900F550275C0900F5502858D8A00ED070
:1003980001D00CD0292AE6D709D02650800B000AB4
:1003A800D8B4C1D7800AD8B4DBD700D026C021F092
:1003B800030E2116D8B404D02D0EE1EC0AF000D0BB
:1003C80029C025F053D045D02550020DAA0EF3249C
:1003D800F66EFF0EF420F76E0900F5CF13F00A0051
:1003E800F5CF14F027C011F028C012F0CFEC08F0B8
:1003F80011C018F012C019F0000E1B6E0A0E1A6E0A
:1004080076EC09F01850300F296E2CD027C011F067
:1004180028C012F02550020DB40EF324F66EFF0E1C
:10042800F420F76E0900F5CF13F00A00F5CF14F0A9
:10043800CFEC08F011500F0B226E2250010DE50E83
:10044800F324F66EFF0EF420F76E0800F5CF29F0BE
:1004580009D02650800B000AD8B4B6D7800AD8B481
:10046800D5D700D02950E1EC0AF000D02506252880
:10047800D8B402D0EED700D01DC0F6FF1EC0F7FFDB
:100488001D4A1E2A0800F5CF29F02950D8B402D0F9
:10049800FED600D0120020C024F021C025F0241E72
:1004A800251E244A252A010E24242A6E000E252002
:1004B8002B6E000E276E010E266E20C024F021C080
:1004C80025F0D89024362536241E251E244A252AB0
:1004D80024C028F025C029F0000E2D6E000E2C6EC9
:1004E80020C02EF021C02FF01E502024186E22C0EC
:1004F80019F023C01AF01C5038EC0AF020500008FC
:100508001E24186E22C019F023C01AF01C5038ECB3
:100518000AF01EC018F022C019F023C01AF01C50AF
:10052800202438EC0AF01EC018F022C019F023C0AD
:100538001AF0205000081C2438EC0AF078D02BBEA2
:100548000BD02E06D8A02F06020E2826000E292230
:1005580028502A2629502B222C4A2D2A020E2626DC
:10056800000E272226502A2627502B221E502E24E2
:10057800186E22C019F023C01AF01C502C2438EC35
:100588000AF01E502E24186E22C019F023C01AF04B
:100598002C5000081C2438EC0AF02E5000081E24A9
:1005A800186E22C019F023C01AF01C502C2438EC05
:1005B8000AF02E5000081E24186E22C019F023C01D
:1005C8001AF02C5000081C2438EC0AF01E502C2479
:1005D800186E22C019F023C01AF01C502E2438ECD3
:1005E8000AF01E502C24186E22C019F023C01AF0ED
:1005F8002E5000081C2438EC0AF02C5000081E2449
:10060800186E22C019F023C01AF01C502E2438ECA2
:100618000AF02C5000081E24186E22C019F023C0BE
:100628001AF02E5000081C2438EC0AF000D02E5086
:100638002C5C2D50800A246E2F50800A2458D8A094
:100648007ED71200F2926950D8B4B9D0CE50CFCF2D
:1006580001F0026A01C002F0016A0110626E0250E4
:10066800636E000ECF6E000ECE6EA9D0000ECF6E58
:10067800000ECE6E9E90900ECD6ECD80000E6B6EED
:10068800000E5C6E000E5D6E000E5E6E000E5F6EFC
:10069800010E696E69505014016E5050FF0A84149F
:1006A8000110846E8AD09CD0340E625C210E63588F
:1006B800D8A009D01D0E625C250E6358D8B003D0AF
:1006C800020E696E27D0F7EC0AF030D02FD088D010
:1006D800A00E625C0F0E6358D8A009D0890E625C28
:1006E800130E6358D8B003D0030E696E5AD0F7ECD6
:1006F8000AF063D062D074D0900E625C010E635829
:10070800D8A011D0BD0E625C020E6358D8B00BD0D1
:10071800040ED7D769505014016E5050FF0A841444
:100728000110846E03D0F7EC0AF000D0F19C58D089
:10073800900E625C010E6358D8A03CD0090E625C32
:10074800070E6358D8B036D0D8905C345C6E5D34F0
:100758005D6E5E345E6E5F345F6EE90E625C030E42
:100768006358D8A007D0010E5C26000E5D225E22D9
:100778005F2200D06B2A1F0E6B64B6D75DC068F08D
:10078800000E696E69505014016E5050FF0A8414AF
:100798000110846E000E616E010E606EF2980DD02D
:1007A800A3D769505014016E5050FF0A84140110E9
:1007B800846E03D0F7EC0AF000D0F18C11D06950A8
:1007C800000AD8B453D7010AD8B46ED7030AD8B4EC
:1007D8007FD7010AD8B490D7070AD8B4A9D700D0D0
:1007E8001200366E800E3660A6D09F0E2E6401D0A1
:1007F800A2D03450D8A403D0010E346E00D01F0EFE
:100808002F6404D07E0E2F6403D000D03F0E2F6ECD
:10081800000E386E040E386401D08DD0530E2F6050
:1008280015D0E00E2F24116E126AFF0E1222000E50
:10083800146E050E136E65EC0AF038501126000E82
:100848001222CF0E1124F66EFD0E14D0AD0E2F24F9
:10085800116E126AFF0E1222000E146E050E136E30
:1008680065EC0AF038501126000E1222CE0E112423
:10087800F66EFE0E1220F76E0800F5CF35F000D0A8
:10088800000E376E060E376401D053D035A023D042
:100898003404D8A40CD02E503724186E30C019F068
:1008A80031C01AF03650382438EC0AF03ED03750B0
:1008B8003402F3502E24236E34C024F034C025F0C3
:1008C80030C026F031C027F038503402F3503624B7
:1008D8009CEC09F02AD03050321804E1315033181A
:1008E800D8B423D03404D8A40CD02E503724186E92
:1008F80032C019F033C01AF03650382438EC0AF0F8
:1009080014D037503402F3502E24236E34C024F010
:1009180034C025F032C026F033C027F038503402F6
:10092800F35036249CEC09F000D0372AD8903532A1
:10093800A9D7382A6FD7120027C02FF028C030F067
:100948002F1E301E2F4A302A010E2F24356E000E1E
:100958003020366E000E326E010E316E27C02FF039
:1009680028C030F0D8902F3630362F1E301E2F4A30
:10097800302A2FC033F030C034F0000E386E000E2D
:10098800376E27C039F028C03AF067D036BE0BD092
:100998003906D8A03A06020E3326000E3422335008
:1009A800352634503622374A382A020E3126000EB0
:1009B8003222315035263250362229A025D03950DE
:1009C80000082524186E395039242B242F6E2F281F
:1009D800196E2DC01AF02EC01BF023503724D4EC0A
:1009E80007F0375000082524186E375037242B2479
:1009F8002F6E2F28196E2DC01AF02EC01BF0235011
:100A08003924D4EC07F000D029A227D039500008A7
:100A18002524186E395039242B242F6E2F28196E4F
:100A28002DC01AF02EC01BF0375000082324D4EC38
:100A380007F0375000082524186E375037242B2428
:100A48002F6E2F28196E2DC01AF02EC01BF03950AA
:100A580000082324D4EC07F000D03950375C385014
:100A6800800A2F6E3A50800A2F58D8A08FD71200CC
:100A7800010ED9EC0AF0000E186E960E176E26ECD1
:100A880009F0110ED9EC0AF0010E186EF40E176E6B
:100A980026EC09F0B10ED9EC0AF0010ED1EC0AF0FF
:100AA8002C0ED1EC0AF02D0ED1EC0AF0B20ED9ECD6
:100AB8000AF0010ED1EC0AF02C0ED1EC0AF02D0E42
:100AC800D1EC0AF0B30ED9EC0AF0010ED1EC0AF021
:100AD8002C0ED1EC0AF02D0ED1EC0AF0010ED1EC5F
:100AE8000AF02C0ED1EC0AF02D0ED1EC0AF0B40E5F
:100AF800D9EC0AF0070ED1EC0AF0C00ED9EC0AF0D6
:100B0800A20ED1EC0AF0020ED1EC0AF0840ED1EC60
:100B18000AF0C10ED9EC0AF0C50ED1EC0AF0C20EEB
:100B2800D9EC0AF00A0ED1EC0AF0000ED1EC0AF06A
:100B3800C30ED9EC0AF08A0ED1EC0AF02A0ED1ECD9
:100B48000AF0C40ED9EC0AF08A0ED1EC0AF0EE0EC7
:100B5800D1EC0AF0C50ED9EC0AF00E0ED1EC0AF071
:100B6800200ED9EC0AF0360ED9EC0AF0C80ED1ECFA
:100B78000AF03A0ED9EC0AF0050ED1EC0AF0120090
:100B88000001DE6FDEC0E4F039C0E3F03AC011F0D6
:100B98003BC012F0E1EC09F011C0DFF012C0E0F048
:100BA800000E0001E26F000EE16F64D05150D8B41E
:100BB80034D04050050D0001E451416E426AF350B3
:100BC8004126F450422242BE28D0425004E1810E10
:100BD800415CD8A022D0000E0001E46F4050070D00
:100BE800F3500001E325030F0001E36FA00E00019D
:100BF800E36504D0A00E0001E36F00D00001E151CD
:100C08003A24D96E0001E2513B20DA6E200EDE183C
:100C1800D8B42CD002D02AD000D0E3C02EF00001E6
:100C2800E1513A24D96E0001E2513B20DA6EDF50DF
:100C38002F6E3CC030F03DC031F03EC032F03FC0B6
:100C480033F040C034F00001E451F5EC03F04050BB
:100C5800060DF3500001E4250001E46F800E000149
:100C6800E46504D0800E0001E46F00D00001E14B80
:100C7800E22B00D00001DF510001E15D0001E051ED
:100C88000001E259D8A092D71200E00ED9EC0AF080
:100C9800020ED1EC0AF01C0ED1EC0AF0070ED1ECD2
:100CA8000AF0120ED1EC0AF0370ED1EC0AF0320E2F
:100CB800D1EC0AF0290ED1EC0AF02D0ED1EC0AF095
:100CC800290ED1EC0AF0250ED1EC0AF02B0ED1EC4E
:100CD8000AF0390ED1EC0AF0000ED1EC0AF0010E40
:100CE800D1EC0AF0030ED1EC0AF0100ED1EC0AF0A8
:100CF800E10ED9EC0AF0030ED1EC0AF01D0ED1EC8E
:100D08000AF0070ED1EC0AF0060ED1EC0AF02E0E0E
:100D1800D1EC0AF02C0ED1EC0AF0290ED1EC0AF035
:100D28002D0ED1EC0AF02E0ED1EC0AF02E0ED1ECDD
:100D38000AF0370ED1EC0AF03F0ED1EC0AF0000EA3
:100D4800D1EC0AF0000ED1EC0AF0020ED1EC0AF058
:100D5800100ED1EC0AF0130ED9EC0AF0000E186E42
:100D68000A0E176E26EC09F0290ED9EC0AF0000ECF
:100D7800186E640E176E26EC09F01200236E800EB2
:100D8800236069D09F0E186401D065D0FF0E1D6ED8
:100D9800FF0E1E6E195023C01FF0206A1F26000E7A
:100DA80020221D501F261E50202220BE0AD020506F
:100DB80004E1800E1F5CD8A004D023500008800FE7
:100DC800196EFF0E1D6EFF0E1E6E1A5018C01FF012
:100DD800206A1F26000E20221D501F261E5020228A
:100DE80020BE0BD0205004E1A00E1F5CD8A005D077
:100DF80018500008A00F1A6E00D018C014F0235025
:100E080019241D6E1D04156E18501A241E6E1E041A
:100E1800166E23504FEC09F01C50216E1BC022F0B7
:100E2800838083941AC018F01850D8B413D001D016
:100E380011D019C023F02350D8B40AD001D008D05B
:100E48002150ABEC0AF02250ABEC0AF02306F3D7A2
:100E58001806EAD783841200010001000100060089
:100E68000600020004000400050007000700070050
:100E78000700070007000700070007000700070032
:100E88000700000000000000000000000000000053
:100E98000000000001000000000001000100010046
:100EA80001000100010001000100010043482D007C
:100EB8002043480043482B00505256004E585400D7
:100EC80050415500564C2D00564C2B0020455100E2
:100ED8002030200031303000323030002031200006
:100EE800203220002033200020342000203520002C
:100EF800203620002037200020382000203920000C
:100F0800BFEC0AF050EC0AF0000E256E000E246EBD
:100F180079EC0AF0BF0E666E000E676E66C011F0BF
:100F280067C012F0F60E136EFF0E146E1FEC0AF077
:100F3800020E396E66C03AF067C03BF0FF0E3D6E98
:100F48003C68000E3F6E000E3E6E010E406E320E83
:100F5800C4EC05F004D0530E526E500E03D0460E6A
:100F6800526E410E536E320E546E350E556E310E62
:100F7800576E300E596E340E5A6E960E396E520EEA
:100F88003A6E000E3B6EFF0E3D6E3C68000E3F6EE3
:100F9800000E3E6E010E406E010EC4EC05F012000C
:100FA800226E800E22603FD09F0E186401D03BD085
:100FB800FF0E1C6EFF0E1D6E195018C01EF01F6A22
:100FC8001E26000E1F221C501E261D501F221FBE4B
:100FD8000BD01F5004E1A00E1E5CD8A005D01850FD
:100FE8000008A00F196E00D01B50206E1AC021F007
:100FF80018C014F022C015F0185019241C6E1C04D7
:10100800166E22504FEC09F08380839407D020504D
:10101800ABEC0AF02150ABEC0AF000D01906192805
:10102800D8A4F5D78384120000EEBFF01F0EEE6A35
:10103800E806FDE100EE5CF0120EEE6AE806FDE15E
:10104800600EF66E0E0EF76E000EF86E01EE00F0F2
:1010580010EEA8F00900F5CFEEFFE550E150FAE1F7
:10106800820EF66E130EF76E000EF86E00EE80F02C
:1010780010EE3FF00900F5CFEEFFE550E150FAE140
:10108800400EF66E150EF76E000EF86E00EE47F085
:1010980010EE15F00900F5CFEEFFE550E150FAE14A
:1010A800000EF86E00010EEF00F00600EACF06F021
:1010B800E1CF07F0E2CF08F0D9CF09F0DACF0AF094
:1010C800F3CF0BF0F4CF0CF0F6CF0DF0F7CF0EF016
:1010D800F8CF0FF0F5CF10F09EA003D0E8EC0AF09F
:1010E80000D0F2A203D026EC03F000D010C0F5FF28
:1010F8000FC0F8FF0EC0F7FF0DC0F6FF0CC0F4FFDD
:101108000BC0F3FF0AC0DAFF09C0D9FF08C0E2FF2D
:1011180007C0E1FF06C0EAFF05C0E9FF04C0FBFF06
:1011280003C0FAFF1100136E000EAC6E000EAB6E1A
:1011380013A002D0AC8800D013A203D0AC8CAB8C27
:1011480000D013A402D0AC8E00D013A602D0AB8876
:1011580002D0AB8A00D013B8AC849E9813AA02D0F0
:10116800AB8600D013AC02D09D8A01D09D9A9E9A7E
:1011780013AE02D09D8801D09D9811C0AFFF1250C8
:10118800B06EAC8AAB8E949C948EACB8ACBE02D0D8
:10119800948C00D01200000E166E000E156E1350BF
:1011A8001410D8B421D0010E176E05D0D89013367C
:1011B8001436172A00D014BE02D0F8D700D0D89021
:1011C800153616361350115C14501258D8A006D094
:1011D8001350115E1450125A158000D0D890143252
:1011E8001332172EECD700D015C011F016C012F02C
:1011F80012003F5000083D24186ED8803F34196E05
:1012080041C01AF042C01BF03B50D4EC07F03BC081
:1012180023F03CC024F03DC025F03EC026F03FC07E
:1012280027F040C028F0000E2A6E030E296E000E2B
:101238002C6E000E2B6E41C02DF042C02EF0A0EC9B
:1012480004F0120017C011F018C012F0000E146E4E
:10125800FA0E136E65EC0AF011C01BF012C01CF0F8
:101268001BC019F01CC01AF0191E1A1E194A1A2A96
:10127800FF0E19241B6EFF0E1A201C6EB80EB16EDD
:101288001BC0D6FF1C50D76EA192B18000D0A1A27E
:10129800FED7B1901200176E2A0ED9EC0AF0000E94
:1012A800D1EC0AF017506C24D1EC0AF0000ED1EC06
:1012B8000AF015506C24D1EC0AF02B0ED9EC0AF088
:1012C800000ED1EC0AF014506D24D1EC0AF0000E97
:1012D800D1EC0AF016506D24D1EC0AF02C0ED9ECA2
:1012E8000AF012001A501B10D8B41DD0010E1C6E43
:1012F80005D0D8901A361B361C2A00D01BBE02D047
:10130800F8D700D01A50185C1B501958D8A005D02F
:101318001A50185E1B50195A00D0D8901B321A3236
:101328001C2EF0D700D018C018F019C019F0120000
:101338002B6E2BC02CF02D6A0ED023C018F025C0C0
:1013480019F026C01AF027C01BF02C50D4EC07F077
:101358002C4A2D2A00D024502BC028F0296A282690
:10136800000E292228502C5C2D50800A2A6E295004
:10137800800A2A58D8A0E1D7120000F800F800F82F
:10138800FF07FF07E0071F001F001FF8000000000D
:101398000000000000000000000000000000000045
:1013A80000000000A262E22202C2E0A8906898B0A1
:1013B80030187A10385A424A520011C015F012C03B
:1013C80016F003D0154A162A00D015C0D9FF16C04A
:1013D800DAFFDF50D8A4F6D711C013F012C014F00A
:1013E800131E141E134A142A15501324116E165076
:1013F8001420126E00D012002A0ED9EC0AF0000E4A
:10140800D1EC0AF0000ED1EC0AF0000ED1EC0AF093
:101418007F0ED1EC0AF02B0ED9EC0AF0000ED1ECBD
:101428000AF0000ED1EC0AF0000ED1EC0AF09F0E83
:10143800D1EC0AF0120011C015F012C016F005D058
:10144800154A162A134A142A00D013C0F6FF14C0EE
:10145800F7FF15C0D9FF16C0DAFF0800F5CFDFFF88
:10146800DF50D8A4EDD712001B6E800E1B6013D07E
:101478009F0E186401D00FD018C014F01B28156EE9
:101488001828166E1B504FEC09F01A50D1EC0AF0D0
:101498001950D1EC0AF0120083848390800EC76E35
:1014A800300EC66E3CEC05F000EC0AF049EC06F094
:1014B800360ED9EC0AF0C00ED1EC0AF0010E6A6EB5
:1014C800120011501302F3CF15F0F4CF16F011509B
:1014D8001402F350162612501302F350162615C0A4
:1014E80011F016C012F000D01200000E186E800E17
:1014F800196EA00E1A6E24C01BF025C01CF0000E39
:10150800C2EC06F01200030ED56EDB0ED66E0B0E83
:10151800D76EF294D58E00D0F2A4FED7D59E1200D5
:10152800F292F19CF288000ECF6E000ECE6E9E9065
:101538009D80F28CF28E1200810F800F800F0300C5
:10154800030701535032342F312F30310000126E0F
:101558009E96C9CF11F012C0C9FF00D0C7A0FED710
:101568001200000E126E190E116E3C0E97EC08F068
:10157800700ED36E1200839A000E186E640E176EEA
:1015880026EC09F0838A1200F90ECB6E050ECA6E9E
:101598004A0EBB6E3C0EBA6E1200136E83948380A3
:1015A8001350ABEC0AF083841200136E839483907B
:1015B8001350ABEC0AF083841200116E00D0ACA279
:1015C800FED711C0ADFF1200000E696EF19CCD90E0
:1015D8009E90120087EC0AF087EC0AF01200000EC9
:1015E800BA6E82921200000E696ECD901200F288D7
:0415F800F19C120050
:10FDCE0000000000000000005F00000007000700B8
:10FDDE00147F147F14242A7F2A1223130864623698
:10FDEE00495620500008070300001C224100004124
:10FDFE00221C002A1C7F1C2A08083E08080080705E
:10FE0E003000080808080800006060002010080490
:10FE1E00023E5149453E00427F40007249494946E3
:10FE2E002141494D331814127F1027454545393C61
:10FE3E004A4949314121110907364949493646494E
:10FE4E0049291E0000140000004034000000081470
:10FE5E0022411414141414004122140802015909E9
:10FE6E00063E415D594E7C1211127C7F494949363E
:10FE7E003E414141227F4141413E7F494949417FB7
:10FE8E00090909013E414151737F0808087F00416D
:10FE9E007F41002040413F017F081422417F4040B6
:10FEAE0040407F021C027F7F0408107F3E4141418B
:10FEBE003E7F090909063E4151215E7F09192946F7
:10FECE00264949493203017F01033F4040403F1F0D
:10FEDE002040201F3F4038403F6314081463030442
:10FEEE007804036159494D43007F414141020408A2
:10FEFE001020004141417F04020102044040404075
:10FF0E0040000307080020545478407F28444438AA
:10FF1E003844444428384444287F385454541800F4
:10FF2E00087E090218A4A49C787F08040478004473
:10FF3E007D40002040403D007F1028440000417F5E
:10FF4E0040007C047804787C0804047838444444E7
:10FF5E0038FC1824241818242418FC7C08040408DF
:10FF6E00485454542404043F44243C4040207C1CF8
:10FF7E002040201C3C4030403C44281028444C90EB
:10FF8E0090907C4464544C44000836410000007745
:10FF9E0000000041360800020102040201000A00BE
:10FFAE006400E803102701001000000100104B65EB
:10FFBE0079204C6F636174696F6E203D202564203B
:10FFCE000D0A0A004E45435F427574746F6E203DF4
:10FFDE00202578200D0A003031323334353637384B
:10FFEE0039616263646566004C4142203130200005
:02FFFE00000001
:020000040020DA
:08000000FFFFFFFFFFFFFFFF00
:020000040030CA
:0E000000FF08191EFF8381FF0FC00FE00F40A5
:00000001FF
