:04000000A0EF72F00B
:10E54000000EF86E000175EF76F0010EC26E0A0E35
:10E55000C16EA90EC06E1200016E00D0ACA2FED733
:10E5600001C0ADFF1200000E026E190E016E3C0ECE
:10E5700066EC73F0600ED36E1200015002100310AF
:10E58000D8B406D0000E011A000E021A800E031A2B
:10E5900001C001F002C002F003C003F01200C28209
:10E5A00000D0C2B2FED7C450046E036AC350032425
:10E5B000056E000E0420066E05C001F006C002F0D4
:10E5C00000D012000F501102F3CF13F0F4CF14F06B
:10E5D0000F501202F350142610501102F35014265B
:10E5E00013C00FF014C010F000D01200000E0C6E1B
:10E5F0000AAE07D0096C0A1ED8B00A2A010E0C6EAA
:10E6000000D009C001F00AC002F0036A8E0E046E49
:10E610000CC005F02EEC75F001C009F002C00AF044
:10E6200003C00BF000D01200445045104610D8B47F
:10E6300007D0000E441A000E451A800E461A00D06C
:10E6400041C035F042C036F043C037F044C038F026
:10E6500045C039F046C03AF075EC78F035C041F06D
:10E6600036C042F037C043F000D012008E0E116E5B
:10E6700007D0D8900C320B320A320932112A00D05E
:10E68000000E09140D6E000E0A140E6E000E0B140F
:10E690000F6EFF0E0C14106E0D500E100F10101098
:10E6A000D8A4E7D709C001F00AC002F00BC003F0FC
:10E6B00011C004F0000E056E2EEC75F001C009F0DB
:10E6C00002C00AF003C00BF000D01200036E000E6F
:10E6D000AC6E000EAB6E03A002D0AC8800D003A2DB
:10E6E00003D0AC8CAB8C00D003A402D0AC8E00D095
:10E6F00003A602D0AB8802D0AB8A00D003B8AC84AA
:10E700009E9803AA02D0AB8600D003AC02D09D8AAB
:10E7100001D09D9A9E9A03AE02D09D8801D09D980B
:10E7200001C0AFFF0250B06EAC8AAB8E949C948E49
:10E73000ACB8ACBE02D0948C00D0120005500610CC
:10E7400007100810D8B429D0010E096E07D0D89050
:10E750000536063607360836092A00D008BE02D02C
:10E76000F6D700D00550015C0650025807500358F8
:10E7700008500458D8A009D00550015E0650025A2E
:10E780000750035A0850045A00D0D8900832073274
:10E7900006320532092EE6D700D001C001F002C0D2
:10E7A00002F003C003F004C004F01200336E3350D3
:10E7B000040DF328C26ECFEC72F001C031F002C03C
:10E7C00032F0000E106E800E116E440E126E31C0CB
:10E7D00009F032C00AF0F6EC72F009C00DF00AC080
:10E7E0000EF00BC00FF091EC75F00DC01CF00EC0D8
:10E7F0001DF00FC01EF0000E1F6EA00E206E400E0A
:10E80000216EECEC76F01CC02EF01DC02FF01EC067
:10E8100030F02EC02BF02FC02CF030C02DF000D0E7
:10E820001200000E066E02AE07D0016C021ED8B0B8
:10E83000022A010E066E00D004AE05D0036C041E41
:10E84000D8B0042A00D003500410D8B41DD0010E53
:10E85000056E05D0D89003360436052A00D004BED4
:10E8600002D0F8D700D00350015C04500258D8A061
:10E8700005D00350015E0450025A00D0D8900432F3
:10E880000332052EF0D700D00650D8B405D0016C65
:10E89000021ED8B0022A00D001C001F002C002F06E
:10E8A00000D01200000E096E000E0A6E000E0B6EF4
:10E8B000000E0C6E0550061007100810D8B42FD0AB
:10E8C000010E0D6E07D0D89005360636073608368D
:10E8D0000D2A00D008BE02D0F6D700D0D890093655
:10E8E0000A360B360C360550015C065002580750AC
:10E8F000035808500458D8A00AD00550015E0650AD
:10E90000025A0750035A0850045A098000D0D89080
:10E9100008320732063205320D2EE0D700D009C08A
:10E9200001F00AC002F00BC003F00CC004F01200AA
:10E9300003AE17D001C007F002C008F003C009F011
:10E94000071E081E091E072A000E08220922000EB3
:10E950000724016E000E0820026E800E0920036E4F
:10E9600000D006AE17D004C007F005C008F006C0FE
:10E9700009F0071E081E091E072A000E0822092298
:10E98000000E0724046E000E0820056E800E09207C
:10E99000066E00D0000E011A000E021A800E031A35
:10E9A000000E041A000E051A800E061A0450015CAF
:10E9B0000550025806500358D8B002D0D89002D063
:10E9C000D88000D01200000E0C6E0AAE07D0096C81
:10E9D0000A1ED8B00A2A010E0C6E00D008AE07D06D
:10E9E000076C081ED8B0082A010E0C1A00D0000EC1
:10E9F0000E6E000E0D6E09500A10D8B421D0010E13
:10EA00000B6E05D0D89009360A360B2A00D00ABE04
:10EA100002D0F8D700D0D8900D360E360950075CDA
:10EA20000A500858D8A006D00950075E0A50085A64
:10EA30000D8000D0D8900A3209320B2EECD700D0CE
:10EA40000C50D8B405D00D6C0E1ED8B00E2A00D0D4
:10EA50000DC007F00EC008F000D012000450D8B46A
:10EA600005D0015002100310D8A40ED0000E016E84
:10EA7000000E026E000E036E53D006D0042AD8900A
:10EA800003320232013200D0000E0114066E000E75
:10EA90000214076EFE0E0314086E065007100810CD
:10EAA000D8B40ED0EBD70CD0042A010E0126000EEC
:10EAB0000222000E0322D89003320232013200D02B
:10EAC000000E0114066E000E0214076EFF0E0314F2
:10EAD000086E065007100810D8B408D0E5D706D045
:10EAE0000406D89001360236033600D002BE04D0A8
:10EAF000020E0460F5D700D004B002D0029E00D010
:10EB0000D8900432045003120550D8B402D0038EBA
:10EB100000D001C001F002C002F003C003F000D039
:10EB200012000FC013F0146A156A0E34133601E395
:10EB3000148013501A6E1A50D8A402D00ED061D08F
:10EB400012C013F0146A156A1134133601E31480ED
:10EB500013501B6E1B50D8A407D0000E0D6E000E74
:10EB60000E6E000E0F6E4DD0000E176E000E186E5A
:10EB7000000E196E1B50890F1A5E0FC01BF0125049
:10EB80001B1A800E1B160E8EFF0E0D16FF0E0E1694
:10EB9000000E0F16118EFF0E1016FF0E1116000E2E
:10EBA0001216180E166E00D0D89017361836193671
:10EBB00010500D5C11500E5812500F58D8A007D0AD
:10EBC00010500D5E11500E5A12500F5A1780D890E7
:10EBD0000D360E360F36162EE7D700D017C001F0CF
:10EBE00018C002F019C003F01AC004F01BC005F0F1
:10EBF0002EEC75F001C00DF002C00EF003C00FF056
:10EC000000D0120034C036F0376A386A33343636F2
:10EC100001E337803650406E4050D8A402D039D03E
:10EC200063D0170E366E32C037F033C038F034C0C0
:10EC300039F036283A6E04D0D8903932383237322B
:10EC40003A2EFAD737503B6E338EFF0E3216FF0E38
:10EC50003316000E341632503C6E33503D6E345035
:10EC60003E6E3F6A8E0E405E40AE10D04050800A2D
:10EC70008F0FD8B003D00DD037D000D0D8903F320E
:10EC80003E323D323C32403EF9D719D0170E406437
:10EC900011D0000E326E000E336E000E346E000E78
:10ECA000356E22D007D0D8903C363D363E363F36C2
:10ECB000400600D04050D8B402D0F5D700D03B5029
:10ECC000D8B409D03F1E3E1E3D1E3C6C000E3D22B6
:10ECD0003E223F2200D03CC032F03DC033F03EC067
:10ECE00034F03FC035F000D01200B3EC72F0A5EC68
:10ECF00072F000D0910E476EFF0E486E69EC7CF00A
:10ED0000000ED6EC73F02BC069F02CC06AF02DC059
:10ED10006BF0C20E476EFF0E486E69C049F06AC0C4
:10ED20004AF06BC04BF069EC7CF0010ED6EC73F04E
:10ED30002BC069F02CC06AF02DC06BF0D60E476E68
:10ED4000FF0E486E69C049F06AC04AF06BC04BF0D4
:10ED500069EC7CF0020ED6EC73F02BC069F02CC08D
:10ED60006AF02DC06BF0EA0E476EFF0E486E69C068
:10ED700049F06AC04AF06BC04BF069EC7CF0040EBD
:10ED8000D6EC73F02BC069F02CC06AF02DC06BF08C
:10ED9000AD0E476EFF0E486E69C049F06AC04AF07A
:10EDA0006BC04BF069EC7CF0030ED6EC73F02BC01B
:10EDB00069F02CC06AF02DC06BF06F0E476EFF0E2D
:10EDC000486E69C049F06AC04AF06BC04BF069EC0C
:10EDD0007CF090D700EF00F01EC022F0236A246A76
:10EDE0001D34223601E323802250256E2550D8A4FD
:10EDF00002D00ED06CD021C022F0236A246A2034C5
:10EE0000223601E3238022502A6E2A50D8A407D04C
:10EE1000000E1C6E000E1D6E000E1E6E58D02A5085
:10EE20007B0F25261EC02AF021502A1A800E2A1692
:10EE30001D8E208EFF0E1F16FF0E2016000E2116AF
:10EE4000000E266E000E276E000E286E070E296E2D
:10EE500000D01CA007D01F5026262050272221506A
:10EE6000282200D0D8901E321D321C32D8901F3676
:10EE700020362136292EEDD700D0090E296E00D07C
:10EE80001CA007D01F5026262050272221502822C0
:10EE900000D0D8901E321D321C32D8902832273232
:10EEA0002632292EEDD700D026C001F027C002F06F
:10EEB00028C003F025C004F02AC005F02EEC75F040
:10EEC00001C01CF002C01DF003C01EF000D01200F3
:10EED000033404340C6E0C50D8A402D061D07CD022
:10EEE000063407340B6E0B50D8A402D059D074D01E
:10EEF000038EFF0E0116FF0E0216FF0E0316000E04
:10EF00000416068EFF0E0416FF0E0516FF0E0616DB
:10EF1000000E0716000E076E000E086E000E096E3A
:10EF2000000E0A6E7F0E0C5E0B50A00F0C5E200EC2
:10EF30000B6E00D0D8900736083609360A360450D2
:10EF4000015C055002580650035807500458D8A0D9
:10EF50000AD00450015E0550025A0650035A075069
:10EF6000045A078000D0D8900136023603360436A2
:10EF70000B2EE0D700D00CAE10D00C50800A9F0FA3
:10EF8000D8B003D00DD028D000D0D8900A320932A2
:10EF9000083207320C3EF9D717D01F0E0C6411D07F
:10EFA000000E016E000E026E000E036E000E046E67
:10EFB00013D007D0D8900736083609360A360C0623
:10EFC00000D00C50D8A4F6D707C001F008C002F05A
:10EFD00009C003F00AC004F0120003C007F0086A79
:10EFE000096A0234073601E3088007500F6E0F509C
:10EFF000D8A402D05DD078D006C007F0086A096AAC
:10F000000534073601E3088007500E6E0E50D8A471
:10F0100002D04ED069D0028EFF0E0116FF0E0216EE
:10F02000000E0316058EFF0E0416FF0E0516000EC9
:10F030000616000E0A6E000E0B6E000E0C6E000E11
:10F040000D6E7F0E0F5E0E50980F0F5E180E0E6E37
:10F05000D8900A360B360C360D360450015C05503C
:10F06000025806500358D8A007D00450015E05503E
:10F07000025A0650035A0A80D890013602360336E7
:10F080000E2EE6D700D00FAE10D00F50800A970F8B
:10F09000D8B003D00DD028D000D0D8900D320C328B
:10F0A0000B320A320F3EF9D717D0170E0F6411D06A
:10F0B000000E016E000E026E000E036E000E046E56
:10F0C00013D007D0D8900A360B360C360D360F0603
:10F0D00000D00F50D8A4F6D70AC001F00BC002F040
:10F0E0000CC003F00DC004F0120037C03BF03C6AC6
:10F0F0003D6A36343B3601E33C803B50406E3AC0BB
:10F100003BF03C6A3D6A39343B3601E33C803B507E
:10F110003F6E4050D8B40BD03F50405CD8B00ED0BA
:10F12000405000083F243B6E180E3B6407D038C0A7
:10F1300035F039C036F03AC037F0B8D03F50D8B4C7
:10F140000BD040503F5CD8B00ED03F500008402458
:10F150003B6E180E3B6407D035C035F036C036F034
:10F1600037C037F0A3D0060E3E6E37AE02D03E8ECB
:10F1700000D03ABE3E8C368EFF0E3516FF0E361688
:10F18000000E3716398EFF0E3816FF0E3916000E98
:10F190003A163F50405CD8B01ED0D8903836393639
:10F1A0003A363F0640503F18D8B40FD03E063EC016
:10F1B0003BF0070E3B16D8B408D0EFD706D0D89056
:10F1C000373236323532402A00D03F504018D8B45A
:10F1D00024D0F5D722D040503F5CD8B01ED0D89074
:10F1E000353636363736400640503F18D8B40FD043
:10F1F0003E063EC03BF0070E3B16D8B408D0EFD712
:10F2000006D0D8903A32393238323F2A00D03F50B7
:10F210004018D8B402D0F5D700D03EAE0CD0FF0EC7
:10F22000351AFF0E361AFF0E371A010E3526000E5C
:10F230003622000E37223EAC0DD0FF0E381AFF0EDC
:10F24000391AFF0E3A1A010E3826000E3922000E26
:10F250003A2200D0000E3E6E355038263650392204
:10F2600037503A223AAE0FD0FF0E381AFF0E391A35
:10F27000FF0E3A1A010E3826000E3922000E3A22ED
:10F28000010E3E6E00D038C001F039C002F03AC025
:10F2900003F040C004F03EC005F02EEC75F001C054
:10F2A00035F002C036F003C037F000D01200346EE3
:10F2B0006D0E34649BD0000E126E030E116E000EA4
:10F2C0000A6E0A0E096E000E046E640E036E34C0E0
:10F2D00001F0026A11EC74F001C007F002C008F0FE
:10F2E000E3EC74F0090E07240F6E000E0820106E78
:10F2F000E2EC72F0210E0F24F66EFF0E1020F76E76
:10F300000900F5CF1FF00900F5CF20F00A00F5CF76
:10F3100021F0000E0A6E640E096E34C007F0086A10
:10F32000E3EC74F0120E07240F6E000E0820106E2E
:10F33000000E126E030E116EE2EC72F0210E0F241D
:10F34000F66EFF0E1020F76E0900F5CF1CF00900D5
:10F35000F5CF1DF00A00F5CF1EF0ECEC76F01CC0E6
:10F3600031F01DC032F01EC033F0000E126E030EDD
:10F37000116E000E046E0A0E036E34C001F0026AB4
:10F3800011EC74F001C00FF002C010F0E2EC72F06A
:10F39000210E0F24F66EFF0E1020F76E0900F5CF38
:10F3A0001FF00900F5CF20F00A00F5CF21F031C0A1
:10F3B0001CF032C01DF033C01EF0ECEC76F01CC027
:10F3C0002EF01DC02FF01EC030F02EC01CF02FC03C
:10F3D0001DF030C01EF0000E1F6E000E206E3F0E9E
:10F3E000216EECEC76F07DD083D062D00A0E3464CE
:10F3F0005FD0000E126E030E116E000E046E0A0E28
:10F40000036E34C001F0026A11EC74F001C00FF019
:10F4100002C010F0E2EC72F0210E0F24F66EFF0E27
:10F420001020F76E0900F5CF1FF00900F5CF20F08E
:10F430000A00F5CF21F0000E0A6E0A0E096E34C0E4
:10F4400007F0086AE3EC74F0090E07240F6E000E53
:10F450000820106E000E126E030E116EE2EC72F0B8
:10F46000210E0F24F66EFF0E1020F76E0900F5CF67
:10F470001CF00900F5CF1DF00A00F5CF1EF0ECECF2
:10F4800076F01CC031F01DC032F01EC033F031C028
:10F490001CF032C01DF033C01EF0000E1F6E000EB7
:10F4A000206E3F0E216EECEC76F01BD021D000D008
:10F4B0003450030D210EF324F66EFF0EF420F76E88
:10F4C0000900F5CF1CF00900F5CF1DF00A00F5CFBB
:10F4D0001EF0000E1F6E000E206E3F0E216EECEC33
:10F4E00076F01CC02BF01DC02CF01EC02DF000D0FB
:10F4F0001200316E31AEEFD0316C3150800A120FF4
:10F50000D8A08DD0000E126E030E116E000E0A6E82
:10F510000A0E096E000E046E640E036E3150016E09
:10F52000026A01BE020611EC74F001C007F002C0CD
:10F5300008F0E3EC74F0090E07240F6E000E0820AB
:10F54000106EE2EC72F0210E0F24F66EFF0E10200A
:10F55000F76E0900F5CF1FF00900F5CF20F00A0083
:10F56000F5CF21F0000E0A6E640E096E3150076E61
:10F57000086A07BE0806E3EC74F0120E07240F6E4B
:10F58000000E0820106E000E126E030E116EE2ECDB
:10F5900072F0210E0F24F66EFF0E1020F76E090098
:10F5A000F5CF1CF00900F5CF1DF00A00F5CF1EF0D5
:10F5B000ECEC76F01CC02EF01DC02FF01EC030F019
:10F5C0002EC01CF02FC01DF030C01EF0000E126EB9
:10F5D000030E116E000E046E0A0E036E3150016EA2
:10F5E000026A01BE020611EC74F001C00FF002C005
:10F5F00010F0E2EC72F0210E0F24F66EFF0E1020D8
:10F60000F76E0900F5CF1FF00900F5CF20F00A00D2
:10F61000F5CF21F0ECEC76F041D15AD154D03150F5
:10F62000800A750FD8A04FD0000E0A6E0A0E096E20
:10F630003150076E086A07BE0806E3EC74F0090E45
:10F6400007240F6E000E0820106E000E126E030EBF
:10F65000116EE2EC72F0210E0F24F66EFF0E1020F8
:10F66000F76E0900F5CF1CF00900F5CF1DF00A0078
:10F67000F5CF1EF0000E126E030E116E000E046E1A
:10F680000A0E036E3150016E026A01BE020611ECD1
:10F6900074F001C00FF002C010F0E2EC72F0210E25
:10F6A0000F24F66EFF0E1020F76E0900F5CF1FF045
:10F6B0000900F5CF20F00A00F5CF21F0ECEC76F050
:10F6C000EDD006D100D03150030D210EF324F66E9B
:10F6D000FF0EF2D0FDD03150800A120FD8A08DD08D
:10F6E000000E126E030E116E000E0A6E0A0E096EE7
:10F6F000000E046E640E036E3150016E026A01BE8C
:10F70000020611EC74F001C007F002C008F0E3EC4F
:10F7100074F0090E07240F6E000E0820106EE2EC44
:10F7200072F0480E0F24F66EFF0E1020F76E0900DF
:10F73000F5CF1FF00900F5CF20F00A00F5CF21F03A
:10F74000000E0A6E640E096E3150076E086A07BE1D
:10F750000806E3EC74F0120E07240F6E000E08206A
:10F76000106E000E126E030E116EE2EC72F0480E77
:10F770000F24F66EFF0E1020F76E0900F5CF1CF077
:10F780000900F5CF1DF00A00F5CF1EF0ECEC76F085
:10F790001CC02EF01DC02FF01EC030F02EC01CF07B
:10F7A0002FC01DF030C01EF0000E126E030E116E41
:10F7B000000E046E0A0E036E3150016E026A01BE25
:10F7C000020611EC74F001C00FF002C010F0E2EC80
:10F7D00072F0480E0F24F66EFF0E1020F76E09002F
:10F7E000F5CF1FF00900F5CF20F00A00F5CF21F08A
:10F7F000ECEC76F053D06CD059D03150800A750FB4
:10F80000D8A054D0000E0A6E0A0E096E3150076E51
:10F81000086A07BE0806E3EC74F0090E07240F6EB1
:10F82000000E0820106E000E126E030E116EE2EC38
:10F8300072F0480E0F24F66EFF0E1020F76E0900CE
:10F84000F5CF1CF00900F5CF1DF00A00F5CF1EF032
:10F85000000E126E030E116E000E046E0A0E036E81
:10F860003150016E026A01BE020611EC74F001C053
:10F870000FF002C010F0E2EC72F0480E0F24F66EAA
:10F88000FF0E1020F76E0900F5CF1FF00900F5CF2D
:10F8900020F00A00F5CF21F0ECEC76F01CC02BF044
:10F8A0001DC02CF01EC02DF013D000D03150030D20
:10F8B000480EF324F66EFF0EF420F76E0900F5CF24
:10F8C0002BF00900F5CF2CF00A00F5CF2DF000D079
:10F8D0001200490E556E000E566EFFD2250E6818A6
:10F8E000D8B404D06850ACEC72F0F7D2000E586E69
:10F8F000000E576E05D0FFD2588413D0EED211D02F
:10F9000047C0F6FF48C0F7FF474A482A0800F5CF2E
:10F9100068F06850000AD8B4EED2660AD8B4ECD7C2
:10F92000DCD2070E5814D8B4CAD2000E5A6E060E96
:10F93000596E55C0D9FF56C0DAFFDECF65F0DECF75
:10F9400066F0DDCF67F0030E5526000E562267AE37
:10F9500011D065C001F066C002F067C003F0BDECD5
:10F9600072F001C065F002C066F003C067F0030EDC
:10F97000571200D0000E606E000E5F6E655066106C
:10F980006710D8B485D0820E4C6EFF0E4D6E65C0E8
:10F990004EF066C04FF067C050F068C051F0100ED6
:10F9A00005D0D890513250324F324E32E82EF9D72E
:10F9B0004E504C245F6E000E4D20606E5F06D8A046
:10F9C00060065FC00FF060C010F0000E126E030EF4
:10F9D000116EE2EC72F00FC05FF010C060F05FC01B
:10F9E00007F060C008F0000E0A6E0A0E096EE3EC24
:10F9F00074F007C05FF008C060F060AE04D05F062E
:10FA0000D8A0600600D05F50000879EC7AF02BC0D7
:10FA100061F02CC062F02DC063F061C01CF062C0C8
:10FA20001DF063C01EF065C01FF066C020F067C007
:10FA300021F0ECEC76F01CC061F01DC062F01EC03D
:10FA400063F061C001F062C002F063C003F0000E19
:10FA5000046E800E056E3F0E066E98EC74F0D8B002
:10FA600004D05F06D8A0600613D061C001F062C068
:10FA700002F063C003F0000E046E200E056E410E0E
:10FA8000066E98EC74F0D8A003D05F4A602A00D0CC
:10FA90005ABE06D05A501CE10D0E595CD8B018D091
:10FAA00065C035F066C036F067C037F0595057EC86
:10FAB00079F02BC038F02CC039F02DC03AF075EC3D
:10FAC00078F035C065F036C066F037C067F000D01A
:10FAD00060BE06D0605020E10A0E5F5CD8B01CD03A
:10FAE000655066106710D8B46DD065C032F066C03E
:10FAF00033F067C034F002EC76F03250331034103B
:10FB00003510D8B460BE5ED0605006E1020E5F5C76
:10FB1000D8B002D057D000D061C001F062C002F06E
:10FB200063C003F0700E046E890E056E400E066E03
:10FB300098EC74F0D8B002D0F70E01D0F80E5F2622
:10FB4000FF0E602200D05F5079EC7AF02BC061F09C
:10FB50002CC062F02DC063F017D065C001F066C004
:10FB600002F067C003F061C004F062C005F063C03A
:10FB700006F068EC77F001C05BF002C05CF003C0F7
:10FB80005DF004C05EF017D065C001F066C002F001
:10FB900067C003F061C004F062C005F063C006F006
:10FBA000EDEC77F001C05BF002C05CF003C05DF0EB
:10FBB00004C05EF000D0000E656E000E666E000E92
:10FBC000676E33D065C032F066C033F067C034F082
:10FBD00002EC76F032C05BF033C05CF034C05DF014
:10FBE00035C05EF065C041F066C042F067C043F0CA
:10FBF0005BC009F05CC00AF05DC00BF05EC00CF0A9
:10FC000036EC73F009C044F00AC045F00BC046F072
:10FC100014EC73F041C065F042C066F043C067F079
:10FC2000000E606E000E5F6E00D0010E686E0A0E50
:10FC30006818D8B41CD001D01AD06850040DF90E41
:10FC4000F324F66EFE0EF420F76E0900F5505B5CAF
:10FC50000900F5505C580900F5505D580900F55051
:10FC60005E58D8A004D001D002D0682AE0D7030E95
:10FC700057144C6E000E58144D6E4C504D10D8B4A5
:10FC800049D02D0EACEC72F045D05BC001F05CC0E9
:10FC900002F05DC003F05EC004F06850040DF90E80
:10FCA000F324F66EFE0EF420F76E0900F5CF05F092
:10FCB0000900F5CF06F00900F5CF07F00A00F5CFEF
:10FCC00008F052EC74F001C061F002C062F003C0B1
:10FCD00063F004C064F061C001F062C002F063C070
:10FCE00003F064C004F00A0E056E000E066E000EEE
:10FCF000076E000E086E9EEC73F001C061F002C04A
:10FD000062F003C063F004C064F06150300FACECEB
:10FD100072F000D068066828D8B409D0B6D707D0EA
:10FD2000300EACEC72F05F06D8A0600600D060BE6A
:10FD300005D06050F5E15F04D8B0F2D75ABE09D0C3
:10FD40005A5004E1090E595CD8A003D0080E686E21
:10FD500003D059C068F000D06850595E000E68BEEC
:10FD6000FF0E5A5A6850D8B404D02E0EACEC72F084
:10FD700000D0685079EC7AF02BC052F02CC053F0D0
:10FD80002DC054F065C01FF066C020F067C021F0A0
:10FD900052C01CF053C01DF054C01EF0ECEC76F0C5
:10FDA0001CC032F01DC033F01EC034F002EC76F0FF
:10FDB00032C05BF033C05CF034C05DF035C05EF043
:10FDC0006BD05BC001F05CC002F05DC003F05EC0B0
:10FDD00004F06850040DF90EF324F66EFE0EF420C4
:10FDE000F76E0900F5CF05F00900F5CF06F0090020
:10FDF000F5CF07F00A00F5CF08F052EC74F001C01F
:10FE000061F002C062F003C063F004C064F061C03E
:10FE100001F062C002F063C003F064C004F00A0E97
:10FE2000056E000E066E000E076E000E086E9EEC4C
:10FE300073F001C061F002C062F003C063F004C05F
:10FE400064F06150300FACEC72F05BC001F05CC04C
:10FE500002F05DC003F05EC004F06850040DF90EBE
:10FE6000F324F66EFE0EF420F76E0900F5CF05F0D0
:10FE70000900F5CF06F00900F5CF07F00A00F5CF2D
:10FE800008F09EEC73F001C05BF002C05CF003C0B0
:10FE90005DF004C05EF000D068066828D8B409D0D0
:10FEA00090D707D0300EACEC72F05906D8A05A06A5
:10FEB00000D059505A10D8B410D0F4D70ED0030E39
:10FEC00057144C6E000E58144D6E4C504D10D8B453
:10FED00004D02D0EACEC72F000D047C0F6FF48C045
:10FEE000F7FF474A482A0800F5CF68F06850D8B4B1
:10FEF00002D0F4D400D0120000010000000A00007B
:10FF00000064000000E803000010270000A0860144
:10FF10000040420F008096980000E1F50500CA9A63
:10FF20003B00803FCDCC3DD7233C12833AB7D1383C
:10FF3000C62737388635C0D633CC2B32708930E7A8
:10FF4000DB2EE53C1E42A20D00803F00204100C890
:10FF500042007A44401C4650C34724744997184BCA
:10FF6000BCBE4C6B6E4E03155079AD60F3497152B7
:10FF700065666572656E636520766F6C7461676532
:10FF800020617420414E332069732025660D0A0AD2
:10FF90000054657374696E6720412F4420436F6E6F
:10FFA0006E656374696F6E73202E2E2E00566F6C13
:10FFB0007420617420414E342069732025660D0A37
:10FFC0000A00566F6C7420617420414E30206973B2
:10FFD0002025660D0A00566F6C7420617420414E16
:10FFE000312069732025660D0A00566F6C742061FC
:10FFF0007420414E322069732025660D0A000000EE
:020000040020DA
:08000000FFFFFFFFFFFFFFFF00
:020000040030CA
:0E000000FF08191EFF8381FF0FC00FE00F40A5
:00000001FF
