:040000000CEF00F011
:10000800FACF01F0FBCF02F0E9CF03F0D7ED0FF004
:10001800FDEF10F04CEC14F0ADEC13F0000E236E75
:10002800000E226EFAEC13F0AC0E476E000E486E0E
:1000380047C00FF048C010F0E40E116EFF0E126EAC
:1000480067EC13F0020E376E47C038F048C039F03D
:10005800FF0E3B6E3A68000E3D6E000E3C6E010EC0
:100068003E6E020E24EC0AF0020E376E640E386EF5
:10007800000E396EFF0E3B6E3A68000E3D6E000EA4
:100088003C6E010E3E6E230E24EC0AF047C00FF0C2
:1000980048C010F0EA0E116EFF0E126E67EC13F0F6
:1000A800020E376E47C038F048C039F0FF0E3B6E7D
:1000B8003A68000E3D6E000E3C6E010E3E6E320E2A
:1000C80024EC0AF0020E376E960E386E000E396E6A
:1000D800FF0E3B6E3A68000E3D6E000E3C6E010E40
:1000E8003E6E4B0E24EC0AF047C00FF048C010F0EB
:1000F800F70E116EFF0E126E67EC13F0020E376EDC
:10010800610E386E000E396EFF0E3B6E3A68000EB7
:100118003D6E000E3C6E010E3E6E640E24EC0AF03D
:1001280047C00FF048C010F0FC0E116EFF0E126EA3
:1001380067EC13F0020E376E47C038F048C039F04C
:10014800FF0E3B6E3A68000E3D6E000E3C6E010ECF
:100158003E6E780E24EC0AF047C00FF048C010F04D
:10016800AA0E116EFF0E126E67EC13F00B0E376EAF
:1001780047C038F048C039F0FF0E3B6E3A68000EB1
:100188003D6E000E3C6E010E3E6E010E24EC0AF030
:10019800140E376E700E386E000E396EFF0E3B6E01
:1001A8003A68000E3D6E000E3C6E010E3E6E080E63
:1001B80024EC0AF0140E376E6E0E386E000E396E8F
:1001C800FF0E3B6E3A68000E3D6E000E3C6E010E4F
:1001D8003E6E230E24EC0AF0140E376E6C0E386E49
:1001E800000E396EFF0E3B6E3A68000E3D6E000E33
:1001F8003C6E010E3E6E3C0E24EC0AF0140E376E77
:100208006A0E386E000E396EFF0E3B6E3A68000EAD
:100218003D6E000E3C6E010E3E6E550E24EC0AF04B
:10022800140E376E660E386E000E396EFF0E3B6E7A
:100238003A68000E3D6E000E3C6E010E3E6E6C0E6E
:1002480024EC0AF0140E376E680E386E000E396E04
:10025800FF0E3B6E3A68000E3D6E000E3C6E010EBE
:100268003E6E770E24EC0AF047C00FF048C010F03D
:10027800C00E116EFF0E126E67EC13F01E0E376E75
:1002880047C038F048C039F0000E3B6E1F0E3A6E7A
:10029800000E3D6E000E3C6E010E3E6E1E0E24ECEE
:1002A8000AF0000E226E1E0E216E000E246E260E1F
:1002B800236E000E266E3C0E256E000E286E120E62
:1002C800276E000E2A6E1F0E296ECAEC10F0000E63
:1002D8001B6E280E1A6E000E1D6E2E0E1C6E000E62
:1002E8001F6E070E1E6EF80E216E000E206EB9EC02
:1002F80006F0000E1B6E3C0E1A6E000E1D6E2E0EC2
:100308001C6E000E1F6E070E1E6EFF0E216EE00E95
:10031800206EB9EC06F0000E3A6E500E396E000EE3
:100328003C6E2E0E3B6E000E3E6E070E3D6E070EA7
:10033800406EE00E3F6EB1EC11F0280E376EA10E44
:10034800386E000E396E000E3B6E1F0E3A6E000EB0
:100358003D6E000E3C6E020E3E6E640E24EC0AF0FA
:1003680047C00FF048C010F0D60E116EFF0E126E87
:1003780067EC13F03C0E376E47C038F048C039F0D0
:10038800F80E3B6E1F0E3A6E000E3D6E000E3C6E70
:10039800010E3E6E1E0E24EC0AF0000E226E1E0E9A
:1003A800216E000E246E440E236E000E266E3C0E47
:1003B800256E000E286E120E276EF80E2A6E1F0E7E
:1003C800296ECAEC10F0000E3A6E280E396E000E37
:1003D8003C6E4C0E3B6E000E3E6E070E3D6EF80EE8
:1003E800406E000E3F6EB1EC11F0000E1B6E3C0E1D
:1003F8001A6E000E1D6E4C0E1C6E000E1F6E070E40
:100408001E6EFF0E216EE00E206EB9EC06F0000E97
:100418001B6E500E1A6E000E1D6E4C0E1C6E000EDA
:100428001F6E070E1E6E070E216EE00E206EB9ECD1
:1004380006F0460E376E9E0E386E000E396EF80EB8
:100448003B6E1F0E3A6E000E3D6E000E3C6E020EA5
:100458003E6E640E24EC0AF047C00FF048C010F05E
:10046800CC0E116EFF0E126E67EC13F05A0E376E3B
:1004780047C038F048C039F0070E3B6E3A68000EA6
:100488003D6E000E3C6E010E3E6E1E0E24EC0AF010
:10049800000E226E1E0E216E000E246E620E236E5A
:1004A800000E266E3C0E256E000E286E120E276E6C
:1004B800070E2A6E2968CAEC10F0000E3A6E280E54
:1004C800396E000E3C6E6A0E3B6E000E3E6E070ED5
:1004D8003D6EF80E406E000E3F6EB1EC11F0000E4E
:1004E8001B6E3C0E1A6E000E1D6E6A0E1C6E000E00
:1004F8001F6E070E1E6EFF0E216EE00E206EB9EC09
:1005080006F0000E1B6E500E1A6E000E1D6E6A0E5F
:100518001C6E000E1F6E070E1E6E070E216EE00E7B
:10052800206EB9EC06F0640E376E5E0E386E000E63
:10053800396E070E3B6E3A68000E3D6E000E3C6E3B
:10054800020E3E6E640E24EC0AF047C00FF048C05D
:1005580010F0DD0E116EFF0E126E67EC13F0780EC0
:10056800376E47C038F048C039F0FF0E3B6E3A6826
:10057800000E3D6E000E3C6E010E3E6E1E0E24EC0B
:100588000AF0000E226E1E0E216E000E246E800EE2
:10059800236E000E266E3C0E256E000E286E120E7F
:1005A800276EFF0E2A6E2968CAEC10F0000E3A6E0C
:1005B800280E396E000E3C6E880E3B6E000E3E6EA5
:1005C800070E3D6EF80E406E000E3F6EB1EC11F056
:1005D800000E1B6E3C0E1A6E000E1D6E880E1C6EF1
:1005E800000E1F6E070E1E6EFF0E216EE00E206EAF
:1005F800B9EC06F0000E1B6E500E1A6E000E1D6E42
:10060800880E1C6E000E1F6E070E1E6E070E216EE2
:10061800E00E206EB9EC06F0820E376E9B0E386E37
:10062800000E396EFF0E3B6E3A68000E3D6E000EEE
:100638003C6E020E3E6E640E24EC0AF047C00FF0CA
:1006480048C010F0EF0E116EFF0E126E67EC13F03B
:100658001E0E376E47C038F048C039F0000E3B6EAA
:100668001F0E3A6E000E3D6E000E3C6E010E3E6E81
:10067800030E24EC0AF0280E376EA70E386E000E13
:10068800396E000E3B6E1F0E3A6E000E3D6E000E68
:100698003C6E020E3E6E020E24EC0AF047C00FF0CC
:1006A80048C010F0F30E116EFF0E126E67EC13F0D7
:1006B8005A0E376E47C038F048C039F0070E3B6E07
:1006C8003A68000E3D6E000E3C6E010E3E6E030E43
:1006D80024EC0AF0640E376EA40E386E000E396EE4
:1006E800070E3B6E3A68000E3D6E000E3C6E020E21
:1006F8003E6E020E24EC0AF005D0530E0001806F06
:10070800500E04D0460E0001806F530E0001816F19
:10071800320E0001826F350E0001836F310E000129
:10072800856F300E0001876F350E0001886F380E17
:1007380000018A6F370E00018B6F380E00018C6F35
:10074800370E00018D6F360E00018E6F370E0001D7
:100758008F6F360E0001916F370E0001926F360EC3
:100768000001936F380E0001946F960E376E800E5D
:10077800386E000E396EFF0E3B6E3A68000E3D6E05
:10078800000E3C6E010E3E6E010E24EC0AF01200C3
:10079800426E42501E0DF3502E0F436E4150D8A4A6
:1007A80067D0000E3A6E280E396E43C03BF03C6AA3
:1007B800000E3E6E070E3D6E000E406E000E3F6E40
:1007C800B1EC11F0000E3A6E3C0E396E43C03BF0AE
:1007D8003C6A000E3E6E070E3D6E000E406E000E27
:1007E8003F6EB1EC11F0000E3A6E500E396E43C0F8
:1007F8003BF03C6A000E3E6E070E3D6E000E406EEA
:10080800000E3F6EB1EC11F0000E1B6E280E1A6E32
:1008180043C01CF01D6A000E1F6E070E1E6EF80EF8
:10082800216E000E206EB9EC06F0000E1B6E3C0E19
:100838001A6E43C01CF01D6A000E1F6E070E1E6E56
:10084800FF0E216EE00E206EB9EC06F0000E1B6E56
:10085800500E1A6E43C01CF01D6A000E1F6E070E64
:100868001E6E070E216EE00E206EB9EC06F000D069
:100878004104D8A467D0000E3A6E280E396E43C0E2
:100888003BF03C6A000E3E6E070E3D6EF80E406E61
:10089800000E3F6EB1EC11F0000E3A6E3C0E396E50
:1008A80043C03BF03C6A000E3E6E070E3D6E000EE4
:1008B800406E000E3F6EB1EC11F0000E3A6E500E15
:1008C800396E43C03BF03C6A000E3E6E070E3D6E2B
:1008D800000E406E000E3F6EB1EC11F0000E1B6E64
:1008E800280E1A6E43C01CF01D6A000E1F6E070EFC
:1008F8001E6EF80E216E000E206EB9EC06F0000E8A
:100908001B6E3C0E1A6E43C01CF01D6A000E1F6E53
:10091800070E1E6EFF0E216EE00E206EB9EC06F07B
:10092800000E1B6E500E1A6E43C01CF01D6A000E9E
:100938001F6E070E1E6E070E216EE00E206EB9ECBC
:1009480006F000D0030E4118D8A467D0000E3A6E06
:10095800280E396E43C03BF03C6A000E3E6E070E0F
:100968003D6E000E406E000E3F6EB1EC11F0000EB1
:100978003A6E3C0E396E43C03BF03C6A000E3E6E48
:10098800070E3D6EFF0E406EE00E3F6EB1EC11F0AB
:10099800000E3A6E500E396E43C03BF03C6A000EB2
:1009A8003E6E070E3D6E000E406E000E3F6EB1ECBF
:1009B80011F0000E1B6E280E1A6E43C01CF01D6A43
:1009C800000E1F6E070E1E6EF80E216E000E206EB2
:1009D800B9EC06F0000E1B6E3C0E1A6E43C01CF0FC
:1009E8001D6A000E1F6E070E1E6EFF0E216EE00EB2
:1009F800206EB9EC06F0000E1B6E500E1A6E43C046
:100A08001CF01D6A000E1F6E070E1E6E070E216E6B
:100A1800E00E206EB9EC06F000D0020E4118D8A402
:100A280067D0000E3A6E280E396E43C03BF03C6A20
:100A3800000E3E6E070E3D6E000E406E000E3F6EBD
:100A4800B1EC11F0000E3A6E3C0E396E43C03BF02B
:100A58003C6A000E3E6E070E3D6E000E406E000EA4
:100A68003F6EB1EC11F0000E3A6E500E396E43C075
:100A78003BF03C6A000E3E6E070E3D6E070E406E60
:100A8800E00E3F6EB1EC11F0000E1B6E280E1A6ED0
:100A980043C01CF01D6A000E1F6E070E1E6EF80E76
:100AA800216E000E206EB9EC06F0000E1B6E3C0E97
:100AB8001A6E43C01CF01D6A000E1F6E070E1E6ED4
:100AC800FF0E216EE00E206EB9EC06F0000E1B6ED4
:100AD800500E1A6E43C01CF01D6A000E1F6E070EE2
:100AE8001E6E070E216EE00E206EB9EC06F000D0E7
:100AF8001200D6EC13F00FC0D2F010C0D3F0000EE5
:100B080093EC10F02AC0D4F02BC0D5F02CC0D6F04E
:100B1800D4C00FF0D5C010F0D6C011F0000E126E80
:100B2800200E136E400E146EBCEC0EF0D8B002D03E
:100B3800010E01D0000E506ED4C026F0D5C027F0AB
:100B4800D6C028F09EEC0BF02650300F0001966FAF
:100B5800000E1A6E200E1B6E410E1C6ED4C017F0CC
:100B6800D5C018F0D6C019F0A9EC0AF017C026F0C5
:100B780018C027F019C028F09EEC0BF026C035F0FD
:100B880027C036F0000E386E0A0E376E1AEC10F0D9
:100B98003550300F0001986F5050D8A402D04E0E37
:100BA80001D0440E626E5150D8A402D04E0E01D02E
:100BB800440E646E00D04AC055F0000E80B8010E95
:100BC800546E52C057F0000E80B2010E566E575048
:100BD800D8A402D0300E01D0310E706E5550D8A472
:100BE80002D0300E01D0310E6C6E5650D8A402D00F
:100BF800300E01D0310E6E6E5450D8A402D0300E93
:100C080001D0310E6A6E4B50D8A402D0300E01D0FC
:100C1800310E666E4C50D8A402D0300E01D0310E81
:100C2800686E00D0020E376E640E386E000E396E94
:100C3800FF0E3B6E3A68000E3D6E000E3C6E010ED4
:100C48003E6E230E24EC0AF0020E376E960E386EB6
:100C5800000E396EFF0E3B6E3A68000E3D6E000EB8
:100C68003C6E010E3E6E4B0E24EC0AF0020E376EFF
:100C7800610E386E000E396EFF0E3B6E3A68000E3C
:100C88003D6E000E3C6E010E3E6E640E24EC0AF0C2
:100C9800140E376E700E386E000E396EFF0E3B6EF6
:100CA8003A68000E3D6E000E3C6E010E3E6E080E58
:100CB80024EC0AF0140E376E6E0E386E000E396E84
:100CC800FF0E3B6E3A68000E3D6E000E3C6E010E44
:100CD8003E6E230E24EC0AF0140E376E6C0E386E3E
:100CE800000E396EFF0E3B6E3A68000E3D6E000E28
:100CF8003C6E010E3E6E3C0E24EC0AF0140E376E6C
:100D08006A0E386E000E396EFF0E3B6E3A68000EA2
:100D18003D6E000E3C6E010E3E6E550E24EC0AF040
:100D2800140E376E660E386E000E396EFF0E3B6E6F
:100D38003A68000E3D6E000E3C6E010E3E6E6C0E63
:100D480024EC0AF0140E376E680E386E000E396EF9
:100D5800FF0E3B6E3A68000E3D6E000E3C6E010EB3
:100D68003E6E770E24EC0AF012001EC022F01FC05F
:100D780023F0221E231E224A232A010E2224286E33
:100D8800000E2320296E000E256E010E246E1EC053
:100D980022F01FC023F0D89022362336221E231EAD
:100DA800224A232A22C026F023C027F0000E2B6EE9
:100DB800000E2A6E1EC02CF01FC02DF01C501E24E1
:100DC800166E20C017F021C018F01A5080EC13F0EE
:100DD8001E5000081C24166E20C017F021C018F001
:100DE8001A5080EC13F01CC016F020C017F021C078
:100DF80018F01A501E2480EC13F01CC016F020C006
:100E080017F021C018F01E5000081A2480EC13F0C7
:100E180078D029BE0BD02C06D8A02D06020E262687
:100E2800000E272226502826275029222A4A2B2A14
:100E3800020E2426000E2522245028262550292279
:100E48001C502C24166E20C017F021C018F01A5020
:100E58002A2480EC13F01C502C24166E20C017F0A6
:100E680021C018F02A5000081A2480EC13F02C50E6
:100E780000081C24166E20C017F021C018F01A5064
:100E88002A2480EC13F02C5000081C24166E20C075
:100E980017F021C018F02A5000081A2480EC13F02B
:100EA8001C502A24166E20C017F021C018F01A50C2
:100EB8002C2480EC13F01C502A24166E20C017F046
:100EC80021C018F02C5000081A2480EC13F02A5086
:100ED80000081C24166E20C017F021C018F01A5004
:100EE8002C2480EC13F02A5000081C24166E20C015
:100EF80017F021C018F02C5000081A2480EC13F0C9
:100F080000D02C502A5C2B50800A226E2D50800A6B
:100F18002258D8A07ED71200426EB4D041C00FF03C
:100F2800106A000E126E0A0E116E71EC0EF00F5060
:100F3800300F0001A16F41C035F0366A000E386EDF
:100F48000A0E376E1AEC10F03550300F0001A26F00
:100F5800280E376EA10E386E000E396E000E3B6EED
:100F68001F0E3A6E000E3D6E000E3C6E020E3E6E77
:100F7800640E24EC0AF094D041C00FF0106A000E01
:100F8800126E0A0E116E71EC0EF00F50300F5E6E7D
:100F980041C035F0366A000E386E0A0E376E1AEC0C
:100FA80010F03550300F5F6E640E376E5E0E386E7F
:100FB800000E396E070E3B6E3A68000E3D6E000E4D
:100FC8003C6E020E3E6E640E24EC0AF069D041C0FD
:100FD8000FF0106A000E126E0A0E116E71EC0EF010
:100FE8000F50300F00019B6F41C035F0366A000E7C
:100FF800386E0A0E376E1AEC10F03550300F0001BB
:101008009C6F820E376E9B0E386E000E396EFF0E87
:101018003B6E3A68000E3D6E000E3C6E020E3E6E50
:10102800640E24EC0AF03CD041C00FF0106A000EA8
:10103800126E0A0E116E71EC0EF00F50300F000197
:101048009E6F41C035F0366A000E386E0A0E376E54
:101058001AEC10F03550300F00019F6F460E376EB6
:101068009E0E386E000E396EF80E3B6E1F0E3A6EED
:10107800000E3D6E000E3C6E020E3E6E640E24ECB9
:101088000AF00ED04250000AD8B448D7010AD8B4A2
:10109800CBD7030AD8B470D7010AD8B498D700D0F0
:1010A8001200346E800E3460A6D09F0E2C6401D0DE
:1010B800A2D03250D8A403D0010E326E00D01F0E39
:1010C8002D6404D07E0E2D6403D000D03F0E2D6E0B
:1010D800000E366E040E366401D08DD0530E2D608E
:1010E80015D0E00E2D240F6E106AFF0E1022000E90
:1010F800126E050E116EC2EC13F036500F26000E5C
:101108001022CF0E0F24F66EFD0E14D0AD0E2D2436
:101118000F6E106AFF0E1022000E126E050E116E71
:10112800C2EC13F036500F26000E1022CE0E0F24FC
:10113800F66EFE0E1020F76E0800F5CF33F000D0E3
:10114800000E356E060E356401D053D033A023D07F
:101158003204D8A40CD02C503524166E2EC017F0AB
:101168002FC018F03450362480EC13F03ED03550A0
:101178003202F3502C24216E32C022F032C023F008
:101188002EC024F02FC025F036503202F3503424FC
:1011980001EC12F02AD02E50301804E12F503118EB
:1011A800D8B423D03204D8A40CD02C503524166ED1
:1011B80030C017F031C018F03450362480EC13F0EA
:1011C80014D035503202F3502C24216E32C022F054
:1011D80032C023F030C024F031C025F0365032023E
:1011E800F350342401EC12F000D0352AD890333271
:1011F800A9D7362A6FD7120025C02DF026C02EF0A9
:101208002D1E2E1E2D4A2E2A010E2D24336E000E61
:101218002E20346E000E306E010E2F6E25C02DF07C
:1012280026C02EF0D8902D362E362D1E2E1E2D4A75
:101238002E2A2DC031F02EC032F0000E366E000E70
:10124800356E25C037F026C038F067D034BE0BD0D5
:101258003706D8A03806020E3126000E3222315049
:10126800332632503422354A362A020E2F26000EF3
:1012780030222F5033263050342227A025D0375023
:1012880000082324166E3750372429242D6E2D2864
:10129800176E2BC018F02CC019F02150352493EC90
:1012A8000FF0355000082324166E355035242924B4
:1012B8002D6E2D28176E2BC018F02CC019F0215058
:1012C800372493EC0FF000D027A227D0375000081E
:1012D8002324166E3750372429242D6E2D28176E97
:1012E8002BC018F02CC019F035500008212493ECBD
:1012F8000FF0355000082324166E35503524292464
:101308002D6E2D28176E2BC018F02CC019F03750F1
:101318000008212493EC0FF000D03750355C36508C
:10132800800A2D6E3850800A2D58D8A08FD7120009
:10133800010E66EC14F0000E166E960E156E88EC13
:1013480011F0110E66EC14F0010E166EF40E156E07
:1013580088EC11F0B10E66EC14F0010E5EEC14F09E
:101368002C0E5EEC14F02D0E5EEC14F0B20E66EC52
:1013780014F0010E5EEC14F02C0E5EEC14F02D0E41
:101388005EEC14F0B30E66EC14F0010E5EEC14F093
:101398002C0E5EEC14F02D0E5EEC14F0010E5EECDB
:1013A80014F02C0E5EEC14F02D0E5EEC14F0B40E5E
:1013B80066EC14F0070E5EEC14F0C00E66EC14F048
:1013C800A20E5EEC14F0020E5EEC14F0840E5EECDD
:1013D80014F0C10E66EC14F0C50E5EEC14F0C20EEB
:1013E80066EC14F00A0E5EEC14F0000E5EEC14F0DD
:1013F800C30E66EC14F08A0E5EEC14F02A0E5EEC56
:1014080014F0C40E66EC14F08A0E5EEC14F0EE0EC6
:101418005EEC14F0C50E66EC14F00E0E5EEC14F0E3
:10142800200E66EC14F0360E66EC14F0C80E5EEC76
:1014380014F03A0E66EC14F0050E5EEC14F012008F
:101448000001CB6FCBC0D1F037C0D0F038C00FF05F
:1014580039C010F0D5EC12F00FC0CCF010C0CDF0B0
:10146800000E0001CF6F000ECE6F64D05D50D8B46F
:1014780034D03E50050D0001D1513F6E406AF35003
:101488003F26F450402240BE28D0405004E1810E4F
:101498003F5CD8A022D0000E0001D16F3E50070D4E
:1014A800F3500001D025030F0001D06FA00E0001FA
:1014B800D06504D0A00E0001D06F00D00001CE513D
:1014C8003824D96E0001CF513920DA6E200EDE188B
:1014D800D8B42CD002D02AD000D0D0C02CF0000133
:1014E800CE513824D96E0001CF513920DA6EDF5041
:1014F8002D6E3AC02EF03BC02FF03CC030F03DC0FE
:1015080031F03EC032F00001D15155EC08F03E50A8
:10151800060DF3500001D1250001D16F800E0001A6
:10152800D16504D0800E0001D16F00D00001CE4BF0
:10153800CF2B00D00001CC510001CE5D0001CD5170
:101548000001CF59D8A092D7120019C01DF01E6A09
:101558001F6A18341D3601E31E801D50206E20506E
:10156800D8A402D00ED06CD01CC01DF01E6A1F6A11
:101578001B341D3601E31E801D50256E2550D8A44E
:1015880007D0000E176E000E186E000E196E58D098
:1015980025507B0F202619C025F01C50251A800ED7
:1015A8002516188E1B8EFF0E1A16FF0E1B16000E20
:1015B8001C16000E216E000E226E000E236E070E02
:1015C800246E00D017A007D01A5021261B502222C3
:1015D8001C50232200D0D890193218321732D890D4
:1015E8001A361B361C36242EEDD700D0090E246E71
:1015F80000D017A007D01A5021261B5022221C50B9
:10160800232200D0D890193218321732D8902332BA
:1016180022322132242EEDD700D021C00FF022C073
:1016280010F023C011F020C012F025C013F05CECBC
:101638000DF00FC017F010C018F011C019F000D04D
:101648001200E00E66EC14F0020E5EEC14F01C0EB4
:101658005EEC14F0070E5EEC14F0120E5EEC14F063
:10166800370E5EEC14F0320E5EEC14F0290E5EECD0
:1016780014F02D0E5EEC14F0290E5EEC14F0250E1D
:101688005EEC14F02B0E5EEC14F0390E5EEC14F0E8
:10169800000E5EEC14F0010E5EEC14F0030E5EEC2E
:1016A80014F0100E5EEC14F0E10E66EC14F0030E6C
:1016B8005EEC14F01D0E5EEC14F0070E5EEC14F0F8
:1016C800060E5EEC14F02E0E5EEC14F02C0E5EECA2
:1016D80014F0290E5EEC14F02D0E5EEC14F02E0EB4
:1016E8005EEC14F02E0E5EEC14F0370E5EEC14F087
:1016F8003F0E5EEC14F0000E5EEC14F0000E5EEC93
:1017080014F0020E5EEC14F0100E5EEC14F0130EE2
:1017180066EC14F0000E166E0A0E156E88EC11F0C9
:10172800290E66EC14F0000E166E640E156E88EC29
:1017380011F0120028C02AF02B6A2C6A27342A36A6
:1017480001E32B802A50346E3450D8A402D039D00B
:1017580063D0170E2A6E26C02BF027C02CF028C0A5
:101768002DF02A282E6E04D0D8902D322C322B3210
:101778002E2EFAD72B502F6E278EFF0E2616FF0E11
:101788002716000E28162650306E2750316E285026
:10179800326E336A8E0E345E34AE10D03450800A06
:1017A8008F0FD8B003D00DD037D000D0D8903332B7
:1017B800323231323032343EF9D719D0170E346410
:1017C80011D0000E266E000E276E000E286E000E39
:1017D800296E22D007D0D89030363136323633369B
:1017E800340600D03450D8B402D0F5D700D02F50EA
:1017F800D8B409D0331E321E311E306C000E31228F
:101808003222332200D030C026F031C027F032C057
:1018180028F033C029F000D012001DC021F0226A40
:10182800236A1C34213601E322802150286E285077
:10183800D8A402D00ED061D020C021F0226A236A39
:101848001F34213601E322802150296E2950D8A463
:1018580007D0000E1B6E000E1C6E000E1D6E4DD0C4
:10186800000E256E000E266E000E276E2950890F79
:10187800285E1DC029F02050291A800E29161C8EBA
:10188800FF0E1B16FF0E1C16000E1D161F8EFF0ED8
:101898001E16FF0E1F16000E2016180E246E00D0FE
:1018A800D8902536263627361E501B5C1F501C58EC
:1018B80020501D58D8A007D01E501B5E1F501C5A20
:1018C80020501D5A2580D8901B361C361D36242ED4
:1018D800E7D700D025C00FF026C010F027C011F0C0
:1018E80028C012F029C013F05CEC0DF00FC01BF0FB
:1018F80010C01CF011C01DF000D01200216E800E27
:10190800216069D09F0E166401D065D0FF0E1B6E52
:10191800FF0E1C6E175021C01DF01E6A1D26000EFA
:101928001E221B501D261C501E221EBE0AD01E50F1
:1019380004E1800E1D5CD8A004D021500008800F5F
:10194800176EFF0E1B6EFF0E1C6E185016C01DF092
:101958001E6A1D26000E1E221B501D261C501E220C
:101968001EBE0BD01E5004E1A00E1D5CD8A005D0F1
:1019780016500008A00F186E00D016C012F02150A3
:1019880017241B6E1B04136E165018241C6E1C049F
:10199800146E2150DAEC11F01A501F6E19C020F0A5
:1019A8008380839418C016F01650D8B413D001D091
:1019B80011D017C021F02150D8B40AD001D008D0D6
:1019C8001F5042EC14F0205042EC14F02106F3D7DB
:1019D8001606EAD783841200426E61D041C00FF028
:1019E800106A000E126E0A0E116E71EC0EF00F5096
:1019F800300F0001A76F41C035F0366A000E386E0F
:101A08000A0E376E1AEC10F03550300F0001A86F2F
:101A18008350A50B836E280E376EA70E386E000E06
:101A2800396E000E3B6E1F0E3A6E000E3D6E000EB4
:101A38003C6E020E3E6E020E24EC0AF038D041C015
:101A48000FF0106A000E126E0A0E116E71EC0EF095
:101A58000F50300F0001A46F41C035F0366A000EF8
:101A6800386E0A0E376E1AEC10F03550300F000140
:101A7800A56F8350A50B836E640E376EA40E386E67
:101A8800000E396E070E3B6E3A68000E3D6E000E72
:101A98003C6E020E3E6E020E24EC0AF008D0425054
:101AA800000AD8B49BD7020AD8B4C9D700D012000C
:101AB8001250D8B405D00F5010101110D8A40ED061
:101AC800000E0F6E000E106E000E116E53D006D071
:101AD800122AD890113210320F3200D0000E0F1493
:101AE800146E000E1014156EFE0E1114166E14509E
:101AF80015101610D8B40ED0EBD70CD0122A010E40
:101B08000F26000E1022000E1122D890113210322A
:101B18000F3200D0000E0F14146E000E1014156E44
:101B2800FF0E1114166E145015101610D8B408D0E4
:101B3800E5D706D01206D8900F361036113600D0E9
:101B480010BE04D0020E1260F5D700D012B002D039
:101B5800109E00D0D8901232125011121350D8B4DF
:101B680002D0118E00D00FC00FF010C010F011C0BD
:101B780011F000D01200010E516E8484010E92EC17
:101B880012F0010E6EEC12F0010E26EC12F0020EAD
:101B98004AEC12F05250D8B405D0080E436E000E2D
:101BA8005BEC11F0070E4CEC13F0030E4AEC12F04C
:101BB800030E4CEC13F0010E4AEC12F080A810D082
:101BC800020E6EEC12F0080E4CEC13F0030E6EECE5
:101BD80012F0030E4CEC13F0010E6EEC12F000D074
:101BE800020E92EC12F04A50D8B405D0070E436E9C
:101BF800020E5BEC11F0060E4CEC13F0030E92ECA7
:101C080012F0030E4CEC13F0010E92EC12F080A2CD
:101C180010D0020E26EC12F0070E4CEC13F0030E57
:101C280026EC12F0030E4CEC13F0010E26EC12F029
:101C380000D01200000E516E8494000E4A6E000E01
:101C4800526E010E92EC12F0010E6EEC12F0010EC3
:101C580026EC12F0020E4AEC12F0060E4CEC13F0D1
:101C6800030E4AEC12F0030E4CEC13F0010E4AEC92
:101C780012F080A810D0020E6EEC12F0070E4CEC99
:101C880013F0030E6EEC12F0030E4CEC13F0010E81
:101C98006EEC12F000D0020E92EC12F0060E4CEC34
:101CA80013F0030E92EC12F0030E4CEC13F0010E3D
:101CB80092EC12F080A210D0020E26EC12F0080E60
:101CC8004CEC13F0030E26EC12F0030E4CEC13F060
:101CD800010E26EC12F000D01200000E146E12AEA7
:101CE80007D0116C121ED8B0122A010E146E00D043
:101CF80010AE07D00F6C101ED8B0102A010E141A9F
:101D080000D0000E166E000E156E11501210D8B4C9
:101D180021D0010E136E05D0D89011361236132A31
:101D280000D012BE02D0F8D700D0D890153616369B
:101D380011500F5C12501058D8A006D011500F5EE9
:101D48001250105A158000D0D89012321132132E2A
:101D5800ECD700D01450D8B405D0156C161ED8B0E6
:101D6800162A00D015C00FF016C010F000D01200CF
:101D780011AE17D00FC015F010C016F011C017F033
:101D8800151E161E171E152A000E16221722000EE3
:101D980015240F6E000E1620106E800E1720116E7F
:101DA80000D014AE17D012C015F013C016F014C02E
:101DB80017F0151E161E171E152A000E16221722BA
:101DC800000E1524126E000E1620136E800E1720BA
:101DD800146E00D0000E0F1A000E101A800E111A81
:101DE800000E121A000E131A800E141A12500F5CED
:101DF8001350105814501158D8B002D0D89002D0AF
:101E0800D88000D01200700ED36E1F0E926E070E8F
:101E1800936E000E946E000E956E000E966E7EEC1C
:101E280014F038EC14F00EEC00F0F19E22EC14F0F3
:101E3800000E93EC10F02AC044F02BC045F02CC0E3
:101E480046F044C00FF045C010F046C011F0000E37
:101E5800126E200E136E400E146EBCEC0EF0D8B04D
:101E680002D0010E01D0000E506E00D05004D8A44C
:101E780003D0BFEC0DF003D01EEC0EF000D04B04E5
:101E8800D8A4F4D7000E4B6E010E4C6E2EEC11F058
:101E9800EDD70CEF00F0206E800E20603FD09F0E33
:101EA800166401D03BD0FF0E1A6EFF0E1B6E175042
:101EB80020C01CF01D6A1C26000E1D221A501C266C
:101EC8001B501D221DBE0BD01D5004E1800E1C5C52
:101ED800D8A005D020500008800F176E00D01950E8
:101EE8001E6E18C01FF016C012F0205017241A6E6C
:101EF8001A04136E16C014F02050DAEC11F0838027
:101F0800839407D01E5042EC14F01F5042EC14F09A
:101F180000D017061728D8A4F5D783841200206E9E
:101F2800800E20603FD09F0E166401D03BD0FF0E7C
:101F38001A6EFF0E1B6E175016C01CF01D6A1C2669
:101F4800000E1D221A501C261B501D221DBE0BD030
:101F58001D5004E1A00E1C5CD8A005D01650000846
:101F6800A00F176E00D019501E6E18C01FF016C0B3
:101F780012F020C013F0165017241A6E1A04146EAB
:101F88002050DAEC11F08380839407D01E5042EC85
:101F980014F01F5042EC14F000D017061728D8A4EC
:101FA800F5D7838412000600EACF04F0E1CF05F0EC
:101FB800E2CF06F0D9CF07F0DACF08F0F3CF09F077
:101FC800F4CF0AF0F6CF0BF0F7CF0CF0F8CF0DF006
:101FD800F5CF0EF0F2A203D076EC14F000D0F0A00A
:101FE80003D06EEC14F000D0F0A203D089EC14F00A
:101FF80000D00EC0F5FF0DC0F8FF0CC0F7FF0BC0F6
:10200800F6FF0AC0F4FF09C0F3FF08C0DAFF07C0F3
:10201800D9FF06C0E2FF05C0E1FF04C0EAFF03C024
:10202800E9FF02C0FBFF01C0FAFF1100000E3A6E83
:1020380036AE07D0356C361ED8B0362A010E3A6E49
:1020480000D038AE05D0376C381ED8B0382A00D04A
:1020580037503810D8B41DD0010E396E05D0D8903D
:1020680037363836392A00D038BE02D0F8D700D0F3
:102078003750355C38503658D8A005D03750355EC3
:102088003850365A00D0D89038323732392EF0D7F7
:1020980000D03A50D8B405D0356C361ED8B0362AA0
:1020A80000D035C035F036C036F000D01200116EC1
:1020B800000EAC6E000EAB6E11A002D0AC8800D042
:1020C80011A203D0AC8CAB8C00D011A402D0AC8E82
:1020D80000D011A602D0AB8802D0AB8A00D011B8CC
:1020E800AC849E9811AA02D0AB8600D011AC02D065
:1020F8009D8A01D09D9A9E9A11AE02D09D8801D0EA
:102108009D980FC0AFFF1050B06EAC8AAB8E949CF8
:10211800948EACB8ACBE02D0948C00D01200306E55
:102128003050040DF328C26ED6EC13F00FC031F016
:1021380010C032F031C00FF032C010F0000E126E35
:10214800050E116EC2EC13F00FC017F010C018F096
:10215800F4EC12F017C01BF018C01CF019C01DF0E9
:10216800000E1E6E800E1F6E440E206E11EC0CF0D9
:102178001BC02DF01CC02EF01DC02FF02DC02AF062
:102188002EC02BF02FC02CF000D0120023C016F068
:1021980025C017F029C018F02AC019F021504FECBB
:1021A8000FF0235027242B6E2B04166E25C017F032
:1021B80029C018F02AC019F021504FEC0FF023C0A5
:1021C80016F027C017F029C018F02AC019F02150BE
:1021D80093EC0FF023C016F027C017F029C018F0B1
:1021E8002AC019F0215025242B6E2B0493EC0FF0F4
:1021F800120000EEAAF0210EEE6AE806FDE100EEFC
:1022080044F0190EEE6AE806FDE1300EF66E270E70
:10221800F76E000EF86E00EE80F010EE2AF009005E
:10222800F5CFEEFFE550E150FAE15A0EF66E280EB2
:10223800F76E000EF86E00EE5DF010EE15F0090076
:10224800F5CFEEFFE550E150FAE1000EF86E00011F
:1022580007EF0FF028D04B50D8A41DD0010E4AEC40
:1022680012F0010E26EC12F0010E92EC12F0010EA3
:102278006EEC12F008EC14F0000E4AEC12F0000EAE
:1022880026EC12F0000E92EC12F0000E6EEC12F03A
:1022980008EC14F008D04B04D8A405D0000E4B6EFF
:1022A800000E4C6E00D04C04D8B4D5D712000001F3
:1022B800D76F43C0D8F00001D96B0001D9BF18D03F
:1022C8000001D95106E10001D805D8A011D001D0EC
:1022D8000FD00001D805416E0001D751F0EC0CF089
:1022E800E9EC13F00001D807D8A0D907E6D7F1D751
:1022F8000001D7510001D8B403D0000E4A6E03D0B4
:10230800000E526E00D0120015C00FF016C010F06B
:10231800000E126EFA0E116EC2EC13F00FC019F017
:1023280010C01AF019C017F01AC018F0171E181E9E
:10233800174A182AFF0E1724196EFF0E18201A6E56
:10234800B80EB16E19C0B2FF1A50B36EA192B18027
:1023580000D0A1A2FED7B19012003D5000083B2446
:10236800166ED8803D34176E3FC018F040C019F083
:10237800395093EC0FF039C021F03AC022F03BC03D
:1023880023F03CC024F03DC025F03EC026F0000EEE
:10239800286E030E276E000E2A6E000E296E3FC0AF
:1023A8002BF040C02CF000EC09F01200156E2A0E3C
:1023B80066EC14F0000E5EEC14F0155059245EEC37
:1023C80014F0000E5EEC14F0135059245EEC14F077
:1023D8002B0E66EC14F0000E5EEC14F012505C2428
:1023E8005EEC14F0000E5EEC14F014505C245EEC0D
:1023F80014F02C0E66EC14F01200296E29C02AF095
:102408002B6A0ED021C016F023C017F024C018F094
:1024180025C019F02A5093EC0FF02A4A2B2A00D035
:10242800225029C026F0276A2626000E2722265089
:102438002A5C2B50800A286E2750800A2858D8A07A
:10244800E1D712000001CB6F010E5B6ECBC041F0EB
:102458005B50CCEC03F00AD0849001D08480849245
:1024680014D0849001D0848084820FD00001CB5195
:10247800000AD8B4F1D7010AD8B4F0D7030AD8B4FF
:10248800F0D7010AD8B4EFD700D012000001CB6F03
:10249800000E5B6ECBC041F05B50CCEC03F00AD071
:1024A800829001D08280829414D0829001D0828060
:1024B80082840FD00001CB51000AD8B4F1D7010AA9
:1024C800D8B4F0D7030AD8B4F0D7010AD8B4EFD7F4
:1024D80000D012000001CB6F030E5B6ECBC041F041
:1024E8005B50CCEC03F00AD0819801D08188819AA6
:1024F80014D0819801D08188818A0FD00001CB51F6
:10250800000AD8B4F1D7010AD8B4F0D7030AD8B46E
:10251800F0D7010AD8B4EFD700D012000001CB6F72
:10252800020E5B6ECBC041F05B50CCEC03F00AD0DE
:10253800809A01D0808A819614D0809A01D0808AAE
:1025480081860FD00001CB51000AD8B4F1D7010A17
:10255800D8B4F0D7030AD8B4F0D7010AD8B4EFD763
:1025680000D012002A0E66EC14F0000E5EEC14F097
:10257800000E5EEC14F0000E5EEC14F07F0E5EECC4
:1025880014F02B0E66EC14F0000E5EEC14F0000E46
:102598005EEC14F0000E5EEC14F09F0E5EEC14F08E
:1025A80012000FC013F010C014F003D0134A142AFD
:1025B80000D013C0D9FF14C0DAFFDF50D8A4F6D773
:1025C8000FC011F010C012F0111E121E114A122A6B
:1025D800135011240F6E14501220106E00D01200E8
:1025E800000E1A6E18AE07D0176C181ED8B0182A2D
:1025F800010E1A6E00D017C00FF018C010F0116A43
:102608008E0E126E1AC013F05CEC0DF00FC017F0AE
:1026180010C018F011C019F000D0120047C00FF018
:1026280048C010F0FA0E116EFF0E126E67EC13F030
:10263800020E376E47C038F048C039F0FF0E3B6EC7
:102648003A68000E3D6E000E3C6E010E3E6E780E2E
:1026580024EC0AF0120047C00FF048C010F0FC0E3E
:10266800116EFF0E126E67EC13F0020E376E47C044
:1026780038F048C039F0FF0E3B6E3A68000E3D6EE8
:10268800000E3C6E010E3E6E780E24EC0AF012002D
:102698000001D76FD7C0D8F00001D8510001D8B4D5
:1026A8000CD001D00AD0D8C041F05B5090EC07F0B4
:1026B80008EC14F00001D807EFD7000E416E5B500C
:1026C80090EC07F012000FC013F010C014F005D002
:1026D800134A142A114A122A00D011C0F6FF12C058
:1026E800F7FF13C0D9FF14C0DAFF0800F5CFDFFFEA
:1026F800DF50D8A4EDD71200196E800E196013D0E0
:102708009F0E166401D00FD016C012F01928136E50
:102718001628146E1950DAEC11F018505EEC14F00B
:1027280017505EEC14F01200535032342F312F3012
:102738003120303030303030203030303000322EE0
:102748003556003030003030003030003030003046
:10275800300083848390800EC76E300EC66E9CEC6A
:1027680009F0B6EC12F025EC0BF0360E66EC14F01E
:10277800C00E5EEC14F0010E586E12000F501102DC
:10278800F3CF13F0F4CF14F00F501202F3501426C5
:1027980010501102F350142613C00FF014C010F09B
:1027A80000D01200C28200D0C2B2FED7C450126E4E
:1027B800116AC3501124136E000E1220146E13C038
:1027C8000FF014C010F000D01200838E2FEC13F01D
:1027D80055EC14F015EC14F0839E12EC13F085EC14
:1027E80014F015EC14F07DEC05F01200000E166ED6
:1027F800800E176EA00E186E22C019F023C01AF0B2
:10280800000E82EC0CF01200838E2FEC13F015EC06
:1028180014F0839E12EC13F015EC14F07DEC05F027
:102828001200030ED56EDB0ED66E0B0ED76EF29429
:10283800D58E00D0F2A4FED7D59E1200F292F09069
:10284800F092F19CF19AF198F288F086F088F28E75
:102858001200013030002D440044003000300030B8
:102868000030003000300000000E106E190E0F6EA0
:102878003C0E5BEC10F0700ED36E1200106E9E963C
:10288800C9CF0FF010C0C9FF00D0C7A0FED71200F3
:10289800839A000E166E640E156E88EC11F0838A0A
:1028A8001200F90ECB6E050ECA6E4A0EBB6E3C0EB8
:1028B800BA6E1200116E83948380115042EC14F0AA
:1028C80083841200116E83948390115042EC14F0AB
:1028D80083841200F0905150D8B403D0010E4A6E90
:1028E80000D01200F2925150D8B403D0010E526EAB
:1028F80000D01200010EC26E0E0EC16EA90EC06E7F
:102908001200000EBA6E82921200F092010E4B6E07
:022918001200AB
:10FDCE0000000000000000005F00000007000700B8
:10FDDE00147F147F14242A7F2A1223130864623698
:10FDEE00495620500008070300001C224100004124
:10FDFE00221C002A1C7F1C2A08083E08080080705E
:10FE0E003000080808080800006060002010080490
:10FE1E00023E5149453E00427F40007249494946E3
:10FE2E002141494D331814127F1027454545393C61
:10FE3E004A4949314121110907364949493646494E
:10FE4E0049291E0000140000004034000000081470
:10FE5E0022411414141414004122140802015909E9
:10FE6E00063E415D594E7C1211127C7F494949363E
:10FE7E003E414141227F4141413E7F494949417FB7
:10FE8E00090909013E414151737F0808087F00416D
:10FE9E007F41002040413F017F081422417F4040B6
:10FEAE0040407F021C027F7F0408107F3E4141418B
:10FEBE003E7F090909063E4151215E7F09192946F7
:10FECE00264949493203017F01033F4040403F1F0D
:10FEDE002040201F3F4038403F6314081463030442
:10FEEE007804036159494D43007F414141020408A2
:10FEFE001020004141417F04020102044040404075
:10FF0E0040000307080020545478407F28444438AA
:10FF1E003844444428384444287F385454541800F4
:10FF2E00087E090218A4A49C787F08040478004473
:10FF3E007D40002040403D007F1028440000417F5E
:10FF4E0040007C047804787C0804047838444444E7
:10FF5E0038FC1824241818242418FC7C08040408DF
:10FF6E00485454542404043F44243C4040207C1CF8
:10FF7E002040201C3C4030403C44281028444C90EB
:10FF8E0090907C4464544C44000836410000007745
:10FF9E000000004136080002010204024E535020B8
:10FFAE004E534C54204557502045574C5420522008
:10FFBE0053004E4F5254482F534F5554480045410D
:10FFCE0053542F57455354004E2F53204C54004535
:10FFDE002F57204C54004D6F64653A004C53563ADF
:10FFEE0000504E5300504557002D440020002A006B
:02FFFE00000001
:020000040020DA
:08000000FFFFFFFFFFFFFFFF00
:020000040030CA
:0E000000FF08191EFF8381FF0FC00FE00F40A5
:00000001FF
