:040000000CEF00F011
:10000800FACF03F0FBCF04F0E9CF05F0A7ED09F034
:1000180067EF09F01F0E306E000E316E99D1250E74
:100028003818D8B404D0385051EC0DF091D1000EE6
:10003800376E000E366E000E356E05D035841D4ABB
:100048001E2A01D00BD01DC0F6FF1EC0F7FF080006
:10005800F550300AD8B4F2D701D0F5D71DC0F6FF55
:100068001EC0F7FF0800F55091EC0CF0D8A03BD06B
:10007800000E376E000E366E00D036C011F037C055
:1000880012F0000E146E0A0E136E7DEC0CF011C007
:1000980036F012C037F0D00E2B6EFF0E2C6E1DC03E
:1000A800F6FF1EC0F7FF0800F5502D6E2E6A2B5084
:1000B8002D262C502E222D5036262E5037221D4A02
:1000C8001E2A1DC0F6FF1EC0F7FF0800F55091EC70
:1000D8000CF0D8A008D0D1D706D048D11BD0358E87
:1000E80019D036D117D01DC0F6FF1EC0F7FF1D4A24
:1000F8001E2A0800F5CF38F03850000AD8B436D197
:10010800640AD8B407D00D0AD8B404D0110AD8B4F8
:10011800E6D71ED135BE15D030C0D9FF31C0DAFFC1
:10012800DECF33F0DDCF34F0020E3026000E312260
:1001380034AE4ED0030E3512336C341ED8B0342A88
:1001480047D030C0D9FF31C0DAFFDECF33F0DDCF82
:1001580034F0020E3026000E31223AD0010E386EED
:10016800050E3818D8B43DD001D03BD03850020D18
:10017800500EF324F66EFF0EF420F76E0900F550CA
:10018800335C0900F5503458D8A02BD001D029D0C1
:10019800382AE6D726D0010E386E040E3818D8B49F
:1001A80020D001D01ED03850020D5A0EF324F66E1E
:1001B800FF0EF420F76E0900F550335C0900F55086
:1001C8003458D8A00ED001D00CD0382AE6D709D0A0
:1001D8003550800B000AD8B4C1D7800AD8B4DBD711
:1001E80000D036503710D8B40AD035C02BF0030EE3
:1001F8002B16D8B404D03606D8A0370600D0800E07
:1002080038BE7F0E2B6E3650385C3750800A2B581C
:10021800D8B007D03850365E000E38BEFF0E375AB9
:1002280005D0000E376E000E366E00D035A41AD0F9
:1002380035C02BF0030E2B16D8B404D02D0E51EC7C
:100248000DF000D036503710D8B426D0300E51EC0F
:100258000DF03606D8A0370636503710D8B41CD063
:10026800F5D71AD036503710D8B40CD0200E51EC30
:100278000DF03606D8A0370636503710D8B402D05D
:10028800F5D700D035C02BF0030E2B16D8B404D008
:100298002D0E51EC0DF000D038C032F053D045D0BF
:1002A8003250020D500EF324F66EFF0EF420F76E56
:1002B8000900F5CF13F00A00F5CF14F033C011F0A0
:1002C80034C012F04FEC0AF011C018F012C019F047
:1002D800000E1B6E0A0E1A6E4DEC0BF01850300F04
:1002E800386E2CD033C011F034C012F03250020DE9
:1002F8005A0EF324F66EFF0EF420F76E0900F5CFC0
:1003080013F00A00F5CF14F04FEC0AF011500F0B60
:100318002F6E2F50010DD40EF324F66EFF0EF4202D
:10032800F76E0800F5CF38F009D03550800B000A79
:10033800D8B4B6D7800AD8B4D5D700D0385051EC45
:100348000DF000D032063228D8B402D0EED700D053
:100358001DC0F6FF1EC0F7FF1D4A1E2A0800F5CF74
:1003680038F03850D8B402D05AD600D012000AEC6F
:100378000DF0700ED36EF19E010E936E000E946E0A
:10038800000E956E0F0EC16E000E926E000E966EE8
:10039800000E806E000E816E000E826E2CEC08F04E
:1003A800A00E116E860E126E010E136E000E146EE4
:1003B80069EC0DF0B2EC0CF0E9EC0CF0000E496EB3
:1003C800000E4A6E000E4B6E000E4C6E00D01DECF7
:1003D8000AF062506E18D8B43AD062C06EF019ECC8
:1003E8000CF01450446E4450090DF3CF11F0F4CFC3
:1003F80012F0000E146E050E136ED8EC08F01150B2
:10040800200F436E8D0E1D6EFF0E1E6E5EC01FF018
:10041800206A5FC021F0226A62C023F0246A60C0AB
:1004280025F0266A5CC027F0286A6CC029F02A6A81
:100438000EEC00F0620E1D6EFF0E1E6E44C01FF023
:10044800206A43C021F0226A0EEC00F000D04D046F
:100458004E10D8A4BCD7000E4E6E000E4D6E88EC20
:100468000DF0C10E1D6EFF0E1E6E53C01FF0206AE8
:100478000EEC00F04868000E466E000E456E46BE53
:1004880008D0465017E1150E455CD8B013D001D0FE
:1004980011D0AA0E4524D96E000E4620DA6E5350AC
:1004A800DE18D8A403D045C048F000D0454A462AF3
:1004B800E6D700D04828D8B48AD7AB0E1D6EFF0EF9
:1004C8001E6E48C01FF0206A0EEC00F0000E3C6E55
:1004D8003C0E3B6E000E3E6E500E3D6E000E406EA2
:1004E800140E3F6E4850020D800EF324D96E000E94
:1004F800F420DA6EDECF41F0DDCF42F0D4EC0AF022
:10050800000E1D6E3C0E1C6E000E1F6E500E1E6EF1
:10051800000E216E140E206EFF0E236E22684BEC27
:1005280003F04D0E396E4850040D540EF3243A6E04
:10053800010EF4203B6EFF0E3D6E3C68000E3F6ED0
:10054800000E3E6E010E406E340EC0EC06F0000E3A
:10055800806E000E816E4850020D2A0EF324D96E6B
:10056800010EF420DA6EDF500101A86F82500101FC
:10057800A819FE0BA819826E030E486002D0000E5F
:1005880009D0020E486405D0090E486002D0010E59
:1005980001D0020E476E00D04750020DBF0EF32463
:1005A800D96E000EF420DA6EDECFA8F1DDCFA9F106
:1005B800A8C1D9FFA9C1DAFF4750010DC50EF32420
:1005C800E16E000EF420E26EE7500101AA6F485078
:1005D800020D000EF324E16E010EF420E26EE750E6
:1005E8000101AB6F070E0101AB170101AA2B03D064
:1005F8000101D890AB370101AA2FFAD74750020D55
:10060800BF0EF324E16E000EF420E26EE6CFACF1EB
:10061800E5CFADF1ACC1E1FFADC1E2FFE7500101AB
:10062800AE6F4750010DC50EF324E16E000EF420A5
:10063800E26EE7500101AF6F070E0101B06F0101D3
:10064800AF2B03D00101D890B0370101AF2FFAD7F3
:100658000101B051FF0A0101AE150101AB11DF6EB6
:10066800838E38EC0DF064EC0DF078EC0DF0839E81
:10067800080E4818D8A4ABD67DEC0AF0E50E1D6E1E
:10068800FF0E1E6E0EEC00F0A2D60CEF00F020C09C
:1006980024F021C025F0241E251E244A252A010EF7
:1006A80024242A6E000E25202B6E000E276E010EC4
:1006B800266E20C024F021C025F0D8902436253697
:1006C800241E251E244A252A24C028F025C029F0E6
:1006D800000E2D6E000E2C6E20C02EF021C02FF0C3
:1006E8001E502024186E22C019F023C01AF01C5086
:1006F80050EC0CF0205000081E24186E22C019F08F
:1007080023C01AF01C5050EC0CF01EC018F022C088
:1007180019F023C01AF01C50202450EC0CF01EC015
:1007280018F022C019F023C01AF0205000081C2429
:1007380050EC0CF078D02BBE0BD02E06D8A02F068C
:10074800020E2826000E292228502A2629502B225C
:100758002C4A2D2A020E2626000E272226502A264B
:1007680027502B221E502E24186E22C019F023C0A9
:100778001AF01C502C2450EC0CF01E502E24186E2D
:1007880022C019F023C01AF02C5000081C2450EC89
:100798000CF02E5000081E24186E22C019F023C039
:1007A8001AF01C502C2450EC0CF02E5000081E247B
:1007B800186E22C019F023C01AF02C5000081C240F
:1007C80050EC0CF01E502C24186E22C019F023C0D7
:1007D8001AF01C502E2450EC0CF01E502C24186ECD
:1007E80022C019F023C01AF02E5000081C2450EC27
:1007F8000CF02C5000081E24186E22C019F023C0DB
:100808001AF01C502E2450EC0CF02C5000081E241A
:10081800186E22C019F023C01AF02E5000081C24AC
:1008280050EC0CF000D02E502C5C2D50800A246E19
:100838002F50800A2458D8A07ED71200F292545024
:10084800D8B4B9D0CE50CFCF01F0026A01C002F0BF
:10085800016A01104F6E0250506E000ECF6E000EEE
:10086800CE6EA9D0000ECF6E000ECE6E9E90900E6A
:10087800CD6ECD80000E5A6E000E496E000E4A6E87
:10088800000E4B6E000E4C6E010E546E54506D14DB
:10089800016E6D50FF0A84140110846E8AD09CD0BA
:1008A800340E4F5C210E5058D8A009D01D0E4F5C55
:1008B800250E5058D8B003D0020E546E27D084ECC1
:1008C8000DF030D02FD088D0A00E4F5C0F0E5058AE
:1008D800D8A009D0890E4F5C130E5058D8B003D059
:1008E800030E546E5AD084EC0DF063D062D074D0ED
:1008F800900E4F5C010E5058D8A011D0BD0E4F5C21
:10090800020E5058D8B00BD0040ED7D754506D14DF
:10091800016E6D50FF0A84140110846E03D084ECBC
:100928000DF000D0F19C58D0900E4F5C010E50583D
:10093800D8A03CD0090E4F5C070E5058D8B036D01E
:10094800D8904934496E4A344A6E4B344B6E4C3415
:100958004C6EE90E4F5C030E5058D8A007D0010E1C
:100968004926000E4A224B224C2200D05A2A1F0E3A
:100978005A64B6D74AC053F0000E546E54506D14E2
:10098800016E6D50FF0A84140110846E000E4E6EC5
:10099800010E4D6EF2980DD0A3D754506D14016E10
:1009A8006D50FF0A84140110846E03D084EC0DF09E
:1009B80000D0F18C11D05450000AD8B453D7010A92
:1009C800D8B46ED7030AD8B47FD7010AD8B490D761
:1009D800070AD8B4A9D700D01200366E800E366048
:1009E800A6D09F0E2E6401D0A2D03450D8A403D034
:1009F800010E346E00D01F0E2F6404D07E0E2F64BB
:100A080003D000D03F0E2F6E000E386E040E3864EF
:100A180001D08DD0530E2F6015D0E00E2F24116E0B
:100A2800126AFF0E1222000E146E050E136E7DEC74
:100A38000CF038501126000E1222750E1124F66E95
:100A4800FD0E14D0AD0E2F24116E126AFF0E122265
:100A5800000E146E050E136E7DEC0CF03850112646
:100A6800000E1222740E1124F66EFE0E1220F76E7E
:100A78000800F5CF35F000D0000E376E060E37644B
:100A880001D053D035A023D03404D8A40CD02E5094
:100A98003724186E30C019F031C01AF03650382497
:100AA80050EC0CF03ED037503402F3502E24236E15
:100AB80034C024F034C025F030C026F031C027F00F
:100AC80038503402F350362473EC0BF02AD03050EF
:100AD800321804E131503318D8B423D03404D8A4E0
:100AE8000CD02E503724186E32C019F033C01AF0CB
:100AF8003650382450EC0CF014D037503402F350F0
:100B08002E24236E34C024F034C025F032C026F0E1
:100B180033C027F038503402F350362473EC0BF00E
:100B280000D0372AD8903532A9D7382A6FD7120083
:100B380027C02FF028C030F02F1E301E2F4A302A31
:100B4800010E2F24356E000E3020366E000E326EE8
:100B5800010E316E27C02FF028C030F0D8902F3604
:100B680030362F1E301E2F4A302A2FC033F030C0A7
:100B780034F0000E386E000E376E27C039F028C0EA
:100B88003AF067D036BE0BD03906D8A03A06020E26
:100B98003326000E34223350352634503622374A55
:100BA800382A020E3126000E3222315035263250B4
:100BB800362229A025D0395000082524186E39502E
:100BC80039242B242F6E2F28196E2DC01AF02EC011
:100BD8001BF02350372423EC09F037500008252454
:100BE800186E375037242B242F6E2F28196E2DC0DE
:100BF8001AF02EC01BF02350392423EC09F000D042
:100C080029A227D0395000082524186E39503924D4
:100C18002B242F6E2F28196E2DC01AF02EC01BF012
:100C280037500008232423EC09F037500008252406
:100C3800186E375037242B242F6E2F28196E2DC08D
:100C48001AF02EC01BF039500008232423EC09F0B9
:100C580000D03950375C3850800A2F6E3A50800ADD
:100C68002F58D8A08FD71200010E49EC0DF0000EB6
:100C7800186E960E176EFDEC0AF0110E49EC0DF089
:100C8800010E186EF40E176EFDEC0AF0B10E49EC69
:100C98000DF0010E41EC0DF02C0E41EC0DF02D0E77
:100CA80041EC0DF0B20E49EC0DF0010E41EC0DF0E7
:100CB8002C0E41EC0DF02D0E41EC0DF0B30E49EC6D
:100CC8000DF0010E41EC0DF02C0E41EC0DF02D0E47
:100CD80041EC0DF0010E41EC0DF02C0E41EC0DF045
:100CE8002D0E41EC0DF0B40E49EC0DF0070E41EC61
:100CF8000DF0C00E49EC0DF0A20E41EC0DF0020E05
:100D080041EC0DF0840E41EC0DF0C10E49EC0DF0F4
:100D1800C50E41EC0DF0C20E49EC0DF00A0E41EC87
:100D28000DF0000E41EC0DF0C30E49EC0DF08A0EEB
:100D380041EC0DF02A0E41EC0DF0C40E49EC0DF01B
:100D48008A0E41EC0DF0EE0E41EC0DF0C50E49ECAB
:100D58000DF00E0E41EC0DF0200E49EC0DF0360EA4
:100D680049EC0DF0C80E41EC0DF03A0E49EC0DF0CF
:100D7800050E41EC0DF012000001F36FF3C0F9F01D
:100D880039C0F8F03AC011F03BC012F0BCEC0BF0DF
:100D980011C0F4F012C0F5F0000E0001F76F000E5C
:100DA800F66F64D06F50D8B434D04050050D0001B0
:100DB800F951416E426AF3504126F450422242BE34
:100DC80028D0425004E1810E415CD8A022D0000E08
:100DD8000001F96F4050070DF3500001F825030F8B
:100DE8000001F86FA00E0001F86504D0A00E000104
:100DF800F86F00D00001F6513A24D96E0001F7517E
:100E08003B20DA6E200EDE18D8B42CD002D02AD0BF
:100E180000D0F8C02EF00001F6513A24D96E000136
:100E2800F7513B20DA6EDF502F6E3CC030F03DC0EA
:100E380031F03EC032F03FC033F040C034F0000122
:100E4800F951F1EC04F04050060DF3500001F9257A
:100E58000001F96F800E0001F96504D0800E0001D1
:100E6800F96F00D00001F64BF72B00D00001F451C8
:100E78000001F65D0001F5510001F759D8A092D79D
:100E88001200E00E49EC0DF0020E41EC0DF01C0EC4
:100E980041EC0DF0070E41EC0DF0120E41EC0DF097
:100EA800370E41EC0DF0320E41EC0DF0290E41ECFD
:100EB8000DF02D0E41EC0DF0290E41EC0DF0250E34
:100EC80041EC0DF02B0E41EC0DF0390E41EC0DF01C
:100ED800000E41EC0DF0010E41EC0DF0030E41EC5B
:100EE8000DF0100E41EC0DF0E10E49EC0DF0030E83
:100EF80041EC0DF01D0E41EC0DF0070E41EC0DF02C
:100F0800060E41EC0DF02E0E41EC0DF02C0E41ECCE
:100F18000DF0290E41EC0DF02D0E41EC0DF02E0ECA
:100F280041EC0DF02E0E41EC0DF0370E41EC0DF0BA
:100F38003F0E41EC0DF0000E41EC0DF0000E41ECBF
:100F48000DF0020E41EC0DF0100E41EC0DF0130EF9
:100F580049EC0DF0000E186E0A0E176EFDEC0AF043
:100F6800290E49EC0DF0000E186E640E176EFDEC9C
:100F78000AF01200236E800E236069D09F0E186459
:100F880001D065D0FF0E1D6EFF0E1E6E195023C0D6
:100F98001FF0206A1F26000E20221D501F261E50FB
:100FA800202220BE0AD0205004E1800E1F5CD8A069
:100FB80004D023500008800F196EFF0E1D6EFF0E1F
:100FC8001E6E1A5018C01FF0206A1F26000E20221D
:100FD8001D501F261E50202220BE0BD0205004E199
:100FE800A00E1F5CD8A005D018500008A00F1A6EDC
:100FF80000D018C014F0235019241D6E1D04156E5E
:1010080018501A241E6E1E04166E235026EC0BF080
:101018001C50216E1BC022F0838083941AC018F0E4
:101028001850D8B413D001D011D019C023F02350D0
:10103800D8B40AD001D008D0215000EC0DF02250CD
:1010480000EC0DF02306F3D71806EAD783841200C4
:1010580014EC0DF068EC0CF0000E256E000E246EFA
:10106800C1EC0CF0D40E516E000E526E51C011F04E
:1010780052C012F0F60E136EFF0E146E37EC0CF021
:10108800020E396E51C03AF052C03BF0FF0E3D6E71
:101098003C68000E3F6E000E3E6E010E406E320E32
:1010A800C0EC06F005D0530E0001C86F500E04D0F6
:1010B800460E0001C86F410E0001C96F320E0001D3
:1010C800CA6F350E0001CB6F310E0001CD6F300EA7
:1010D8000001CF6F340E0001D06F960E396EC80E26
:1010E8003A6E000E3B6EFF0E3D6E3C68000E3F6E82
:1010F800000E3E6E010E406E010EC0EC06F01200AE
:1011080001000100010006000600020004000400BE
:101118000500070007000700070007000700070091
:101128000700070007000700070000000000000094
:1011380000000000000000000000000001000000A6
:101148000000010001000100010001000100010090
:101158000100010043482D002043480043482B006C
:10116800505256004E58540050415500564C2D00D0
:10117800564C2B00204551002030200031303000E3
:10118800323030002031200020322000203320006F
:101198002034200020352000203620002037200071
:1011A8002038200020392000000E166E14AE07D01B
:1011B800136C141ED8B0142A010E166E00D012AE8D
:1011C80007D0116C121ED8B0122A010E161A00D0C0
:1011D800000E186E000E176E13501410D8B421D0DC
:1011E800010E156E05D0D89013361436152A00D086
:1011F80014BE02D0F8D700D0D8901736183613503E
:10120800115C14501258D8A006D01350115E145017
:10121800125A178000D0D89014321332152EECD7FA
:1012280000D01650D8B405D0176C181ED8B0182A9C
:1012380000D017C011F018C012F000D01200226EB2
:10124800800E22603FD09F0E186401D03BD0FF0E65
:101258001C6EFF0E1D6E195018C01EF01F6A1E2648
:10126800000E1F221C501E261D501F221FBE0BD011
:101278001F5004E1A00E1E5CD8A005D0185000082D
:10128800A00F196E00D01B50206E1AC021F018C094
:1012980014F022C015F0185019241C6E1C04166E88
:1012A800225026EC0BF08380839407D0205000EC6A
:1012B8000DF0215000EC0DF000D019061928D8A423
:1012C800F5D78384120000EED2F0210EEE6AE8060C
:1012D800FDE100EE49F0240EEE6AE806FDE1080E95
:1012E800F66E110EF76E000EF86E01EE00F010EEBD
:1012F800A8F00900F5CFEEFFE550E150FAE1560EEF
:10130800F66E150EF76E000EF86E00EE80F010EE19
:1013180052F00900F5CFEEFFE550E150FAE1160E64
:10132800F66E1B0EF76E000EF86E0900F5CF6DF025
:101338000900F5CF6EF00900F5CF6FF0000EF86EDA
:101348000001BBEF01F00600EACF06F0E1CF07F09D
:10135800E2CF08F0D9CF09F0DACF0AF0F3CF0BF0DB
:10136800F4CF0CF0F6CF0DF0F7CF0EF0F8CF0FF06A
:10137800F5CF10F09EA003D05EEC0DF000D0F2A2E5
:1013880003D022EC04F000D010C0F5FF0FC0F8FF26
:101398000EC0F7FF0DC0F6FF0CC0F4FF0BC0F3FF43
:1013A8000AC0DAFF09C0D9FF08C0E2FF07C0E1FFA1
:1013B80006C0EAFF05C0E9FF04C0FBFF03C0FAFF4F
:1013C8001100136E000EAC6E000EAB6E13A002D0AF
:1013D800AC8800D013A203D0AC8CAB8C00D013A483
:1013E80002D0AC8E00D013A602D0AB8802D0AB8A54
:1013F80000D013B8AC849E9813AA02D0AB8600D054
:1014080013AC02D09D8A01D09D9A9E9A13AE02D049
:101418009D8801D09D9811C0AFFF1250B06EAC8A64
:10142800AB8E949C948EACB8ACBE02D0948C00D099
:101438001200680E156E000E146E2FEC0DF015508C
:101448001524FAEC0BF01450FAEC0BF0F5EC0CF058
:10145800D8801534FAEC0BF0010E98EC0BF0626EA4
:10146800010E98EC0BF05F6E010E98EC0BF05E6EBF
:10147800010E98EC0BF05D6E010E98EC0BF05C6EB3
:10148800010E98EC0BF0606E000E98EC0BF06C6E91
:1014980026EC0DF01200000E166E000E156E13509D
:1014A8001410D8B421D0010E176E05D0D890133679
:1014B8001436172A00D014BE02D0F8D700D0D8901E
:1014C800153616361350115C14501258D8A006D091
:1014D8001350115E1450125A158000D0D89014324F
:1014E8001332172EECD700D015C011F016C012F029
:1014F8001200680E136E000E146E000E626E000E5F
:101508005F6E000E5E6E040E5C6E110E606E250E30
:101518006C6E2FEC0DF013501324FAEC0BF01450F2
:10152800FAEC0BF06250FAEC0BF05F50FAEC0BF0AF
:101538005E50FAEC0BF05C50FAEC0BF06050FAECF1
:101548000BF06C50FAEC0BF026EC0DF0120000F8E2
:1015580000F800F8FF07FF07E0071F001F001FF84B
:101568000000000000000000000000000000000073
:101578000000000000000000A262E22202C2E0A80F
:10158800906898B030187A10385A424A52810F80C1
:101598000F800F030003535032342F312F303100A6
:1015A8003F5000083D24186ED8803F34196E41C062
:1015B8001AF042C01BF03B5023EC09F03BC023F06B
:1015C8003CC024F03DC025F03EC026F03FC027F0C7
:1015D80040C028F0000E2A6E030E296E000E2C6EF5
:1015E800000E2B6E41C02DF042C02EF09CEC05F091
:1015F800120017C011F018C012F0000E146EFA0E87
:10160800136E7DEC0CF011C01BF012C01CF01BC057
:1016180019F01CC01AF0191E1A1E194A1A2AFF0EB0
:1016280019241B6EFF0E1A201C6EB80EB16E1BC05B
:10163800D6FF1C50D76EA192B18000D0A1A2FED7D0
:10164800B1901200176E2A0E49EC0DF0000E41EC15
:101658000DF017505B2441EC0DF0000E41EC0DF03D
:1016680015505B2441EC0DF02B0E49EC0DF0000EEB
:1016780041EC0DF01450612441EC0DF0000E41ECEA
:101688000DF01650612441EC0DF02C0E49EC0DF0D4
:1016980012001A501B10D8B41DD0010E1C6E05D0B4
:1016A800D8901A361B361C2A00D01BBE02D0F8D799
:1016B80000D01A50185C1B501958D8A005D01A50E1
:1016C800185E1B50195A00D0D8901B321A321C2EA3
:1016D800F0D700D018C018F019C019F012002B6EFE
:1016E8002BC02CF02D6A0ED023C018F025C019F09D
:1016F80026C01AF027C01BF02C5023EC09F02C4A06
:101708002D2A00D024502BC028F0296A2826000E44
:10171800292228502C5C2D50800A2A6E2950800AD4
:101728002A58D8A0E1D71200116E80EC0DF0000EF7
:10173800126E070E126401D00FD058EC0DF082A87B
:1017480003D0D880133604D013501324136E00D05E
:101758007CEC0DF0122AEDD71150D8B403D01DEC53
:101768000DF003D06EEC0DF000D0135000D0120035
:1017780011C015F012C016F003D0154A162A00D071
:1017880015C0D9FF16C0DAFFDF50D8A4F6D711C0AC
:1017980013F012C014F0131E141E134A142A155005
:1017A8001324116E16501420126E00D012002A0E47
:1017B80049EC0DF0000E41EC0DF0000E41EC0DF07F
:1017C800000E41EC0DF07F0E41EC0DF02B0E49ECB4
:1017D8000DF0000E41EC0DF0000E41EC0DF0000E86
:1017E80041EC0DF09F0E41EC0DF01200116E000E51
:1017F800126E070E126401D011D011AE03D080EC26
:101808000DF003D073EC0DF000D058EC0DF07CEC2B
:101818000DF011501124116E122AEBD780EC0DF047
:1018280058EC0DF07CEC0DF01200480E186EAA0E64
:10183800166E2FEC0DF018501824FAEC0BF0165019
:10184800FAEC0BF0F5EC0CF0D8801834FAEC0BF04D
:10185800000E98EC0BF0176E26EC0DF017C014F084
:10186800156A00D0120011C015F012C016F005D08C
:10187800154A162A134A142A00D013C0F6FF14C0BA
:10188800F7FF15C0D9FF16C0DAFF0800F5CFDFFF54
:10189800DF50D8A4EDD712001B6E800E1B6013D04A
:1018A8009F0E186401D00FD018C014F01B28156EB5
:1018B8001828166E1B5026EC0BF01A5041EC0DF050
:1018C800195041EC0DF0120083848390800EC76E8E
:1018D800300EC66E38EC06F0DBEC0BF045EC07F08A
:1018E800360E49EC0DF0C00E41EC0DF0010E556EB0
:1018F800120011501302F3CF15F0F4CF16F0115067
:101908001402F350162612501302F350162615C06F
:1019180011F016C012F000D01200136E000E126EF5
:101928003A0E136006D02F0E136403D0010E126E08
:1019380000D012C011F0113000D01200156E2FEC3B
:101948000DF015501524FAEC0BF01350FAEC0BF0CF
:101958001450FAEC0BF026EC0DF01200480E166E3F
:10196800AC0E136E020E146E1650A2EC0CF0EE0EB6
:10197800136E1650DCEC0CF01200000E186E800E80
:10198800196EA00E1A6E24C01BF025C01CF0000EA4
:10199800BEEC07F01200030ED56EDB0ED66E0B0EF2
:1019A800D76EF294D58E00D0F2A4FED7D59E120041
:1019B800146E2FEC0DF014501424FAEC0BF01350A5
:1019C800FAEC0BF026EC0DF01200F292F19CF28882
:1019D800000ECF6E000ECE6E9E909D80F28CF28E21
:1019E80012007CEC0DF080EC0DF058EC0DF073EC6F
:1019F8000DF07CEC0DF01200126E9E96C9CF11F01E
:101A080012C0C9FF00D0C7A0FED71200000E126E88
:101A1800190E116E3C0EE5EC09F0700ED36E120033
:101A2800839A000E186E640E176EFDEC0AF0838A16
:101A3800120073EC0DF058EC0DF07CEC0DF080EC1E
:101A48000DF012007CEC0DF073EC0DF058EC0DF07D
:101A580080EC0DF0120080EC0DF058EC0DF073ECFA
:101A68000DF07CEC0DF01200F90ECB6E050ECA6E6F
:101A78004A0EBB6E3C0EBA6E1200136E83948380BE
:101A8800135000EC0DF083841200136E839483903E
:101A9800135000EC0DF083841200116E00D0ACA23C
:101AA800FED711C0ADFF1200958C060EE82EFED7AA
:101AB80000D01200000E546EF19CCD909E90120042
:101AC800CFEC0CF0CFEC0CF0120058EC0DF080ECE1
:101AD8000DF0120058EC0DF07CEC0DF0120082981D
:101AE800949800D000D01200000EBA6E82921200B4
:101AF800839C959C00D01200948800D000D01200DE
:101B0800000E546ECD901200F288F19C120007FF6F
:021B18000100CA
:10FD740000000000000000005F0000000700070012
:10FD8400147F147F14242A7F2A12231308646236F2
:10FD9400495620500008070300001C22410000417E
:10FDA400221C002A1C7F1C2A08083E0808008070B8
:10FDB40030000808080808000060600020100804EB
:10FDC400023E5149453E00427F400072494949463E
:10FDD4002141494D331814127F1027454545393CBC
:10FDE4004A494931412111090736494949364649A9
:10FDF40049291E00001400000040340000000814CB
:10FE04002241141414141400412214080201590943
:10FE1400063E415D594E7C1211127C7F4949493698
:10FE24003E414141227F4141413E7F494949417F11
:10FE3400090909013E414151737F0808087F0041C7
:10FE44007F41002040413F017F081422417F404010
:10FE540040407F021C027F7F0408107F3E414141E5
:10FE64003E7F090909063E4151215E7F0919294651
:10FE7400264949493203017F01033F4040403F1F67
:10FE84002040201F3F4038403F631408146303049C
:10FE94007804036159494D43007F414141020408FC
:10FEA4001020004141417F040201020440404040CF
:10FEB40040000307080020545478407F2844443805
:10FEC4003844444428384444287F3854545418004F
:10FED400087E090218A4A49C787F080404780044CE
:10FEE4007D40002040403D007F1028440000417FB9
:10FEF40040007C047804787C080404783844444442
:10FF040038FC1824241818242418FC7C0804040839
:10FF1400485454542404043F44243C4040207C1C52
:10FF24002040201C3C4030403C44281028444C9045
:10FF340090907C4464544C4400083641000000779F
:10FF440000000041360800020102040201000A0018
:10FF54006400E80310270100100000010010205481
:10FF6400656D7065726174757265203D202564202D
:10FF74006465677265657343203D2025642064656C
:10FF84006772656573460D0A00253032783A25306C
:10FF940032783A2530327820253032782F253032A5
:10FFA400782F25303278004B6579204C6F6361746B
:10FFB400696F6E203D202564200D0A0A004E4543DA
:10FFC4005F427574746F6E203D202578200D0A0001
:10FFD40030313233343536373839616263646566BB
:10FFE400005254432054696D652052657365740D45
:0CFFF4000A004C41422031302000000087
:020000040020DA
:08000000FFFFFFFFFFFFFFFF00
:020000040030CA
:0E000000FF08191EFF8381FF0FC00FE00F40A5
:00000001FF
