:020000040000FA
:100000000F0EC16EFF0E926E936E946A956A070E84
:10001000966E84B40EEF00F013EF00F084B245EF5B
:1000200000F03EEF00F084B218EF00F01DEF00F09A
:1000300084B037EF00F030EF00F084B029EF00F02B
:1000400022EF00F0839E839C839A4CEC00F009EF32
:1000500000F0839E839C838A59EC00F009EF00F046
:10006000839E838C839A67EC00F009EF00F0839EF7
:10007000838C838A75EC00F009EF00F0838E839CFB
:10008000839A83EC00F009EF00F0838E839C838ACF
:1000900091EC00F009EF00F080500F0B206E201C57
:1000A0000F0B226E22C082FF839001E0120083803A
:1000B000120080500F0B206E81500F0B2024226EF7
:1000C00022C082FF839001E01200838012008050E2
:1000D0000F0B206E81500F0B2018226E22C082FF62
:1000E000839001E012008380120080500F0B206E7D
:1000F00081500F0B2010226E22C082FF839001E0FE
:1001000012008380120080500F0B206E81500F0B65
:100110002014226E22C082FF839001E012008380AF
:10012000120080500F0B206E090E2065A3EF00F027
:10013000060E202620C022F022C082FF839001E01C
:1001400012008380120020C022F022C082FF839020
:0801500001E01200838012009F
:020158000000A5
:020000040030CA
:0100010008F6
:0100020019E4
:010003001EDE
:010006008178
:00000001FF
